{
  "contractName": "VestingSimple",
  "abi": [
    {
      "inputs": [
        {
          "internalType": "address",
          "name": "_token",
          "type": "address"
        }
      ],
      "stateMutability": "nonpayable",
      "type": "constructor"
    },
    {
      "anonymous": false,
      "inputs": [
        {
          "indexed": false,
          "internalType": "address",
          "name": "recipient",
          "type": "address"
        },
        {
          "indexed": false,
          "internalType": "uint256",
          "name": "claimed",
          "type": "uint256"
        }
      ],
      "name": "GrantClaimed",
      "type": "event"
    },
    {
      "anonymous": false,
      "inputs": [
        {
          "indexed": false,
          "internalType": "address",
          "name": "recipient",
          "type": "address"
        },
        {
          "indexed": false,
          "internalType": "uint256",
          "name": "amount",
          "type": "uint256"
        }
      ],
      "name": "GrantSet",
      "type": "event"
    },
    {
      "anonymous": false,
      "inputs": [
        {
          "indexed": true,
          "internalType": "address",
          "name": "authority",
          "type": "address"
        }
      ],
      "name": "LogSetAuthority",
      "type": "event"
    },
    {
      "anonymous": false,
      "inputs": [
        {
          "indexed": true,
          "internalType": "address",
          "name": "owner",
          "type": "address"
        }
      ],
      "name": "LogSetOwner",
      "type": "event"
    },
    {
      "inputs": [],
      "name": "INITIAL_CLAIMABLE",
      "outputs": [
        {
          "internalType": "uint256",
          "name": "",
          "type": "uint256"
        }
      ],
      "stateMutability": "view",
      "type": "function"
    },
    {
      "inputs": [],
      "name": "VESTING_DURATION",
      "outputs": [
        {
          "internalType": "uint256",
          "name": "",
          "type": "uint256"
        }
      ],
      "stateMutability": "view",
      "type": "function"
    },
    {
      "inputs": [],
      "name": "authority",
      "outputs": [
        {
          "internalType": "contract DSAuthority",
          "name": "",
          "type": "address"
        }
      ],
      "stateMutability": "view",
      "type": "function"
    },
    {
      "inputs": [
        {
          "internalType": "address",
          "name": "",
          "type": "address"
        }
      ],
      "name": "grants",
      "outputs": [
        {
          "internalType": "uint256",
          "name": "amount",
          "type": "uint256"
        },
        {
          "internalType": "uint256",
          "name": "claimed",
          "type": "uint256"
        }
      ],
      "stateMutability": "view",
      "type": "function"
    },
    {
      "inputs": [],
      "name": "owner",
      "outputs": [
        {
          "internalType": "address",
          "name": "",
          "type": "address"
        }
      ],
      "stateMutability": "view",
      "type": "function"
    },
    {
      "inputs": [
        {
          "internalType": "contract DSAuthority",
          "name": "authority_",
          "type": "address"
        }
      ],
      "name": "setAuthority",
      "outputs": [],
      "stateMutability": "nonpayable",
      "type": "function"
    },
    {
      "inputs": [
        {
          "internalType": "address",
          "name": "owner_",
          "type": "address"
        }
      ],
      "name": "setOwner",
      "outputs": [],
      "stateMutability": "nonpayable",
      "type": "function"
    },
    {
      "inputs": [],
      "name": "startTime",
      "outputs": [
        {
          "internalType": "uint256",
          "name": "",
          "type": "uint256"
        }
      ],
      "stateMutability": "view",
      "type": "function"
    },
    {
      "inputs": [],
      "name": "token",
      "outputs": [
        {
          "internalType": "contract Token",
          "name": "",
          "type": "address"
        }
      ],
      "stateMutability": "view",
      "type": "function"
    },
    {
      "inputs": [],
      "name": "totalAmount",
      "outputs": [
        {
          "internalType": "uint256",
          "name": "",
          "type": "uint256"
        }
      ],
      "stateMutability": "view",
      "type": "function"
    },
    {
      "inputs": [],
      "name": "totalClaimed",
      "outputs": [
        {
          "internalType": "uint256",
          "name": "",
          "type": "uint256"
        }
      ],
      "stateMutability": "view",
      "type": "function"
    },
    {
      "inputs": [
        {
          "internalType": "uint256",
          "name": "_amount",
          "type": "uint256"
        }
      ],
      "name": "withdraw",
      "outputs": [],
      "stateMutability": "nonpayable",
      "type": "function"
    },
    {
      "inputs": [],
      "name": "activate",
      "outputs": [],
      "stateMutability": "nonpayable",
      "type": "function"
    },
    {
      "inputs": [
        {
          "internalType": "address",
          "name": "_recipient",
          "type": "address"
        },
        {
          "internalType": "uint256",
          "name": "_amount",
          "type": "uint256"
        }
      ],
      "name": "setGrant",
      "outputs": [],
      "stateMutability": "nonpayable",
      "type": "function"
    },
    {
      "inputs": [
        {
          "internalType": "address[]",
          "name": "_recipients",
          "type": "address[]"
        },
        {
          "internalType": "uint256[]",
          "name": "_amounts",
          "type": "uint256[]"
        }
      ],
      "name": "setGrants",
      "outputs": [],
      "stateMutability": "nonpayable",
      "type": "function"
    },
    {
      "inputs": [],
      "name": "claimGrant",
      "outputs": [],
      "stateMutability": "nonpayable",
      "type": "function"
    },
    {
      "inputs": [
        {
          "internalType": "uint256",
          "name": "_amount",
          "type": "uint256"
        }
      ],
      "name": "getClaimable",
      "outputs": [
        {
          "internalType": "uint256",
          "name": "",
          "type": "uint256"
        }
      ],
      "stateMutability": "view",
      "type": "function"
    }
  ],
  "bytecode": "0x608060405234801561001057600080fd5b50604051610f9e380380610f9e83398101604081905261002f91610106565b600180546001600160a01b031916339081179091556040517fce241d7ca1f669fee44b6fc00b8eba2df3bb514eed0f6f668f8f89096e81ed9490600090a26001600160a01b0381166100e1576040517f08c379a000000000000000000000000000000000000000000000000000000000815260206004820152601c60248201527f76657374696e672d73696d706c652d696e76616c69642d746f6b656e00000000604482015260640160405180910390fd5b600280546001600160a01b0319166001600160a01b0392909216919091179055610136565b60006020828403121561011857600080fd5b81516001600160a01b038116811461012f57600080fd5b9392505050565b610e59806101456000396000f3fe608060405234801561001057600080fd5b506004361061010b5760003560e01c80637053886b116100a25780639c7e4a66116100715780639c7e4a66146101e4578063b869cea3146101f7578063bf7e214f14610233578063d54ad2a114610246578063fc0c546a1461024f57600080fd5b80637053886b1461018a57806378e979251461019d5780637a9e5e4b146101a65780638da5cb5b146101b957600080fd5b8063410fb002116100de578063410fb0021461015c5780634cfc4d30146101645780635d22e77c1461016f5780635fd260ee1461017757600080fd5b80630f15f4c01461011057806313af40351461011a5780631a39d8ef1461012d5780632e1a7d4d14610149575b600080fd5b610118610262565b005b610118610128366004610bec565b6102f3565b61013660045481565b6040519081526020015b60405180910390f35b610118610157366004610c09565b61036f565b610136610465565b6101366303c2670081565b61011861047d565b610118610185366004610c6e565b610644565b610118610198366004610cda565b610731565b61013660035481565b6101186101b4366004610bec565b610835565b6001546101cc906001600160a01b031681565b6040516001600160a01b039091168152602001610140565b6101366101f2366004610c09565b6108af565b61021e610205366004610bec565b6006602052600090815260409020805460019091015482565b60408051928352602083019190915201610140565b6000546101cc906001600160a01b031681565b61013660055481565b6002546101cc906001600160a01b031681565b610278336000356001600160e01b031916610961565b61029d5760405162461bcd60e51b815260040161029490610d06565b60405180910390fd5b600354156102ed5760405162461bcd60e51b815260206004820152601d60248201527f76657374696e672d73696d706c652d616c72656164792d6163746976650000006044820152606401610294565b42600355565b610309336000356001600160e01b031916610961565b6103255760405162461bcd60e51b815260040161029490610d06565b600180546001600160a01b0319166001600160a01b0383169081179091556040517fce241d7ca1f669fee44b6fc00b8eba2df3bb514eed0f6f668f8f89096e81ed9490600090a250565b610385336000356001600160e01b031916610961565b6103a15760405162461bcd60e51b815260040161029490610d06565b60025460405163a9059cbb60e01b8152336004820152602481018390526001600160a01b039091169063a9059cbb906044016020604051808303816000875af11580156103f2573d6000803e3d6000fd5b505050506040513d601f19601f820116820180604052508101906104169190610d34565b6104625760405162461bcd60e51b815260206004820152601e60248201527f76657374696e672d73696d706c652d7472616e736665722d6661696c656400006044820152606401610294565b50565b61047a670de0b6b3a7640000620186a0610d6c565b81565b33600090815260066020526040812080549091906104a89061049e906108af565b8360010154610a3f565b9050600081116104fa5760405162461bcd60e51b815260206004820152601f60248201527f76657374696e672d73696d706c652d6e6f7468696e672d746f2d636c61696d006044820152606401610294565b610508826001015482610a95565b600183015560055461051a9082610a95565b60055560018201548254101561053257610532610d8b565b600554600454101561054657610546610d8b565b60025460405163a9059cbb60e01b8152336004820152602481018390526001600160a01b039091169063a9059cbb906044016020604051808303816000875af1158015610597573d6000803e3d6000fd5b505050506040513d601f19601f820116820180604052508101906105bb9190610d34565b6106075760405162461bcd60e51b815260206004820152601e60248201527f76657374696e672d73696d706c652d7472616e736665722d6661696c656400006044820152606401610294565b60408051338152602081018390527f2aa1d398fac8a867531b04feb1273747a6f1ec3d4700f40a2901dce75363edc0910160405180910390a15050565b61065a336000356001600160e01b031916610961565b6106765760405162461bcd60e51b815260040161029490610d06565b8281146106c55760405162461bcd60e51b815260206004820152601960248201527f76657374696e672d73696d706c652d6261642d696e70757473000000000000006044820152606401610294565b60005b8381101561072a576107188585838181106106e5576106e5610da1565b90506020020160208101906106fa9190610bec565b84848481811061070c5761070c610da1565b90506020020135610731565b8061072281610db7565b9150506106c8565b5050505050565b610747336000356001600160e01b031916610961565b6107635760405162461bcd60e51b815260040161029490610d06565b6001600160a01b038216600090815260066020526040902060018101548210156107cf5760405162461bcd60e51b815260206004820152601960248201527f76657374696e672d73696d706c652d6261642d616d6f756e74000000000000006044820152606401610294565b6107e8826107e36004548460000154610a3f565b610a95565b600455818155604080516001600160a01b0385168152602081018490527f8b5c4632f43e939863cfffd99bf375cc039abc5af120c5d80617e7d8b249b4c1910160405180910390a1505050565b61084b336000356001600160e01b031916610961565b6108675760405162461bcd60e51b815260040161029490610d06565b600080546001600160a01b0319166001600160a01b038316908117825560405190917f1abebea81bfa2637f28358c371278fb15ede7ea8dd28d2e03b112ff6d936ada491a250565b6000600354600014156108c457506000919050565b60006108f2670de0b6b3a76400006108ed600354426108e39190610dd2565b6303c26700610aea565b610b1e565b90506000610931610917610911670de0b6b3a7640000620186a0610d6c565b86610b35565b61092c670de0b6b3a7640000620186a0610d6c565b610a3f565b9050610959846108ed61094f670de0b6b3a7640000620186a0610d6c565b6107e38686610b45565b949350505050565b60006001600160a01b03831630141561097c57506001610a39565b6001546001600160a01b038481169116141561099a57506001610a39565b6000546001600160a01b03166109b257506000610a39565b60005460405163b700961360e01b81526001600160a01b0385811660048301523060248301526001600160e01b0319851660448301529091169063b700961390606401602060405180830381865afa158015610a12573d6000803e3d6000fd5b505050506040513d601f19601f82011682018060405250810190610a369190610d34565b90505b92915050565b600082610a4c8382610dd2565b9150811115610a395760405162461bcd60e51b815260206004820152601560248201527464732d6d6174682d7375622d756e646572666c6f7760581b6044820152606401610294565b600082610aa28382610de9565b9150811015610a395760405162461bcd60e51b815260206004820152601460248201527364732d6d6174682d6164642d6f766572666c6f7760601b6044820152606401610294565b600081610b0d610b0285670de0b6b3a7640000610b70565b6107e3600286610e01565b610b179190610e01565b9392505050565b600081831115610b2e5781610b17565b5090919050565b600081831015610b2e5781610b17565b6000670de0b6b3a7640000610b0d610b5d8585610b70565b6107e36002670de0b6b3a7640000610e01565b6000811580610b9457508282610b868183610d6c565b9250610b929083610e01565b145b610a395760405162461bcd60e51b815260206004820152601460248201527364732d6d6174682d6d756c2d6f766572666c6f7760601b6044820152606401610294565b6001600160a01b038116811461046257600080fd5b600060208284031215610bfe57600080fd5b8135610b1781610bd7565b600060208284031215610c1b57600080fd5b5035919050565b60008083601f840112610c3457600080fd5b50813567ffffffffffffffff811115610c4c57600080fd5b6020830191508360208260051b8501011115610c6757600080fd5b9250929050565b60008060008060408587031215610c8457600080fd5b843567ffffffffffffffff80821115610c9c57600080fd5b610ca888838901610c22565b90965094506020870135915080821115610cc157600080fd5b50610cce87828801610c22565b95989497509550505050565b60008060408385031215610ced57600080fd5b8235610cf881610bd7565b946020939093013593505050565b602080825260149082015273191ccb585d5d1a0b5d5b985d5d1a1bdc9a5e995960621b604082015260600190565b600060208284031215610d4657600080fd5b81518015158114610b1757600080fd5b634e487b7160e01b600052601160045260246000fd5b6000816000190483118215151615610d8657610d86610d56565b500290565b634e487b7160e01b600052600160045260246000fd5b634e487b7160e01b600052603260045260246000fd5b6000600019821415610dcb57610dcb610d56565b5060010190565b600082821015610de457610de4610d56565b500390565b60008219821115610dfc57610dfc610d56565b500190565b600082610e1e57634e487b7160e01b600052601260045260246000fd5b50049056fea2646970667358221220ca19ae66f2e1535c127e6fda6439f26ad9a2d3a85601445ac332e1af4a4efea764736f6c634300080a0033",
  "immutableReferences": {},
  "source": "/*\n  This file is part of The Colony Network.\n\n  The Colony Network is free software: you can redistribute it and/or modify\n  it under the terms of the GNU General Public License as published by\n  the Free Software Foundation, either version 3 of the License, or\n  (at your option) any later version.\n\n  The Colony Network is distributed in the hope that it will be useful,\n  but WITHOUT ANY WARRANTY; without even the implied warranty of\n  MERCHANTABILITY or FITNESS FOR A PARTICULAR PURPOSE.  See the\n  GNU General Public License for more details.\n\n  You should have received a copy of the GNU General Public License\n  along with The Colony Network. If not, see <http://www.gnu.org/licenses/>.\n*/\n\npragma solidity 0.8.10;\n\nimport \"./Token.sol\";\nimport \"../lib/dappsys/auth.sol\";\nimport \"../lib/dappsys/math.sol\";\nimport \"../lib/dappsys/erc20.sol\";\n\n\ncontract VestingSimple is DSMath, DSAuth {\n\n  event GrantSet(address recipient, uint256 amount);\n  event GrantClaimed(address recipient, uint256 claimed);\n\n  Token public token; // The token being distributed\n\n  uint256 constant public INITIAL_CLAIMABLE = 100000 * WAD; // The amount of tokens claimable upon activation\n  uint256 constant public VESTING_DURATION = 365 days * 2; // The period of time (in seconds) over which the vesting occurs\n  uint256 public startTime; // The timestamp of activation, when vesting begins\n\n  uint256 public totalAmount; // Sum of all grant amounts\n  uint256 public totalClaimed; // Sum of all claimed tokens\n\n  struct Grant {\n    uint256 amount;\n    uint256 claimed;\n  }\n\n  mapping (address => Grant) public grants;\n\n  constructor(address _token) {\n    require(_token != address(0x0), \"vesting-simple-invalid-token\");\n\n    token = Token(_token);\n  }\n\n  function withdraw(uint256 _amount) external auth {\n    require(token.transfer(msg.sender, _amount), \"vesting-simple-transfer-failed\");\n  }\n\n  function activate() external auth {\n    require(startTime == 0, \"vesting-simple-already-active\");\n    startTime = block.timestamp;\n  }\n\n  function setGrant(address _recipient, uint256 _amount) public auth {\n    Grant storage grant = grants[_recipient];\n    require(grant.claimed <= _amount, \"vesting-simple-bad-amount\");\n\n    totalAmount = add(_amount, sub(totalAmount, grant.amount));\n    grant.amount = _amount;\n\n    emit GrantSet(_recipient, _amount);\n  }\n\n  function setGrants(address[] calldata _recipients, uint256[] calldata _amounts) external auth {\n    require(_recipients.length == _amounts.length, \"vesting-simple-bad-inputs\");\n\n    for (uint256 i; i < _recipients.length; i++) {\n      setGrant(_recipients[i], _amounts[i]);\n    }\n  }\n\n  function claimGrant() external {\n    Grant storage grant = grants[msg.sender];\n    uint256 claimable = sub(getClaimable(grant.amount), grant.claimed);\n    require(claimable > 0, \"vesting-simple-nothing-to-claim\");\n\n    grant.claimed = add(grant.claimed, claimable);\n    totalClaimed = add(totalClaimed, claimable);\n\n    assert(grant.amount >= grant.claimed);\n    assert(totalAmount >= totalClaimed);\n\n    require(token.transfer(msg.sender, claimable), \"vesting-simple-transfer-failed\");\n\n    emit GrantClaimed(msg.sender, claimable);\n  }\n\n  function getClaimable(uint256 _amount) public view returns (uint256) {\n    if (startTime == 0) { return 0; }\n    uint256 fractionUnlocked = min(WAD, wdiv((block.timestamp - startTime), VESTING_DURATION)); // Max 1\n    uint256 remainder = sub(max(INITIAL_CLAIMABLE, _amount), INITIAL_CLAIMABLE); // Avoid underflows for small grants\n    return min(_amount, add(INITIAL_CLAIMABLE, wmul(fractionUnlocked, remainder)));\n  }\n}\n",
  "sourcePath": "/home/alex/colony/colonyToken2/contracts/VestingSimple.sol",
  "compiler": {
    "name": "solc",
    "version": "0.8.10+commit.fc410830.Linux.g++"
  },
  "schemaVersion": "3.4.4",
  "updatedAt": "2022-01-25T14:10:02.854Z",
  "devdoc": {
    "kind": "dev",
    "methods": {},
    "version": 1
  },
  "userdoc": {
    "kind": "user",
    "methods": {},
    "version": 1
  }
}