{
  "contractName": "VestingSimple",
  "abi": [
    {
      "inputs": [
        {
          "internalType": "address",
          "name": "_token",
          "type": "address"
        },
        {
          "internalType": "uint256",
          "name": "_initialClaimable",
          "type": "uint256"
        },
        {
          "internalType": "uint256",
          "name": "_vestingDuration",
          "type": "uint256"
        }
      ],
      "stateMutability": "nonpayable",
      "type": "constructor"
    },
    {
      "anonymous": false,
      "inputs": [
        {
          "indexed": false,
          "internalType": "address",
          "name": "recipient",
          "type": "address"
        },
        {
          "indexed": false,
          "internalType": "uint256",
          "name": "claimed",
          "type": "uint256"
        }
      ],
      "name": "GrantClaimed",
      "type": "event"
    },
    {
      "anonymous": false,
      "inputs": [
        {
          "indexed": false,
          "internalType": "address",
          "name": "recipient",
          "type": "address"
        },
        {
          "indexed": false,
          "internalType": "uint256",
          "name": "amount",
          "type": "uint256"
        }
      ],
      "name": "GrantSet",
      "type": "event"
    },
    {
      "anonymous": false,
      "inputs": [
        {
          "indexed": true,
          "internalType": "address",
          "name": "authority",
          "type": "address"
        }
      ],
      "name": "LogSetAuthority",
      "type": "event"
    },
    {
      "anonymous": false,
      "inputs": [
        {
          "indexed": true,
          "internalType": "address",
          "name": "owner",
          "type": "address"
        }
      ],
      "name": "LogSetOwner",
      "type": "event"
    },
    {
      "inputs": [],
      "name": "authority",
      "outputs": [
        {
          "internalType": "contract DSAuthority",
          "name": "",
          "type": "address"
        }
      ],
      "stateMutability": "view",
      "type": "function"
    },
    {
      "inputs": [
        {
          "internalType": "address",
          "name": "",
          "type": "address"
        }
      ],
      "name": "grants",
      "outputs": [
        {
          "internalType": "uint256",
          "name": "amount",
          "type": "uint256"
        },
        {
          "internalType": "uint256",
          "name": "claimed",
          "type": "uint256"
        }
      ],
      "stateMutability": "view",
      "type": "function"
    },
    {
      "inputs": [],
      "name": "initialClaimable",
      "outputs": [
        {
          "internalType": "uint256",
          "name": "",
          "type": "uint256"
        }
      ],
      "stateMutability": "view",
      "type": "function"
    },
    {
      "inputs": [],
      "name": "owner",
      "outputs": [
        {
          "internalType": "address",
          "name": "",
          "type": "address"
        }
      ],
      "stateMutability": "view",
      "type": "function"
    },
    {
      "inputs": [
        {
          "internalType": "contract DSAuthority",
          "name": "authority_",
          "type": "address"
        }
      ],
      "name": "setAuthority",
      "outputs": [],
      "stateMutability": "nonpayable",
      "type": "function"
    },
    {
      "inputs": [
        {
          "internalType": "address",
          "name": "owner_",
          "type": "address"
        }
      ],
      "name": "setOwner",
      "outputs": [],
      "stateMutability": "nonpayable",
      "type": "function"
    },
    {
      "inputs": [],
      "name": "startTime",
      "outputs": [
        {
          "internalType": "uint256",
          "name": "",
          "type": "uint256"
        }
      ],
      "stateMutability": "view",
      "type": "function"
    },
    {
      "inputs": [],
      "name": "token",
      "outputs": [
        {
          "internalType": "contract Token",
          "name": "",
          "type": "address"
        }
      ],
      "stateMutability": "view",
      "type": "function"
    },
    {
      "inputs": [],
      "name": "totalAmount",
      "outputs": [
        {
          "internalType": "uint256",
          "name": "",
          "type": "uint256"
        }
      ],
      "stateMutability": "view",
      "type": "function"
    },
    {
      "inputs": [],
      "name": "totalClaimed",
      "outputs": [
        {
          "internalType": "uint256",
          "name": "",
          "type": "uint256"
        }
      ],
      "stateMutability": "view",
      "type": "function"
    },
    {
      "inputs": [],
      "name": "vestingDuration",
      "outputs": [
        {
          "internalType": "uint256",
          "name": "",
          "type": "uint256"
        }
      ],
      "stateMutability": "view",
      "type": "function"
    },
    {
      "inputs": [
        {
          "internalType": "uint256",
          "name": "_amount",
          "type": "uint256"
        }
      ],
      "name": "withdraw",
      "outputs": [],
      "stateMutability": "nonpayable",
      "type": "function"
    },
    {
      "inputs": [],
      "name": "activate",
      "outputs": [],
      "stateMutability": "nonpayable",
      "type": "function"
    },
    {
      "inputs": [
        {
          "internalType": "address",
          "name": "_recipient",
          "type": "address"
        },
        {
          "internalType": "uint256",
          "name": "_amount",
          "type": "uint256"
        }
      ],
      "name": "setGrant",
      "outputs": [],
      "stateMutability": "nonpayable",
      "type": "function"
    },
    {
      "inputs": [
        {
          "internalType": "address[]",
          "name": "_recipients",
          "type": "address[]"
        },
        {
          "internalType": "uint256[]",
          "name": "_amounts",
          "type": "uint256[]"
        }
      ],
      "name": "setGrants",
      "outputs": [],
      "stateMutability": "nonpayable",
      "type": "function"
    },
    {
      "inputs": [],
      "name": "claimGrant",
      "outputs": [],
      "stateMutability": "nonpayable",
      "type": "function"
    },
    {
      "inputs": [
        {
          "internalType": "uint256",
          "name": "_amount",
          "type": "uint256"
        }
      ],
      "name": "getClaimable",
      "outputs": [
        {
          "internalType": "uint256",
          "name": "",
          "type": "uint256"
        }
      ],
      "stateMutability": "view",
      "type": "function"
    }
  ],
  "bytecode": "0x608060405234801561001057600080fd5b50604051610f67380380610f6783398101604081905261002f9161010d565b600180546001600160a01b031916339081179091556040517fce241d7ca1f669fee44b6fc00b8eba2df3bb514eed0f6f668f8f89096e81ed9490600090a26001600160a01b0383166100e1576040517f08c379a000000000000000000000000000000000000000000000000000000000815260206004820152601c60248201527f76657374696e672d73696d706c652d696e76616c69642d746f6b656e00000000604482015260640160405180910390fd5b600280546001600160a01b0319166001600160a01b039490941693909317909255600355600455610150565b60008060006060848603121561012257600080fd5b83516001600160a01b038116811461013957600080fd5b602085015160409095015190969495509392505050565b610e088061015f6000396000f3fe608060405234801561001057600080fd5b506004361061010b5760003560e01c806378e97925116100a25780639c7e4a66116100715780639c7e4a66146101e3578063b869cea3146101f6578063bf7e214f14610232578063d54ad2a114610245578063fc0c546a1461024e57600080fd5b806378e97925146101935780637a9e5e4b1461019c5780638da5cb5b146101af5780639a8abac8146101da57600080fd5b80632e1a7d4d116100de5780632e1a7d4d146101525780635d22e77c146101655780635fd260ee1461016d5780637053886b1461018057600080fd5b80630f15f4c01461011057806313af40351461011a5780631514617e1461012d5780631a39d8ef14610149575b600080fd5b610118610261565b005b610118610128366004610b9b565b6102f2565b61013660045481565b6040519081526020015b60405180910390f35b61013660065481565b610118610160366004610bb8565b61036e565b610118610464565b61011861017b366004610c1d565b61062b565b61011861018e366004610c89565b610718565b61013660055481565b6101186101aa366004610b9b565b61081c565b6001546101c2906001600160a01b031681565b6040516001600160a01b039091168152602001610140565b61013660035481565b6101366101f1366004610bb8565b610896565b61021d610204366004610b9b565b6008602052600090815260409020805460019091015482565b60408051928352602083019190915201610140565b6000546101c2906001600160a01b031681565b61013660075481565b6002546101c2906001600160a01b031681565b610277336000356001600160e01b031916610910565b61029c5760405162461bcd60e51b815260040161029390610cb5565b60405180910390fd5b600554156102ec5760405162461bcd60e51b815260206004820152601d60248201527f76657374696e672d73696d706c652d616c72656164792d6163746976650000006044820152606401610293565b42600555565b610308336000356001600160e01b031916610910565b6103245760405162461bcd60e51b815260040161029390610cb5565b600180546001600160a01b0319166001600160a01b0383169081179091556040517fce241d7ca1f669fee44b6fc00b8eba2df3bb514eed0f6f668f8f89096e81ed9490600090a250565b610384336000356001600160e01b031916610910565b6103a05760405162461bcd60e51b815260040161029390610cb5565b60025460405163a9059cbb60e01b8152336004820152602481018390526001600160a01b039091169063a9059cbb906044016020604051808303816000875af11580156103f1573d6000803e3d6000fd5b505050506040513d601f19601f820116820180604052508101906104159190610ce3565b6104615760405162461bcd60e51b815260206004820152601e60248201527f76657374696e672d73696d706c652d7472616e736665722d6661696c656400006044820152606401610293565b50565b336000908152600860205260408120805490919061048f9061048590610896565b83600101546109ee565b9050600081116104e15760405162461bcd60e51b815260206004820152601f60248201527f76657374696e672d73696d706c652d6e6f7468696e672d746f2d636c61696d006044820152606401610293565b6104ef826001015482610a44565b60018301556007546105019082610a44565b60075560018201548254101561051957610519610d05565b600754600654101561052d5761052d610d05565b60025460405163a9059cbb60e01b8152336004820152602481018390526001600160a01b039091169063a9059cbb906044016020604051808303816000875af115801561057e573d6000803e3d6000fd5b505050506040513d601f19601f820116820180604052508101906105a29190610ce3565b6105ee5760405162461bcd60e51b815260206004820152601e60248201527f76657374696e672d73696d706c652d7472616e736665722d6661696c656400006044820152606401610293565b60408051338152602081018390527f2aa1d398fac8a867531b04feb1273747a6f1ec3d4700f40a2901dce75363edc0910160405180910390a15050565b610641336000356001600160e01b031916610910565b61065d5760405162461bcd60e51b815260040161029390610cb5565b8281146106ac5760405162461bcd60e51b815260206004820152601960248201527f76657374696e672d73696d706c652d6261642d696e70757473000000000000006044820152606401610293565b60005b83811015610711576106ff8585838181106106cc576106cc610d1b565b90506020020160208101906106e19190610b9b565b8484848181106106f3576106f3610d1b565b90506020020135610718565b8061070981610d47565b9150506106af565b5050505050565b61072e336000356001600160e01b031916610910565b61074a5760405162461bcd60e51b815260040161029390610cb5565b6001600160a01b038216600090815260086020526040902060018101548210156107b65760405162461bcd60e51b815260206004820152601960248201527f76657374696e672d73696d706c652d6261642d616d6f756e74000000000000006044820152606401610293565b6107cf826107ca60065484600001546109ee565b610a44565b600655818155604080516001600160a01b0385168152602081018490527f8b5c4632f43e939863cfffd99bf375cc039abc5af120c5d80617e7d8b249b4c1910160405180910390a1505050565b610832336000356001600160e01b031916610910565b61084e5760405162461bcd60e51b815260040161029390610cb5565b600080546001600160a01b0319166001600160a01b038316908117825560405190917f1abebea81bfa2637f28358c371278fb15ede7ea8dd28d2e03b112ff6d936ada491a250565b6000600554600014156108ab57506000919050565b60006108d7670de0b6b3a76400006108d2600554426108ca9190610d62565b600454610a99565b610acd565b905060006108f26108ea60035486610ae4565b6003546109ee565b9050610908846108d26003546107ca8686610af4565b949350505050565b60006001600160a01b03831630141561092b575060016109e8565b6001546001600160a01b0384811691161415610949575060016109e8565b6000546001600160a01b0316610961575060006109e8565b60005460405163b700961360e01b81526001600160a01b0385811660048301523060248301526001600160e01b0319851660448301529091169063b700961390606401602060405180830381865afa1580156109c1573d6000803e3d6000fd5b505050506040513d601f19601f820116820180604052508101906109e59190610ce3565b90505b92915050565b6000826109fb8382610d62565b91508111156109e85760405162461bcd60e51b815260206004820152601560248201527464732d6d6174682d7375622d756e646572666c6f7760581b6044820152606401610293565b600082610a518382610d79565b91508110156109e85760405162461bcd60e51b815260206004820152601460248201527364732d6d6174682d6164642d6f766572666c6f7760601b6044820152606401610293565b600081610abc610ab185670de0b6b3a7640000610b1f565b6107ca600286610d91565b610ac69190610d91565b9392505050565b600081831115610add5781610ac6565b5090919050565b600081831015610add5781610ac6565b6000670de0b6b3a7640000610abc610b0c8585610b1f565b6107ca6002670de0b6b3a7640000610d91565b6000811580610b4357508282610b358183610db3565b9250610b419083610d91565b145b6109e85760405162461bcd60e51b815260206004820152601460248201527364732d6d6174682d6d756c2d6f766572666c6f7760601b6044820152606401610293565b6001600160a01b038116811461046157600080fd5b600060208284031215610bad57600080fd5b8135610ac681610b86565b600060208284031215610bca57600080fd5b5035919050565b60008083601f840112610be357600080fd5b50813567ffffffffffffffff811115610bfb57600080fd5b6020830191508360208260051b8501011115610c1657600080fd5b9250929050565b60008060008060408587031215610c3357600080fd5b843567ffffffffffffffff80821115610c4b57600080fd5b610c5788838901610bd1565b90965094506020870135915080821115610c7057600080fd5b50610c7d87828801610bd1565b95989497509550505050565b60008060408385031215610c9c57600080fd5b8235610ca781610b86565b946020939093013593505050565b602080825260149082015273191ccb585d5d1a0b5d5b985d5d1a1bdc9a5e995960621b604082015260600190565b600060208284031215610cf557600080fd5b81518015158114610ac657600080fd5b634e487b7160e01b600052600160045260246000fd5b634e487b7160e01b600052603260045260246000fd5b634e487b7160e01b600052601160045260246000fd5b6000600019821415610d5b57610d5b610d31565b5060010190565b600082821015610d7457610d74610d31565b500390565b60008219821115610d8c57610d8c610d31565b500190565b600082610dae57634e487b7160e01b600052601260045260246000fd5b500490565b6000816000190483118215151615610dcd57610dcd610d31565b50029056fea26469706673582212208b65fa95238c3b120736d31614b5cf559f3ef8e51fa832fb73c3aee1e759505364736f6c634300080a0033",
  "immutableReferences": {},
  "source": "/*\n  This file is part of The Colony Network.\n\n  The Colony Network is free software: you can redistribute it and/or modify\n  it under the terms of the GNU General Public License as published by\n  the Free Software Foundation, either version 3 of the License, or\n  (at your option) any later version.\n\n  The Colony Network is distributed in the hope that it will be useful,\n  but WITHOUT ANY WARRANTY; without even the implied warranty of\n  MERCHANTABILITY or FITNESS FOR A PARTICULAR PURPOSE.  See the\n  GNU General Public License for more details.\n\n  You should have received a copy of the GNU General Public License\n  along with The Colony Network. If not, see <http://www.gnu.org/licenses/>.\n*/\n\npragma solidity 0.8.10;\npragma experimental ABIEncoderV2;\n\nimport \"./Token.sol\";\nimport \"../lib/dappsys/auth.sol\";\nimport \"../lib/dappsys/math.sol\";\nimport \"../lib/dappsys/erc20.sol\";\n\n\ncontract VestingSimple is DSMath, DSAuth {\n\n  event GrantSet(address recipient, uint256 amount);\n  event GrantClaimed(address recipient, uint256 claimed);\n\n  Token public token; // The token being distributed\n\n  uint256 public initialClaimable; // The amount of tokens claimable upon activation\n  uint256 public vestingDuration; // The period of time (in seconds) over which the vesting occurs\n  uint256 public startTime; // The timestamp of activation, when vesting begins\n\n  uint256 public totalAmount; // Sum of all grant amounts\n  uint256 public totalClaimed; // Sum of all claimed tokens\n\n  struct Grant {\n    uint256 amount;\n    uint256 claimed;\n  }\n\n  mapping (address => Grant) public grants;\n\n  constructor(address _token, uint256 _initialClaimable, uint256 _vestingDuration) public {\n    require(_token != address(0x0), \"vesting-simple-invalid-token\");\n\n    token = Token(_token);\n    initialClaimable = _initialClaimable;\n    vestingDuration = _vestingDuration;\n  }\n\n  function withdraw(uint256 _amount) external auth {\n    require(token.transfer(msg.sender, _amount), \"vesting-simple-transfer-failed\");\n  }\n\n  function activate() external auth {\n    require(startTime == 0, \"vesting-simple-already-active\");\n    startTime = block.timestamp;\n  }\n\n  function setGrant(address _recipient, uint256 _amount) public auth {\n    Grant storage grant = grants[_recipient];\n    require(grant.claimed <= _amount, \"vesting-simple-bad-amount\");\n\n    totalAmount = add(_amount, sub(totalAmount, grant.amount));\n    grant.amount = _amount;\n\n    emit GrantSet(_recipient, _amount);\n  }\n\n  function setGrants(address[] calldata _recipients, uint256[] calldata _amounts) external auth {\n    require(_recipients.length == _amounts.length, \"vesting-simple-bad-inputs\");\n\n    for (uint256 i; i < _recipients.length; i++) {\n      setGrant(_recipients[i], _amounts[i]);\n    }\n  }\n\n  function claimGrant() external {\n    Grant storage grant = grants[msg.sender];\n    uint256 claimable = sub(getClaimable(grant.amount), grant.claimed);\n    require(claimable > 0, \"vesting-simple-nothing-to-claim\");\n\n    grant.claimed = add(grant.claimed, claimable);\n    totalClaimed = add(totalClaimed, claimable);\n\n    assert(grant.amount >= grant.claimed);\n    assert(totalAmount >= totalClaimed);\n\n    require(token.transfer(msg.sender, claimable), \"vesting-simple-transfer-failed\");\n\n    emit GrantClaimed(msg.sender, claimable);\n  }\n\n  function getClaimable(uint256 _amount) public view returns (uint256) {\n    if (startTime == 0) { return 0; }\n    uint256 fractionUnlocked = min(WAD, wdiv((block.timestamp - startTime), vestingDuration)); // Max 1\n    uint256 remainder = sub(max(initialClaimable, _amount), initialClaimable); // Avoid underflows for small grants\n    return min(_amount, add(initialClaimable, wmul(fractionUnlocked, remainder)));\n  }\n}\n",
  "sourcePath": "/home/rdig/development/colony/colonyDapp/src/lib/colonyNetwork/lib/colonyToken/contracts/VestingSimple.sol",
  "compiler": {
    "name": "solc",
    "version": "0.8.10+commit.fc410830.Linux.g++"
  },
  "schemaVersion": "3.4.3",
  "updatedAt": "2021-12-16T15:18:07.243Z",
  "devdoc": {
    "kind": "dev",
    "methods": {},
    "version": 1
  },
  "userdoc": {
    "kind": "user",
    "methods": {},
    "version": 1
  }
}