{
  "contractName": "WrappedToken",
  "abi": [
    {
      "inputs": [
        {
          "internalType": "address",
          "name": "_token",
          "type": "address"
        }
      ],
      "stateMutability": "nonpayable",
      "type": "constructor"
    },
    {
      "anonymous": false,
      "inputs": [
        {
          "indexed": true,
          "internalType": "address",
          "name": "src",
          "type": "address"
        },
        {
          "indexed": true,
          "internalType": "address",
          "name": "guy",
          "type": "address"
        },
        {
          "indexed": false,
          "internalType": "uint256",
          "name": "wad",
          "type": "uint256"
        }
      ],
      "name": "Approval",
      "type": "event"
    },
    {
      "anonymous": false,
      "inputs": [
        {
          "indexed": true,
          "internalType": "address",
          "name": "dst",
          "type": "address"
        },
        {
          "indexed": false,
          "internalType": "uint256",
          "name": "wad",
          "type": "uint256"
        }
      ],
      "name": "Deposit",
      "type": "event"
    },
    {
      "anonymous": false,
      "inputs": [
        {
          "indexed": true,
          "internalType": "address",
          "name": "authority",
          "type": "address"
        }
      ],
      "name": "LogSetAuthority",
      "type": "event"
    },
    {
      "anonymous": false,
      "inputs": [
        {
          "indexed": true,
          "internalType": "address",
          "name": "owner",
          "type": "address"
        }
      ],
      "name": "LogSetOwner",
      "type": "event"
    },
    {
      "anonymous": false,
      "inputs": [
        {
          "indexed": true,
          "internalType": "address",
          "name": "src",
          "type": "address"
        },
        {
          "indexed": true,
          "internalType": "address",
          "name": "dst",
          "type": "address"
        },
        {
          "indexed": false,
          "internalType": "uint256",
          "name": "wad",
          "type": "uint256"
        }
      ],
      "name": "Transfer",
      "type": "event"
    },
    {
      "anonymous": false,
      "inputs": [
        {
          "indexed": true,
          "internalType": "address",
          "name": "src",
          "type": "address"
        },
        {
          "indexed": false,
          "internalType": "uint256",
          "name": "wad",
          "type": "uint256"
        }
      ],
      "name": "Withdrawal",
      "type": "event"
    },
    {
      "inputs": [
        {
          "internalType": "address",
          "name": "src",
          "type": "address"
        },
        {
          "internalType": "address",
          "name": "guy",
          "type": "address"
        }
      ],
      "name": "allowance",
      "outputs": [
        {
          "internalType": "uint256",
          "name": "",
          "type": "uint256"
        }
      ],
      "stateMutability": "view",
      "type": "function"
    },
    {
      "inputs": [
        {
          "internalType": "address",
          "name": "guy",
          "type": "address"
        },
        {
          "internalType": "uint256",
          "name": "wad",
          "type": "uint256"
        }
      ],
      "name": "approve",
      "outputs": [
        {
          "internalType": "bool",
          "name": "",
          "type": "bool"
        }
      ],
      "stateMutability": "nonpayable",
      "type": "function"
    },
    {
      "inputs": [],
      "name": "authority",
      "outputs": [
        {
          "internalType": "contract DSAuthority",
          "name": "",
          "type": "address"
        }
      ],
      "stateMutability": "view",
      "type": "function"
    },
    {
      "inputs": [
        {
          "internalType": "address",
          "name": "src",
          "type": "address"
        }
      ],
      "name": "balanceOf",
      "outputs": [
        {
          "internalType": "uint256",
          "name": "",
          "type": "uint256"
        }
      ],
      "stateMutability": "view",
      "type": "function"
    },
    {
      "inputs": [],
      "name": "locked",
      "outputs": [
        {
          "internalType": "bool",
          "name": "",
          "type": "bool"
        }
      ],
      "stateMutability": "view",
      "type": "function"
    },
    {
      "inputs": [],
      "name": "owner",
      "outputs": [
        {
          "internalType": "address",
          "name": "",
          "type": "address"
        }
      ],
      "stateMutability": "view",
      "type": "function"
    },
    {
      "inputs": [
        {
          "internalType": "contract DSAuthority",
          "name": "authority_",
          "type": "address"
        }
      ],
      "name": "setAuthority",
      "outputs": [],
      "stateMutability": "nonpayable",
      "type": "function"
    },
    {
      "inputs": [
        {
          "internalType": "address",
          "name": "owner_",
          "type": "address"
        }
      ],
      "name": "setOwner",
      "outputs": [],
      "stateMutability": "nonpayable",
      "type": "function"
    },
    {
      "inputs": [],
      "name": "token",
      "outputs": [
        {
          "internalType": "address",
          "name": "",
          "type": "address"
        }
      ],
      "stateMutability": "view",
      "type": "function"
    },
    {
      "inputs": [],
      "name": "totalSupply",
      "outputs": [
        {
          "internalType": "uint256",
          "name": "",
          "type": "uint256"
        }
      ],
      "stateMutability": "view",
      "type": "function"
    },
    {
      "inputs": [
        {
          "internalType": "address",
          "name": "dst",
          "type": "address"
        },
        {
          "internalType": "uint256",
          "name": "wad",
          "type": "uint256"
        }
      ],
      "name": "transfer",
      "outputs": [
        {
          "internalType": "bool",
          "name": "",
          "type": "bool"
        }
      ],
      "stateMutability": "nonpayable",
      "type": "function"
    },
    {
      "inputs": [],
      "name": "unlock",
      "outputs": [],
      "stateMutability": "nonpayable",
      "type": "function"
    },
    {
      "inputs": [],
      "name": "decimals",
      "outputs": [
        {
          "internalType": "uint8",
          "name": "",
          "type": "uint8"
        }
      ],
      "stateMutability": "view",
      "type": "function"
    },
    {
      "inputs": [],
      "name": "name",
      "outputs": [
        {
          "internalType": "string",
          "name": "",
          "type": "string"
        }
      ],
      "stateMutability": "view",
      "type": "function"
    },
    {
      "inputs": [],
      "name": "symbol",
      "outputs": [
        {
          "internalType": "string",
          "name": "",
          "type": "string"
        }
      ],
      "stateMutability": "view",
      "type": "function"
    },
    {
      "inputs": [
        {
          "internalType": "uint256",
          "name": "wad",
          "type": "uint256"
        }
      ],
      "name": "deposit",
      "outputs": [],
      "stateMutability": "nonpayable",
      "type": "function"
    },
    {
      "inputs": [
        {
          "internalType": "uint256",
          "name": "wad",
          "type": "uint256"
        }
      ],
      "name": "withdraw",
      "outputs": [],
      "stateMutability": "nonpayable",
      "type": "function"
    },
    {
      "inputs": [
        {
          "internalType": "address",
          "name": "src",
          "type": "address"
        },
        {
          "internalType": "address",
          "name": "dst",
          "type": "address"
        },
        {
          "internalType": "uint256",
          "name": "wad",
          "type": "uint256"
        }
      ],
      "name": "transferFrom",
      "outputs": [
        {
          "internalType": "bool",
          "name": "",
          "type": "bool"
        }
      ],
      "stateMutability": "nonpayable",
      "type": "function"
    }
  ],
  "bytecode": "0x608060405234801561001057600080fd5b5060405161113d38038061113d83398101604081905261002f916100c6565b33600081815260016020526040808220829055818055600480546001600160a01b03191684179055517fce241d7ca1f669fee44b6fc00b8eba2df3bb514eed0f6f668f8f89096e81ed949190a26004805460ff60a01b191674010000000000000000000000000000000000000000179055600580546001600160a01b039092166001600160a01b03199092169190911790556100f6565b6000602082840312156100d857600080fd5b81516001600160a01b03811681146100ef57600080fd5b9392505050565b611038806101056000396000f3fe608060405234801561001057600080fd5b50600436106101165760003560e01c80638da5cb5b116100a2578063b6b55f2511610071578063b6b55f251461024d578063bf7e214f14610260578063cf30901214610273578063dd62ed3e14610287578063fc0c546a146102c057600080fd5b80638da5cb5b146101ff57806395d89b411461022a578063a69df4b514610232578063a9059cbb1461023a57600080fd5b806323b872dd116100e957806323b872dd146101835780632e1a7d4d14610196578063313ce567146101a957806370a08231146101c35780637a9e5e4b146101ec57600080fd5b806306fdde031461011b578063095ea7b31461013957806313af40351461015c57806318160ddd14610171575b600080fd5b6101236102d3565b6040516101309190610cd0565b60405180910390f35b61014c610147366004610d1b565b610369565b6040519015158152602001610130565b61016f61016a366004610d47565b6103d6565b005b6000545b604051908152602001610130565b61014c610191366004610d64565b61045b565b61016f6101a4366004610da5565b6104b5565b6101b16105e3565b60405160ff9091168152602001610130565b6101756101d1366004610d47565b6001600160a01b031660009081526001602052604090205490565b61016f6101fa366004610d47565b610656565b600454610212906001600160a01b031681565b6040516001600160a01b039091168152602001610130565b6101236106d2565b61016f610754565b61014c610248366004610d1b565b610795565b61016f61025b366004610da5565b6107a9565b600354610212906001600160a01b031681565b60045461014c90600160a01b900460ff1681565b610175610295366004610dbe565b6001600160a01b03918216600090815260026020908152604080832093909416825291909152205490565b600554610212906001600160a01b031681565b600554604080516306fdde0360e01b815290516060926001600160a01b0316916306fdde039160048083019260009291908290030181865afa15801561031d573d6000803e3d6000fd5b505050506040513d6000823e601f3d908101601f191682016040526103459190810190610e0d565b6040516020016103559190610eba565b604051602081830303815290604052905090565b3360008181526002602090815260408083206001600160a01b038716808552925280832085905551919290917f8c5be1e5ebec7d5bd14f71427d1e84f3dd0314c0f7b2291e5b200ac8c7c3b925906103c49086815260200190565b60405180910390a35060015b92915050565b6103ec336000356001600160e01b031916610921565b6104115760405162461bcd60e51b815260040161040890610eea565b60405180910390fd5b600480546001600160a01b0319166001600160a01b0383169081179091556040517fce241d7ca1f669fee44b6fc00b8eba2df3bb514eed0f6f668f8f89096e81ed9490600090a250565b600454600090600160a01b900460ff16156104a257610486336000356001600160e01b031916610921565b6104a25760405162461bcd60e51b815260040161040890610f18565b6104ad8484846109fd565b949350505050565b600454600160a01b900460ff16156104f9576104dd336000356001600160e01b031916610921565b6104f95760405162461bcd60e51b815260040161040890610f18565b336000908152600160205260409020546105139082610bf5565b33600090815260016020526040812091909155546105319082610bf5565b60005560055460405163a9059cbb60e01b8152336004820152602481018390526001600160a01b039091169063a9059cbb906044016020604051808303816000875af1158015610585573d6000803e3d6000fd5b505050506040513d601f19601f820116820180604052508101906105a99190610f4f565b5060405181815233907f7fcf532c15f0a6db0bd6d0e038bea71d30d808c7d98cb3bf7268a95bf5081b65906020015b60405180910390a250565b6005546040805163313ce56760e01b815290516000926001600160a01b03169163313ce5679160048083019260209291908290030181865afa15801561062d573d6000803e3d6000fd5b505050506040513d601f19601f820116820180604052508101906106519190610f71565b905090565b61066c336000356001600160e01b031916610921565b6106885760405162461bcd60e51b815260040161040890610eea565b600380546001600160a01b0319166001600160a01b0383169081179091556040517f1abebea81bfa2637f28358c371278fb15ede7ea8dd28d2e03b112ff6d936ada490600090a250565b600554604080516395d89b4160e01b815290516060926001600160a01b0316916395d89b419160048083019260009291908290030181865afa15801561071c573d6000803e3d6000fd5b505050506040513d6000823e601f3d908101601f191682016040526107449190810190610e0d565b6040516020016103559190610f94565b61076a336000356001600160e01b031916610921565b6107865760405162461bcd60e51b815260040161040890610eea565b6004805460ff60a01b19169055565b60006107a233848461045b565b9392505050565b600454600160a01b900460ff16156107ed576107d1336000356001600160e01b031916610921565b6107ed5760405162461bcd60e51b815260040161040890610f18565b336000908152600160205260409020546108079082610c4b565b33600090815260016020526040812091909155546108259082610c4b565b6000556005546040516323b872dd60e01b8152336004820152306024820152604481018390526001600160a01b03909116906323b872dd906064016020604051808303816000875af115801561087f573d6000803e3d6000fd5b505050506040513d601f19601f820116820180604052508101906108a39190610f4f565b6108ef5760405162461bcd60e51b815260206004820152601d60248201527f777261707065642d746f6b656e2d7472616e736665722d6661696c65640000006044820152606401610408565b60405181815233907fe1fffcc4923d04b559f4d29a8bfc6cda04eb5b0d3c460751c2402c5c5cc9109c906020016105d8565b60006001600160a01b03831630141561093c575060016103d0565b6004546001600160a01b038481169116141561095a575060016103d0565b6003546001600160a01b0316610972575060006103d0565b60035460405163b700961360e01b81526001600160a01b0385811660048301523060248301526001600160e01b0319851660448301529091169063b700961390606401602060405180830381865afa1580156109d2573d6000803e3d6000fd5b505050506040513d601f19601f820116820180604052508101906109f69190610f4f565b90506103d0565b60006001600160a01b0384163314610ad5576001600160a01b0384166000908152600260209081526040808320338452909152902054821115610a825760405162461bcd60e51b815260206004820152601e60248201527f64732d746f6b656e2d696e73756666696369656e742d617070726f76616c00006044820152606401610408565b6001600160a01b0384166000908152600260209081526040808320338452909152902054610ab09083610bf5565b6001600160a01b03851660009081526002602090815260408083203384529091529020555b6001600160a01b038416600090815260016020526040902054821115610b3d5760405162461bcd60e51b815260206004820152601d60248201527f64732d746f6b656e2d696e73756666696369656e742d62616c616e63650000006044820152606401610408565b6001600160a01b038416600090815260016020526040902054610b609083610bf5565b6001600160a01b038086166000908152600160205260408082209390935590851681522054610b8f9083610c4b565b6001600160a01b0380851660008181526001602052604090819020939093559151908616907fddf252ad1be2c89b69c2b068fc378daa952ba7f163c4a11628f55a4df523b3ef90610be39086815260200190565b60405180910390a35060019392505050565b600082610c028382610fd3565b91508111156103d05760405162461bcd60e51b815260206004820152601560248201527464732d6d6174682d7375622d756e646572666c6f7760581b6044820152606401610408565b600082610c588382610fea565b91508110156103d05760405162461bcd60e51b815260206004820152601460248201527364732d6d6174682d6164642d6f766572666c6f7760601b6044820152606401610408565b60005b83811015610cbb578181015183820152602001610ca3565b83811115610cca576000848401525b50505050565b6020815260008251806020840152610cef816040850160208701610ca0565b601f01601f19169190910160400192915050565b6001600160a01b0381168114610d1857600080fd5b50565b60008060408385031215610d2e57600080fd5b8235610d3981610d03565b946020939093013593505050565b600060208284031215610d5957600080fd5b81356107a281610d03565b600080600060608486031215610d7957600080fd5b8335610d8481610d03565b92506020840135610d9481610d03565b929592945050506040919091013590565b600060208284031215610db757600080fd5b5035919050565b60008060408385031215610dd157600080fd5b8235610ddc81610d03565b91506020830135610dec81610d03565b809150509250929050565b634e487b7160e01b600052604160045260246000fd5b600060208284031215610e1f57600080fd5b815167ffffffffffffffff80821115610e3757600080fd5b818401915084601f830112610e4b57600080fd5b815181811115610e5d57610e5d610df7565b604051601f8201601f19908116603f01168101908382118183101715610e8557610e85610df7565b81604052828152876020848701011115610e9e57600080fd5b610eaf836020830160208801610ca0565b979650505050505050565b6702bb930b83832b2160c51b815260008251610edd816008850160208701610ca0565b9190910160080192915050565b602080825260149082015273191ccb585d5d1a0b5d5b985d5d1a1bdc9a5e995960621b604082015260600190565b60208082526019908201527f636f6c6f6e792d746f6b656e2d756e617574686f726973656400000000000000604082015260600190565b600060208284031215610f6157600080fd5b815180151581146107a257600080fd5b600060208284031215610f8357600080fd5b815160ff811681146107a257600080fd5b605760f81b815260008251610fb0816001850160208701610ca0565b9190910160010192915050565b634e487b7160e01b600052601160045260246000fd5b600082821015610fe557610fe5610fbd565b500390565b60008219821115610ffd57610ffd610fbd565b50019056fea26469706673582212202d7f6985ede291b9e62f78ed85487e2e55784b30530b273c2e29d409eb730b9564736f6c634300080a0033",
  "immutableReferences": {},
  "source": "/*\n  This file is part of The Colony Network.\n\n  The Colony Network is free software: you can redistribute it and/or modify\n  it under the terms of the GNU General Public License as published by\n  the Free Software Foundation, either version 3 of the License, or\n  (at your option) any later version.\n\n  The Colony Network is distributed in the hope that it will be useful,\n  but WITHOUT ANY WARRANTY; without even the implied warranty of\n  MERCHANTABILITY or FITNESS FOR A PARTICULAR PURPOSE.  See the\n  GNU General Public License for more details.\n\n  You should have received a copy of the GNU General Public License\n  along with The Colony Network. If not, see <http://www.gnu.org/licenses/>.\n*/\n\npragma solidity 0.8.10;\n\nimport \"../lib/dappsys/base.sol\";\nimport \"./Token.sol\";\nimport \"./Lockable.sol\";\n\ncontract WrappedToken is DSTokenBase(0), Lockable {\n  event  Deposit(address indexed dst, uint256 wad);\n  event  Withdrawal(address indexed src, uint256 wad);\n\n  address public token;\n\n  constructor(address _token) public {\n    token = _token;\n  }\n\n  function decimals() public view returns (uint8) {\n    return Token(token).decimals();\n  }\n\n  function name() public view returns (string memory) {\n    return string(abi.encodePacked(\"Wrapped \", Token(token).name()));\n  }\n\n  function symbol() public view returns (string memory) {\n    return string(abi.encodePacked(\"W\", Token(token).symbol()));\n  }\n\n  function deposit(uint256 wad) public unlocked {\n    _balances[msg.sender] = add(_balances[msg.sender], wad);\n    _supply = add(_supply, wad);\n\n    require(ERC20(token).transferFrom(msg.sender, address(this), wad), \"wrapped-token-transfer-failed\");\n\n    emit Deposit(msg.sender, wad);\n  }\n\n  function withdraw(uint256 wad) public unlocked {\n    _balances[msg.sender] = sub(_balances[msg.sender], wad);\n    _supply = sub(_supply, wad);\n\n    // This can't fail, since there's no way to underflow\n    ERC20(token).transfer(msg.sender, wad);\n\n    emit Withdrawal(msg.sender, wad);\n  }\n\n  // Note that transfer() calls this internally, so it's also lockable\n  function transferFrom(address src, address dst, uint wad)\n    public\n    override\n    unlocked\n    returns (bool)\n  {\n    return super.transferFrom(src, dst, wad);\n  }\n}\n",
  "sourcePath": "/home/rdig/development/colony/colonyDapp/src/lib/colonyNetwork/lib/colonyToken/contracts/WrappedToken.sol",
  "compiler": {
    "name": "solc",
    "version": "0.8.10+commit.fc410830.Linux.g++"
  },
  "schemaVersion": "3.4.3",
  "updatedAt": "2021-12-16T15:18:07.250Z",
  "devdoc": {
    "kind": "dev",
    "methods": {},
    "version": 1
  },
  "userdoc": {
    "kind": "user",
    "methods": {},
    "version": 1
  }
}