{
  "contractName": "Colony",
  "abi": [
    {
      "constant": false,
      "inputs": [
        {
          "name": "owner_",
          "type": "address"
        }
      ],
      "name": "setOwner",
      "outputs": [],
      "payable": false,
      "stateMutability": "nonpayable",
      "type": "function"
    },
    {
      "constant": true,
      "inputs": [
        {
          "name": "",
          "type": "uint256"
        }
      ],
      "name": "taskWorkRatings",
      "outputs": [
        {
          "name": "count",
          "type": "uint256"
        },
        {
          "name": "timestamp",
          "type": "uint256"
        }
      ],
      "payable": false,
      "stateMutability": "view",
      "type": "function"
    },
    {
      "constant": true,
      "inputs": [
        {
          "name": "",
          "type": "uint256"
        }
      ],
      "name": "domains",
      "outputs": [
        {
          "name": "skillId",
          "type": "uint256"
        },
        {
          "name": "fundingPotId",
          "type": "uint256"
        }
      ],
      "payable": false,
      "stateMutability": "view",
      "type": "function"
    },
    {
      "constant": false,
      "inputs": [
        {
          "name": "authority_",
          "type": "address"
        }
      ],
      "name": "setAuthority",
      "outputs": [],
      "payable": false,
      "stateMutability": "nonpayable",
      "type": "function"
    },
    {
      "constant": true,
      "inputs": [],
      "name": "owner",
      "outputs": [
        {
          "name": "",
          "type": "address"
        }
      ],
      "payable": false,
      "stateMutability": "view",
      "type": "function"
    },
    {
      "constant": true,
      "inputs": [],
      "name": "authority",
      "outputs": [
        {
          "name": "",
          "type": "address"
        }
      ],
      "payable": false,
      "stateMutability": "view",
      "type": "function"
    },
    {
      "anonymous": false,
      "inputs": [
        {
          "indexed": false,
          "name": "resolver",
          "type": "address"
        }
      ],
      "name": "ColonyNetworkInitialised",
      "type": "event"
    },
    {
      "anonymous": false,
      "inputs": [
        {
          "indexed": false,
          "name": "tokenLocking",
          "type": "address"
        }
      ],
      "name": "TokenLockingAddressSet",
      "type": "event"
    },
    {
      "anonymous": false,
      "inputs": [
        {
          "indexed": false,
          "name": "miningCycleResolver",
          "type": "address"
        }
      ],
      "name": "MiningCycleResolverSet",
      "type": "event"
    },
    {
      "anonymous": false,
      "inputs": [
        {
          "indexed": false,
          "name": "feeInverse",
          "type": "uint256"
        }
      ],
      "name": "NetworkFeeInverseSet",
      "type": "event"
    },
    {
      "anonymous": false,
      "inputs": [
        {
          "indexed": false,
          "name": "version",
          "type": "uint256"
        },
        {
          "indexed": false,
          "name": "resolver",
          "type": "address"
        }
      ],
      "name": "ColonyVersionAdded",
      "type": "event"
    },
    {
      "anonymous": false,
      "inputs": [
        {
          "indexed": false,
          "name": "metaColony",
          "type": "address"
        },
        {
          "indexed": false,
          "name": "token",
          "type": "address"
        },
        {
          "indexed": false,
          "name": "rootSkillId",
          "type": "uint256"
        }
      ],
      "name": "MetaColonyCreated",
      "type": "event"
    },
    {
      "anonymous": false,
      "inputs": [
        {
          "indexed": true,
          "name": "colonyId",
          "type": "uint256"
        },
        {
          "indexed": true,
          "name": "colonyAddress",
          "type": "address"
        },
        {
          "indexed": false,
          "name": "token",
          "type": "address"
        }
      ],
      "name": "ColonyAdded",
      "type": "event"
    },
    {
      "anonymous": false,
      "inputs": [
        {
          "indexed": false,
          "name": "skillId",
          "type": "uint256"
        },
        {
          "indexed": false,
          "name": "parentSkillId",
          "type": "uint256"
        }
      ],
      "name": "SkillAdded",
      "type": "event"
    },
    {
      "anonymous": false,
      "inputs": [
        {
          "indexed": false,
          "name": "auction",
          "type": "address"
        },
        {
          "indexed": false,
          "name": "token",
          "type": "address"
        },
        {
          "indexed": false,
          "name": "quantity",
          "type": "uint256"
        }
      ],
      "name": "AuctionCreated",
      "type": "event"
    },
    {
      "anonymous": false,
      "inputs": [
        {
          "indexed": false,
          "name": "inactiveReputationMiningCycle",
          "type": "address"
        }
      ],
      "name": "ReputationMiningInitialised",
      "type": "event"
    },
    {
      "anonymous": false,
      "inputs": [
        {
          "indexed": false,
          "name": "hash",
          "type": "bytes32"
        },
        {
          "indexed": false,
          "name": "nNodes",
          "type": "uint256"
        }
      ],
      "name": "ReputationMiningCycleComplete",
      "type": "event"
    },
    {
      "anonymous": false,
      "inputs": [
        {
          "indexed": false,
          "name": "newHash",
          "type": "bytes32"
        },
        {
          "indexed": false,
          "name": "newNNodes",
          "type": "uint256"
        },
        {
          "indexed": false,
          "name": "stakers",
          "type": "address[]"
        },
        {
          "indexed": false,
          "name": "reward",
          "type": "uint256"
        }
      ],
      "name": "ReputationRootHashSet",
      "type": "event"
    },
    {
      "anonymous": false,
      "inputs": [
        {
          "indexed": true,
          "name": "user",
          "type": "address"
        },
        {
          "indexed": false,
          "name": "label",
          "type": "bytes32"
        }
      ],
      "name": "UserLabelRegistered",
      "type": "event"
    },
    {
      "anonymous": false,
      "inputs": [
        {
          "indexed": true,
          "name": "colony",
          "type": "address"
        },
        {
          "indexed": false,
          "name": "label",
          "type": "bytes32"
        }
      ],
      "name": "ColonyLabelRegistered",
      "type": "event"
    },
    {
      "anonymous": false,
      "inputs": [
        {
          "indexed": false,
          "name": "colonyNetwork",
          "type": "address"
        },
        {
          "indexed": false,
          "name": "token",
          "type": "address"
        }
      ],
      "name": "ColonyInitialised",
      "type": "event"
    },
    {
      "anonymous": false,
      "inputs": [
        {
          "indexed": false,
          "name": "users",
          "type": "address[]"
        },
        {
          "indexed": false,
          "name": "amounts",
          "type": "int256[]"
        }
      ],
      "name": "ColonyBootstrapped",
      "type": "event"
    },
    {
      "anonymous": false,
      "inputs": [
        {
          "indexed": false,
          "name": "oldVersion",
          "type": "uint256"
        },
        {
          "indexed": false,
          "name": "newVersion",
          "type": "uint256"
        }
      ],
      "name": "ColonyUpgraded",
      "type": "event"
    },
    {
      "anonymous": false,
      "inputs": [
        {
          "indexed": true,
          "name": "user",
          "type": "address"
        },
        {
          "indexed": true,
          "name": "domainId",
          "type": "uint256"
        },
        {
          "indexed": true,
          "name": "role",
          "type": "uint8"
        },
        {
          "indexed": false,
          "name": "setTo",
          "type": "bool"
        }
      ],
      "name": "ColonyRoleSet",
      "type": "event"
    },
    {
      "anonymous": false,
      "inputs": [
        {
          "indexed": true,
          "name": "fromPot",
          "type": "uint256"
        },
        {
          "indexed": true,
          "name": "toPot",
          "type": "uint256"
        },
        {
          "indexed": false,
          "name": "amount",
          "type": "uint256"
        },
        {
          "indexed": false,
          "name": "token",
          "type": "address"
        }
      ],
      "name": "ColonyFundsMovedBetweenFundingPots",
      "type": "event"
    },
    {
      "anonymous": false,
      "inputs": [
        {
          "indexed": false,
          "name": "token",
          "type": "address"
        },
        {
          "indexed": false,
          "name": "fee",
          "type": "uint256"
        },
        {
          "indexed": false,
          "name": "payoutRemainder",
          "type": "uint256"
        }
      ],
      "name": "ColonyFundsClaimed",
      "type": "event"
    },
    {
      "anonymous": false,
      "inputs": [
        {
          "indexed": false,
          "name": "rewardPayoutId",
          "type": "uint256"
        }
      ],
      "name": "RewardPayoutCycleStarted",
      "type": "event"
    },
    {
      "anonymous": false,
      "inputs": [
        {
          "indexed": false,
          "name": "rewardPayoutId",
          "type": "uint256"
        }
      ],
      "name": "RewardPayoutCycleEnded",
      "type": "event"
    },
    {
      "anonymous": false,
      "inputs": [
        {
          "indexed": false,
          "name": "rewardPayoutId",
          "type": "uint256"
        },
        {
          "indexed": false,
          "name": "user",
          "type": "address"
        },
        {
          "indexed": false,
          "name": "fee",
          "type": "uint256"
        },
        {
          "indexed": false,
          "name": "rewardRemainder",
          "type": "uint256"
        }
      ],
      "name": "RewardPayoutClaimed",
      "type": "event"
    },
    {
      "anonymous": false,
      "inputs": [
        {
          "indexed": false,
          "name": "rewardInverse",
          "type": "uint256"
        }
      ],
      "name": "ColonyRewardInverseSet",
      "type": "event"
    },
    {
      "anonymous": false,
      "inputs": [
        {
          "indexed": false,
          "name": "expenditureId",
          "type": "uint256"
        }
      ],
      "name": "ExpenditureAdded",
      "type": "event"
    },
    {
      "anonymous": false,
      "inputs": [
        {
          "indexed": true,
          "name": "expenditureId",
          "type": "uint256"
        },
        {
          "indexed": true,
          "name": "owner",
          "type": "address"
        }
      ],
      "name": "ExpenditureTransferred",
      "type": "event"
    },
    {
      "anonymous": false,
      "inputs": [
        {
          "indexed": true,
          "name": "expenditureId",
          "type": "uint256"
        }
      ],
      "name": "ExpenditureCancelled",
      "type": "event"
    },
    {
      "anonymous": false,
      "inputs": [
        {
          "indexed": true,
          "name": "expenditureId",
          "type": "uint256"
        }
      ],
      "name": "ExpenditureFinalized",
      "type": "event"
    },
    {
      "anonymous": false,
      "inputs": [
        {
          "indexed": true,
          "name": "expenditureId",
          "type": "uint256"
        },
        {
          "indexed": true,
          "name": "slot",
          "type": "uint256"
        },
        {
          "indexed": true,
          "name": "recipient",
          "type": "address"
        }
      ],
      "name": "ExpenditureRecipientSet",
      "type": "event"
    },
    {
      "anonymous": false,
      "inputs": [
        {
          "indexed": true,
          "name": "expenditureId",
          "type": "uint256"
        },
        {
          "indexed": true,
          "name": "slot",
          "type": "uint256"
        },
        {
          "indexed": true,
          "name": "skillId",
          "type": "uint256"
        }
      ],
      "name": "ExpenditureSkillSet",
      "type": "event"
    },
    {
      "anonymous": false,
      "inputs": [
        {
          "indexed": true,
          "name": "expenditureId",
          "type": "uint256"
        },
        {
          "indexed": true,
          "name": "slot",
          "type": "uint256"
        },
        {
          "indexed": true,
          "name": "token",
          "type": "address"
        },
        {
          "indexed": false,
          "name": "amount",
          "type": "uint256"
        }
      ],
      "name": "ExpenditurePayoutSet",
      "type": "event"
    },
    {
      "anonymous": false,
      "inputs": [
        {
          "indexed": false,
          "name": "paymentId",
          "type": "uint256"
        }
      ],
      "name": "PaymentAdded",
      "type": "event"
    },
    {
      "anonymous": false,
      "inputs": [
        {
          "indexed": false,
          "name": "taskId",
          "type": "uint256"
        }
      ],
      "name": "TaskAdded",
      "type": "event"
    },
    {
      "anonymous": false,
      "inputs": [
        {
          "indexed": true,
          "name": "taskId",
          "type": "uint256"
        },
        {
          "indexed": false,
          "name": "specificationHash",
          "type": "bytes32"
        }
      ],
      "name": "TaskBriefSet",
      "type": "event"
    },
    {
      "anonymous": false,
      "inputs": [
        {
          "indexed": true,
          "name": "taskId",
          "type": "uint256"
        },
        {
          "indexed": false,
          "name": "dueDate",
          "type": "uint256"
        }
      ],
      "name": "TaskDueDateSet",
      "type": "event"
    },
    {
      "anonymous": false,
      "inputs": [
        {
          "indexed": true,
          "name": "taskId",
          "type": "uint256"
        },
        {
          "indexed": true,
          "name": "skillId",
          "type": "uint256"
        }
      ],
      "name": "TaskSkillSet",
      "type": "event"
    },
    {
      "anonymous": false,
      "inputs": [
        {
          "indexed": true,
          "name": "taskId",
          "type": "uint256"
        },
        {
          "indexed": false,
          "name": "role",
          "type": "uint8"
        },
        {
          "indexed": true,
          "name": "user",
          "type": "address"
        }
      ],
      "name": "TaskRoleUserSet",
      "type": "event"
    },
    {
      "anonymous": false,
      "inputs": [
        {
          "indexed": true,
          "name": "taskId",
          "type": "uint256"
        },
        {
          "indexed": false,
          "name": "role",
          "type": "uint8"
        },
        {
          "indexed": false,
          "name": "token",
          "type": "address"
        },
        {
          "indexed": false,
          "name": "amount",
          "type": "uint256"
        }
      ],
      "name": "TaskPayoutSet",
      "type": "event"
    },
    {
      "anonymous": false,
      "inputs": [
        {
          "indexed": true,
          "name": "taskId",
          "type": "uint256"
        },
        {
          "indexed": false,
          "name": "deliverableHash",
          "type": "bytes32"
        }
      ],
      "name": "TaskDeliverableSubmitted",
      "type": "event"
    },
    {
      "anonymous": false,
      "inputs": [
        {
          "indexed": true,
          "name": "taskId",
          "type": "uint256"
        }
      ],
      "name": "TaskCompleted",
      "type": "event"
    },
    {
      "anonymous": false,
      "inputs": [
        {
          "indexed": true,
          "name": "taskId",
          "type": "uint256"
        },
        {
          "indexed": false,
          "name": "role",
          "type": "uint8"
        },
        {
          "indexed": false,
          "name": "rating",
          "type": "uint8"
        }
      ],
      "name": "TaskWorkRatingRevealed",
      "type": "event"
    },
    {
      "anonymous": false,
      "inputs": [
        {
          "indexed": true,
          "name": "taskId",
          "type": "uint256"
        }
      ],
      "name": "TaskFinalized",
      "type": "event"
    },
    {
      "anonymous": false,
      "inputs": [
        {
          "indexed": true,
          "name": "fundingPotId",
          "type": "uint256"
        },
        {
          "indexed": false,
          "name": "token",
          "type": "address"
        },
        {
          "indexed": false,
          "name": "amount",
          "type": "uint256"
        }
      ],
      "name": "PayoutClaimed",
      "type": "event"
    },
    {
      "anonymous": false,
      "inputs": [
        {
          "indexed": true,
          "name": "taskId",
          "type": "uint256"
        }
      ],
      "name": "TaskCanceled",
      "type": "event"
    },
    {
      "anonymous": false,
      "inputs": [
        {
          "indexed": false,
          "name": "domainId",
          "type": "uint256"
        }
      ],
      "name": "DomainAdded",
      "type": "event"
    },
    {
      "anonymous": false,
      "inputs": [
        {
          "indexed": false,
          "name": "fundingPotId",
          "type": "uint256"
        }
      ],
      "name": "FundingPotAdded",
      "type": "event"
    },
    {
      "anonymous": false,
      "inputs": [
        {
          "indexed": true,
          "name": "authority",
          "type": "address"
        }
      ],
      "name": "LogSetAuthority",
      "type": "event"
    },
    {
      "anonymous": false,
      "inputs": [
        {
          "indexed": true,
          "name": "owner",
          "type": "address"
        }
      ],
      "name": "LogSetOwner",
      "type": "event"
    },
    {
      "constant": true,
      "inputs": [],
      "name": "version",
      "outputs": [
        {
          "name": "colonyVersion",
          "type": "uint256"
        }
      ],
      "payable": false,
      "stateMutability": "pure",
      "type": "function"
    },
    {
      "constant": false,
      "inputs": [
        {
          "name": "_user",
          "type": "address"
        },
        {
          "name": "_setTo",
          "type": "bool"
        }
      ],
      "name": "setRootRole",
      "outputs": [],
      "payable": false,
      "stateMutability": "nonpayable",
      "type": "function"
    },
    {
      "constant": false,
      "inputs": [
        {
          "name": "_permissionDomainId",
          "type": "uint256"
        },
        {
          "name": "_childSkillIndex",
          "type": "uint256"
        },
        {
          "name": "_user",
          "type": "address"
        },
        {
          "name": "_domainId",
          "type": "uint256"
        },
        {
          "name": "_setTo",
          "type": "bool"
        }
      ],
      "name": "setArbitrationRole",
      "outputs": [],
      "payable": false,
      "stateMutability": "nonpayable",
      "type": "function"
    },
    {
      "constant": false,
      "inputs": [
        {
          "name": "_permissionDomainId",
          "type": "uint256"
        },
        {
          "name": "_childSkillIndex",
          "type": "uint256"
        },
        {
          "name": "_user",
          "type": "address"
        },
        {
          "name": "_domainId",
          "type": "uint256"
        },
        {
          "name": "_setTo",
          "type": "bool"
        }
      ],
      "name": "setArchitectureRole",
      "outputs": [],
      "payable": false,
      "stateMutability": "nonpayable",
      "type": "function"
    },
    {
      "constant": false,
      "inputs": [
        {
          "name": "_permissionDomainId",
          "type": "uint256"
        },
        {
          "name": "_childSkillIndex",
          "type": "uint256"
        },
        {
          "name": "_user",
          "type": "address"
        },
        {
          "name": "_domainId",
          "type": "uint256"
        },
        {
          "name": "_setTo",
          "type": "bool"
        }
      ],
      "name": "setFundingRole",
      "outputs": [],
      "payable": false,
      "stateMutability": "nonpayable",
      "type": "function"
    },
    {
      "constant": false,
      "inputs": [
        {
          "name": "_permissionDomainId",
          "type": "uint256"
        },
        {
          "name": "_childSkillIndex",
          "type": "uint256"
        },
        {
          "name": "_user",
          "type": "address"
        },
        {
          "name": "_domainId",
          "type": "uint256"
        },
        {
          "name": "_setTo",
          "type": "bool"
        }
      ],
      "name": "setAdministrationRole",
      "outputs": [],
      "payable": false,
      "stateMutability": "nonpayable",
      "type": "function"
    },
    {
      "constant": true,
      "inputs": [
        {
          "name": "_user",
          "type": "address"
        },
        {
          "name": "_domainId",
          "type": "uint256"
        },
        {
          "name": "_role",
          "type": "uint8"
        }
      ],
      "name": "hasUserRole",
      "outputs": [
        {
          "name": "",
          "type": "bool"
        }
      ],
      "payable": false,
      "stateMutability": "view",
      "type": "function"
    },
    {
      "constant": true,
      "inputs": [
        {
          "name": "_user",
          "type": "address"
        },
        {
          "name": "_domainId",
          "type": "uint256"
        },
        {
          "name": "_role",
          "type": "uint8"
        },
        {
          "name": "_childSkillIndex",
          "type": "uint256"
        },
        {
          "name": "_childDomainId",
          "type": "uint256"
        }
      ],
      "name": "hasInheritedUserRole",
      "outputs": [
        {
          "name": "",
          "type": "bool"
        }
      ],
      "payable": false,
      "stateMutability": "view",
      "type": "function"
    },
    {
      "constant": true,
      "inputs": [
        {
          "name": "who",
          "type": "address"
        },
        {
          "name": "where",
          "type": "uint256"
        }
      ],
      "name": "getUserRoles",
      "outputs": [
        {
          "name": "",
          "type": "bytes32"
        }
      ],
      "payable": false,
      "stateMutability": "view",
      "type": "function"
    },
    {
      "constant": true,
      "inputs": [],
      "name": "getColonyNetwork",
      "outputs": [
        {
          "name": "",
          "type": "address"
        }
      ],
      "payable": false,
      "stateMutability": "view",
      "type": "function"
    },
    {
      "constant": true,
      "inputs": [],
      "name": "getToken",
      "outputs": [
        {
          "name": "",
          "type": "address"
        }
      ],
      "payable": false,
      "stateMutability": "view",
      "type": "function"
    },
    {
      "constant": false,
      "inputs": [
        {
          "name": "_colonyNetworkAddress",
          "type": "address"
        },
        {
          "name": "_token",
          "type": "address"
        }
      ],
      "name": "initialiseColony",
      "outputs": [],
      "payable": false,
      "stateMutability": "nonpayable",
      "type": "function"
    },
    {
      "constant": false,
      "inputs": [
        {
          "name": "_users",
          "type": "address[]"
        },
        {
          "name": "_amounts",
          "type": "int256[]"
        }
      ],
      "name": "bootstrapColony",
      "outputs": [],
      "payable": false,
      "stateMutability": "nonpayable",
      "type": "function"
    },
    {
      "constant": false,
      "inputs": [
        {
          "name": "_wad",
          "type": "uint256"
        }
      ],
      "name": "mintTokens",
      "outputs": [],
      "payable": false,
      "stateMutability": "nonpayable",
      "type": "function"
    },
    {
      "constant": false,
      "inputs": [
        {
          "name": "_wad",
          "type": "uint256"
        }
      ],
      "name": "mintTokensForColonyNetwork",
      "outputs": [],
      "payable": false,
      "stateMutability": "nonpayable",
      "type": "function"
    },
    {
      "constant": false,
      "inputs": [
        {
          "name": "colonyName",
          "type": "string"
        },
        {
          "name": "orbitdb",
          "type": "string"
        }
      ],
      "name": "registerColonyLabel",
      "outputs": [],
      "payable": false,
      "stateMutability": "nonpayable",
      "type": "function"
    },
    {
      "constant": false,
      "inputs": [
        {
          "name": "orbitdb",
          "type": "string"
        }
      ],
      "name": "updateColonyOrbitDB",
      "outputs": [],
      "payable": false,
      "stateMutability": "nonpayable",
      "type": "function"
    },
    {
      "constant": false,
      "inputs": [],
      "name": "addGlobalSkill",
      "outputs": [
        {
          "name": "",
          "type": "uint256"
        }
      ],
      "payable": false,
      "stateMutability": "nonpayable",
      "type": "function"
    },
    {
      "constant": false,
      "inputs": [
        {
          "name": "_skillId",
          "type": "uint256"
        }
      ],
      "name": "deprecateGlobalSkill",
      "outputs": [],
      "payable": false,
      "stateMutability": "nonpayable",
      "type": "function"
    },
    {
      "constant": false,
      "inputs": [
        {
          "name": "_feeInverse",
          "type": "uint256"
        }
      ],
      "name": "setNetworkFeeInverse",
      "outputs": [],
      "payable": false,
      "stateMutability": "nonpayable",
      "type": "function"
    },
    {
      "constant": false,
      "inputs": [
        {
          "name": "_version",
          "type": "uint256"
        },
        {
          "name": "_resolver",
          "type": "address"
        }
      ],
      "name": "addNetworkColonyVersion",
      "outputs": [],
      "payable": false,
      "stateMutability": "nonpayable",
      "type": "function"
    },
    {
      "constant": false,
      "inputs": [
        {
          "name": "_permissionDomainId",
          "type": "uint256"
        },
        {
          "name": "_childSkillIndex",
          "type": "uint256"
        },
        {
          "name": "_parentDomainId",
          "type": "uint256"
        }
      ],
      "name": "addDomain",
      "outputs": [],
      "payable": false,
      "stateMutability": "nonpayable",
      "type": "function"
    },
    {
      "constant": true,
      "inputs": [
        {
          "name": "_id",
          "type": "uint256"
        }
      ],
      "name": "getDomain",
      "outputs": [
        {
          "components": [
            {
              "name": "skillId",
              "type": "uint256"
            },
            {
              "name": "fundingPotId",
              "type": "uint256"
            }
          ],
          "name": "domain",
          "type": "tuple"
        }
      ],
      "payable": false,
      "stateMutability": "view",
      "type": "function"
    },
    {
      "constant": true,
      "inputs": [],
      "name": "getDomainCount",
      "outputs": [
        {
          "name": "",
          "type": "uint256"
        }
      ],
      "payable": false,
      "stateMutability": "view",
      "type": "function"
    },
    {
      "constant": true,
      "inputs": [
        {
          "name": "key",
          "type": "bytes"
        },
        {
          "name": "value",
          "type": "bytes"
        },
        {
          "name": "branchMask",
          "type": "uint256"
        },
        {
          "name": "siblings",
          "type": "bytes32[]"
        }
      ],
      "name": "verifyReputationProof",
      "outputs": [
        {
          "name": "",
          "type": "bool"
        }
      ],
      "payable": false,
      "stateMutability": "view",
      "type": "function"
    },
    {
      "constant": false,
      "inputs": [
        {
          "name": "_newVersion",
          "type": "uint256"
        }
      ],
      "name": "upgrade",
      "outputs": [],
      "payable": false,
      "stateMutability": "nonpayable",
      "type": "function"
    },
    {
      "constant": false,
      "inputs": [],
      "name": "finishUpgrade",
      "outputs": [],
      "payable": false,
      "stateMutability": "nonpayable",
      "type": "function"
    },
    {
      "constant": true,
      "inputs": [
        {
          "name": "_slot",
          "type": "uint256"
        }
      ],
      "name": "checkNotAdditionalProtectedVariable",
      "outputs": [],
      "payable": false,
      "stateMutability": "view",
      "type": "function"
    }
  ],
  "bytecode": "0x60806040819052600180546001600160a01b03191633908117909155907fce241d7ca1f669fee44b6fc00b8eba2df3bb514eed0f6f668f8f89096e81ed9490600090a2614c4c806100516000396000f3fe608060405234801561001057600080fd5b50600436106102065760003560e01c806366cf8fab1161011a57806397304ced116100ad578063e178f31a1161007c578063e178f31a1461043f578063e2db777b14610452578063e723d63114610465578063e9c75e4714610478578063fd69753d1461048b57610206565b806397304ced146103f1578063ab2f7ae214610404578063b7e9b3f214610417578063bf7e214f1461042a57610206565b80638831fa34116100e95780638831fa34146103b05780638da5cb5b146103c35780639552a1e5146103cb57806396d933e0146103de57610206565b806366cf8fab1461036457806379d95b92146103775780637a9e5e4b1461038a578063822514f91461039d57610206565b80633354f1381161019d5780634e5e83951161016c5780634e5e83951461031b57806354fd4d5014610323578063595b03f01461032b57806363331de31461033e5780636380cf241461035157610206565b80633354f138146102cd578063340df28f146102ed5780633424d1d7146102f557806345977d031461030857610206565b80631f7e3ebe116101d95780631f7e3ebe1461027157806321df0da7146102845780632714a7fd1461029957806328672cea146102ba57610206565b806313af40351461020b57806313e91f08146102205780631a7a98e21461023e5780631e7b9cce1461025e575b600080fd5b61021e610219366004613291565b610493565b005b610228610523565b604051610235919061489f565b60405180910390f35b61025161024c36600461361e565b61052a565b6040516102359190614a6f565b61021e61026c36600461361e565b61055c565b61021e61027f3660046136c3565b610769565b61028c610922565b60405161023591906146fa565b6102ac6102a736600461361e565b610931565b604051610235929190614a8b565b61021e6102c836600461358a565b61094a565b6102e06102db3660046133b4565b610a16565b6040516102359190614891565b61021e610a4a565b61021e61030336600461361e565b611077565b61021e61031636600461361e565b611146565b61028c611349565b610228611358565b610228610339366004613337565b61135d565b61021e61034c36600461365b565b6113ec565b61021e61035f36600461361e565b6115d5565b6102ac61037236600461361e565b61166e565b61021e6103853660046132cd565b611687565b61021e61039836600461356c565b6118f8565b61021e6103ab36600461363c565b61197b565b61021e6103be36600461361e565b611a4d565b61028c611a9d565b61021e6103d936600461365b565b611aac565b6102e06103ec3660046134c4565b611c44565b61021e6103ff36600461361e565b611d6c565b6102e0610412366004613367565b611e05565b61021e61042536600461365b565b611e9d565b610432612035565b60405161023591906148ad565b61021e61044d366004613307565b612044565b61021e6104603660046135bf565b612160565b61021e610473366004613429565b6121f9565b61021e61048636600461365b565b6125e9565b610228612781565b6104ab3360016000356001600160e01b031916612876565b6104d357604051600160e51b62461bcd0281526004016104ca9061491f565b60405180910390fd5b600180546001600160a01b0319166001600160a01b0383811691909117918290556040519116907fce241d7ca1f669fee44b6fc00b8eba2df3bb514eed0f6f668f8f89096e81ed9490600090a250565b600b545b90565b610532612f5c565b50600090815260146020908152604091829020825180840190935280548352600101549082015290565b600254600160a01b900460ff161561058957604051600160e51b62461bcd0281526004016104ca9061498f565b6006546001600160a01b031633146105b657604051600160e51b62461bcd0281526004016104ca90614a3f565b600660009054906101000a90046001600160a01b03166001600160a01b031663731bc22f6040518163ffffffff1660e01b815260040160206040518083038186803b15801561060457600080fd5b505afa158015610618573d6000803e3d6000fd5b505050506040513d601f19601f8201168201806040525061063c91908101906132af565b6001600160a01b0316306001600160a01b03161461066f57604051600160e51b62461bcd0281526004016104ca9061499f565b600754604051600160e31b63140e25ad0281526001600160a01b039091169063a0712d68906106a290849060040161489f565b600060405180830381600087803b1580156106bc57600080fd5b505af11580156106d0573d6000803e3d6000fd5b5050600754600654604051600160e01b63a9059cbb0281526001600160a01b03928316945063a9059cbb935061070e9290911690859060040161474b565b602060405180830381600087803b15801561072857600080fd5b505af115801561073c573d6000803e3d6000fd5b505050506040513d601f19601f820116820180604052506107609190810190613488565b61076657fe5b50565b600254600160a01b900460ff161561079657604051600160e51b62461bcd0281526004016104ca9061498f565b8282826107a2836128c9565b6107c157604051600160e51b62461bcd0281526004016104ca90614a0f565b6107ca816128c9565b6107e957604051600160e51b62461bcd0281526004016104ca90614a2f565b61080033846000356001600160e01b031916612876565b61081f57604051600160e51b62461bcd0281526004016104ca9061491f565b808314610850576108318383836128de565b61085057604051600160e51b62461bcd0281526004016104ca90614a1f565b8360011461087357604051600160e51b62461bcd0281526004016104ca906149bf565b600084815260146020526040808220546006549151600160e21b630589067302815290926001600160a01b039092169190829063162419cc906108ba90869060040161489f565b602060405180830381600087803b1580156108d457600080fd5b505af11580156108e8573d6000803e3d6000fd5b505050506040513d601f19601f8201168201806040525061090c91908101906134a6565b90506109178161298f565b505050505050505050565b6007546001600160a01b031690565b6013602052600090815260409020805460019091015482565b600254600160a01b900460ff161561097757604051600160e51b62461bcd0281526004016104ca9061498f565b61098f3360016000356001600160e01b031916612876565b6109ae57604051600160e51b62461bcd0281526004016104ca9061491f565b600654604051600160e11b63143396750281526001600160a01b03909116906328672cea906109e19084906004016148c9565b600060405180830381600087803b1580156109fb57600080fd5b505af1158015610a0f573d6000803e3d6000fd5b5050505050565b6000610a23868686611e05565b8015610a3e575081851480610a3e5750610a3e8584846128de565b90505b95945050505050565b600080546040516001600160a01b0390911691600c91610a69906146c3565b60405180910390206001600160e01b0319166001600160e01b03191681526020019081526020016000206000610a9f9190612f76565b6001600160a01b038116637d40583d600630604051610abd906146ef565b60405190819003812063ffffffff851660e01b8252610ae3939291600090600401614a99565b600060405180830381600087803b158015610afd57600080fd5b505af1158015610b11573d6000803e3d6000fd5b5050506001600160a01b0382169050637d40583d600630604051610b349061468c565b60405190819003812063ffffffff851660e01b8252610b5a939291600190600401614a99565b600060405180830381600087803b158015610b7457600080fd5b505af1158015610b88573d6000803e3d6000fd5b5050506001600160a01b0382169050637d40583d600230604051610bab90614608565b60405190819003812063ffffffff851660e01b8252610bd1939291600190600401614a99565b600060405180830381600087803b158015610beb57600080fd5b505af1158015610bff573d6000803e3d6000fd5b5050506001600160a01b0382169050637d40583d600230604051610c229061466b565b60405190819003812063ffffffff851660e01b8252610c48939291600190600401614a99565b600060405180830381600087803b158015610c6257600080fd5b505af1158015610c76573d6000803e3d6000fd5b5050506001600160a01b0382169050637d40583d600230604051610c9990614629565b60405190819003812063ffffffff851660e01b8252610cbf939291600190600401614a99565b600060405180830381600087803b158015610cd957600080fd5b505af1158015610ced573d6000803e3d6000fd5b5050506001600160a01b0382169050637d40583d600330604051610d10906146e4565b60405190819003812063ffffffff851660e01b8252610d36939291600190600401614a99565b600060405180830381600087803b158015610d5057600080fd5b505af1158015610d64573d6000803e3d6000fd5b5050506001600160a01b0382169050637d40583d600330604051610d8790614676565b60405190819003812063ffffffff851660e01b8252610dad939291600190600401614a99565b600060405180830381600087803b158015610dc757600080fd5b505af1158015610ddb573d6000803e3d6000fd5b5050506001600160a01b0382169050637d40583d600330604051610dfe90614634565b60405190819003812063ffffffff851660e01b8252610e24939291600190600401614a99565b600060405180830381600087803b158015610e3e57600080fd5b505af1158015610e52573d6000803e3d6000fd5b5050506001600160a01b0382169050637d40583d600330604051610e75906146a2565b60405190819003812063ffffffff851660e01b8252610e9b939291600190600401614a99565b600060405180830381600087803b158015610eb557600080fd5b505af1158015610ec9573d6000803e3d6000fd5b5050506001600160a01b0382169050637d40583d600430604051610eec906146e4565b60405190819003812063ffffffff851660e01b8252610f12939291600090600401614a99565b600060405180830381600087803b158015610f2c57600080fd5b505af1158015610f40573d6000803e3d6000fd5b5050506001600160a01b0382169050637d40583d600430604051610f6390614676565b60405190819003812063ffffffff851660e01b8252610f89939291600090600401614a99565b600060405180830381600087803b158015610fa357600080fd5b505af1158015610fb7573d6000803e3d6000fd5b5050506001600160a01b0382169050637d40583d600430604051610fda90614634565b60405190819003812063ffffffff851660e01b8252611000939291600090600401614a99565b600060405180830381600087803b15801561101a57600080fd5b505af115801561102e573d6000803e3d6000fd5b5050506001600160a01b0382169050637d40583d600430604051611051906146a2565b60405190819003812063ffffffff851660e01b82526109e1939291600090600401614a99565b600254600160a01b900460ff16156110a457604051600160e51b62461bcd0281526004016104ca9061498f565b6110bc3360016000356001600160e01b031916612876565b6110db57604051600160e51b62461bcd0281526004016104ca9061491f565b600654604051600160e01b633812b2590281526001600160a01b03909116908190633812b2599061111090859060040161489f565b600060405180830381600087803b15801561112a57600080fd5b505af115801561113e573d6000803e3d6000fd5b505050505050565b61115e3360016000356001600160e01b031916612876565b61117d57604051600160e51b62461bcd0281526004016104ca9061491f565b6000611187611358565b90508060010182146111ae57604051600160e51b62461bcd0281526004016104ca9061493f565b600654604051600160e11b63478a64430281526000916001600160a01b031690638f14c886906111e290869060040161489f565b60206040518083038186803b1580156111fa57600080fd5b505afa15801561120e573d6000803e3d6000fd5b505050506040513d601f19601f8201168201806040525061123291908101906132af565b90506001600160a01b03811661125d57604051600160e51b62461bcd0281526004016104ca9061495f565b604051600160e11b63272a1d9302815230908190634e543b26906112859085906004016146fa565b600060405180830381600087803b15801561129f57600080fd5b505af11580156112b3573d6000803e3d6000fd5b50505050306001600160a01b031663340df28f6040518163ffffffff1660e01b8152600401600060405180830381600087803b1580156112f257600080fd5b505af1158015611306573d6000803e3d6000fd5b505050507ffd869f9a4402635c0c48fdd41efd32f2959a4773bdd34157f4562eff3c8e1d94838560405161133b929190614a8b565b60405180910390a150505050565b6006546001600160a01b031690565b600490565b60008054604051600160e41b630595b03f0281526001600160a01b039091169063595b03f090611393908690869060040161474b565b60206040518083038186803b1580156113ab57600080fd5b505afa1580156113bf573d6000803e3d6000fd5b505050506040513d601f19601f820116820180604052506113e391908101906134a6565b90505b92915050565b600254600160a01b900460ff161561141957604051600160e51b62461bcd0281526004016104ca9061498f565b848483611425836128c9565b61144457604051600160e51b62461bcd0281526004016104ca90614a0f565b61144d816128c9565b61146c57604051600160e51b62461bcd0281526004016104ca90614a2f565b61148333846000356001600160e01b031916612876565b6114a257604051600160e51b62461bcd0281526004016104ca9061491f565b8083146114d3576114b48383836128de565b6114d357604051600160e51b62461bcd0281526004016104ca90614a1f565b87856114ec33836000356001600160e01b031916612b61565b15611514578082141561151457604051600160e51b62461bcd0281526004016104ca906149af565b6000546001600160a01b0316636f967eb3898960068a6040518563ffffffff1660e01b8152600401611549949392919061480f565b600060405180830381600087803b15801561156357600080fd5b505af1158015611577573d6000803e3d6000fd5b5060069250611584915050565b60ff1687896001600160a01b03167f6c30ee3b0904e7637998f99624912c370da3d2d78c27b93b7a75d63692964599896040516115c19190614891565b60405180910390a450505050505050505050565b600254600160a01b900460ff161561160257604051600160e51b62461bcd0281526004016104ca9061498f565b61161a3360016000356001600160e01b031916612876565b61163957604051600160e51b62461bcd0281526004016104ca9061491f565b600654604051600160e31b631768f7e30281526001600160a01b0390911690819063bb47bf189061111090859060040161489f565b6014602052600090815260409020805460019091015482565b600254600160a01b900460ff16156116b457604051600160e51b62461bcd0281526004016104ca9061498f565b6006546001600160a01b0316156116e057604051600160e51b62461bcd0281526004016104ca90614a4f565b6007546001600160a01b03161561170c57604051600160e51b62461bcd0281526004016104ca9061496f565b600680546001600160a01b038085166001600160a01b031992831617909255600780549284169290911691909117905560405161175d9061174c906146ce565b604051809103902060006002612b99565b61176c60405161174c906146b8565b61177b60405161174c906146ad565b61179a60405161178a9061463f565b6040518091039020600080612b99565b6117ba6040516117a99061464a565b604051809103902060006001612b99565b6117c960405161174c90614613565b6117d86040516117a990614681565b6117e760405161174c9061461e565b6117f660405161174c90614660565b61181260405161180590614697565b6040518091039020612c03565b611821604051611805906146d9565b61183060405161180590614655565b60065460408051600160e01b6305f53b2902815290516001600160a01b039092169160009183916305f53b2991600480820192602092909190829003018186803b15801561187d57600080fd5b505afa158015611891573d6000803e3d6000fd5b505050506040513d601f19601f820116820180604052506118b591908101906134a6565b90506118c08161298f565b6000196008556040517f7b4b87fc2f7a012d33086b285b1def5cd0ed055e2b03ff6b6b4c40bcb337427b9061133b9086908690614708565b6119103360016000356001600160e01b031916612876565b61192f57604051600160e51b62461bcd0281526004016104ca9061491f565b600080546001600160a01b0319166001600160a01b03838116919091178083556040519116917f1abebea81bfa2637f28358c371278fb15ede7ea8dd28d2e03b112ff6d936ada491a250565b600254600160a01b900460ff16156119a857604051600160e51b62461bcd0281526004016104ca9061498f565b6119c03360016000356001600160e01b031916612876565b6119df57604051600160e51b62461bcd0281526004016104ca9061491f565b600654604051600160e01b63f07eb9210281526001600160a01b0390911690819063f07eb92190611a169086908690600401614a7d565b600060405180830381600087803b158015611a3057600080fd5b505af1158015611a44573d6000803e3d6000fd5b50505050505050565b600254600160a01b900460ff16611a7957604051600160e51b62461bcd0281526004016104ca906149df565b600681141561076657604051600160e51b62461bcd0281526004016104ca90614a5f565b6001546001600160a01b031681565b600254600160a01b900460ff1615611ad957604051600160e51b62461bcd0281526004016104ca9061498f565b848483611ae5836128c9565b611b0457604051600160e51b62461bcd0281526004016104ca90614a0f565b611b0d816128c9565b611b2c57604051600160e51b62461bcd0281526004016104ca90614a2f565b611b4333846000356001600160e01b031916612876565b611b6257604051600160e51b62461bcd0281526004016104ca9061491f565b808314611b9357611b748383836128de565b611b9357604051600160e51b62461bcd0281526004016104ca90614a1f565b8785611bac33836000356001600160e01b031916612b61565b15611bd45780821415611bd457604051600160e51b62461bcd0281526004016104ca906149af565b6000546001600160a01b0316636f967eb3898960058a6040518563ffffffff1660e01b8152600401611c09949392919061480f565b600060405180830381600087803b158015611c2357600080fd5b505af1158015611c37573d6000803e3d6000fd5b5060059250611584915050565b600254600090600160a01b900460ff1615611c7457604051600160e51b62461bcd0281526004016104ca9061498f565b602085015160348601516054870151606092831c921c3083141580611ca257506001600160a01b0381163314155b15611cb35760009350505050611d64565b60065460408051600160e01b6397824c3f02815290516000926001600160a01b0316916397824c3f916004808301926020929190829003018186803b158015611cfb57600080fd5b505afa158015611d0f573d6000803e3d6000fd5b505050506040513d601f19601f82011682018060405250611d3391908101906134a6565b90506000611d438a8a8a8a612c28565b9050808214611d5a57600095505050505050611d64565b6001955050505050505b949350505050565b600254600160a01b900460ff1615611d9957604051600160e51b62461bcd0281526004016104ca9061498f565b611db13360016000356001600160e01b031916612876565b611dd057604051600160e51b62461bcd0281526004016104ca9061491f565b600754604051600160e01b6340c10f190281526001600160a01b03909116906340c10f19906109e1903090859060040161474b565b600080546001600160a01b031663ab2f7ae28585856006811115611e2557fe5b6040518463ffffffff1660e01b8152600401611e439392919061479b565b60206040518083038186803b158015611e5b57600080fd5b505afa158015611e6f573d6000803e3d6000fd5b505050506040513d601f19601f82011682018060405250611e939190810190613488565b90505b9392505050565b600254600160a01b900460ff1615611eca57604051600160e51b62461bcd0281526004016104ca9061498f565b848483611ed6836128c9565b611ef557604051600160e51b62461bcd0281526004016104ca90614a0f565b611efe816128c9565b611f1d57604051600160e51b62461bcd0281526004016104ca90614a2f565b611f3433846000356001600160e01b031916612876565b611f5357604051600160e51b62461bcd0281526004016104ca9061491f565b808314611f8457611f658383836128de565b611f8457604051600160e51b62461bcd0281526004016104ca90614a1f565b8785611f9d33836000356001600160e01b031916612b61565b15611fc55780821415611fc557604051600160e51b62461bcd0281526004016104ca906149af565b6000546001600160a01b0316636f967eb3898960028a6040518563ffffffff1660e01b8152600401611ffa949392919061480f565b600060405180830381600087803b15801561201457600080fd5b505af1158015612028573d6000803e3d6000fd5b5060029250611584915050565b6000546001600160a01b031681565b600254600160a01b900460ff161561207157604051600160e51b62461bcd0281526004016104ca9061498f565b6120893360016000356001600160e01b031916612876565b6120a857604051600160e51b62461bcd0281526004016104ca9061491f565b6000546001600160a01b03166367aff484836001846040518463ffffffff1660e01b81526004016120db93929190614844565b600060405180830381600087803b1580156120f557600080fd5b505af1158015612109573d6000803e3d6000fd5b5060019250612116915050565b60ff166001836001600160a01b03167f6c30ee3b0904e7637998f99624912c370da3d2d78c27b93b7a75d63692964599846040516121549190614891565b60405180910390a45050565b600254600160a01b900460ff161561218d57604051600160e51b62461bcd0281526004016104ca9061498f565b6121a53360016000356001600160e01b031916612876565b6121c457604051600160e51b62461bcd0281526004016104ca9061491f565b600654604051600160e01b63e2db777b0281526001600160a01b039091169063e2db777b9061111090859085906004016148da565b600254600160a01b900460ff161561222657604051600160e51b62461bcd0281526004016104ca9061498f565b61223e3360016000356001600160e01b031916612876565b61225d57604051600160e51b62461bcd0281526004016104ca9061491f565b6009541561228057604051600160e51b62461bcd0281526004016104ca906149ff565b80518251146122a457604051600160e51b62461bcd0281526004016104ca906149cf565b60005b82518110156125ab5760008282815181106122be57fe5b602002602001015112156122e757604051600160e51b62461bcd0281526004016104ca9061492f565b6007546001600160a01b031660009081527f169f97de0d9a84d840042b17d3c6b9638b3d6fd9024c9eb0c7a306a17b49f88f6020526040902054825183908390811061232f57fe5b6020026020010151111561235857604051600160e51b62461bcd0281526004016104ca9061494f565b6007546001600160a01b031660009081527f169f97de0d9a84d840042b17d3c6b9638b3d6fd9024c9eb0c7a306a17b49f88f602052604090205482516123b291908490849081106123a557fe5b6020026020010151612c50565b600780546001600160a01b0390811660009081527f169f97de0d9a84d840042b17d3c6b9638b3d6fd9024c9eb0c7a306a17b49f88f60209081526040808320959095559254909116815260129091522054825161241691908490849081106123a557fe5b600780546001600160a01b0390811660009081526012602052604090209290925554845191169063a9059cbb9085908490811061244f57fe5b602002602001015184848151811061246357fe5b60200260200101516040518363ffffffff1660e01b815260040161248892919061474b565b602060405180830381600087803b1580156124a257600080fd5b505af11580156124b6573d6000803e3d6000fd5b505050506040513d601f19601f820116820180604052506124da9190810190613488565b6124e057fe5b60065483516001600160a01b0390911690635a8adafa9085908490811061250357fe5b602002602001015184848151811061251757fe5b602090810291909101810151600160005260149091527fb6c61a840592cc84133e4b25bd509abf4659307c57b160799b38490a5aa48f2c5460405163ffffffff851660e01b815261256d93929190600401614723565b600060405180830381600087803b15801561258757600080fd5b505af115801561259b573d6000803e3d6000fd5b5050600190920191506122a79050565b507ffc5048fa93e1233ebd07d6cfc31c38a67a0144550ebb5091b3754e989112e14782826040516125dd92919061486c565b60405180910390a15050565b600254600160a01b900460ff161561261657604051600160e51b62461bcd0281526004016104ca9061498f565b848483612622836128c9565b61264157604051600160e51b62461bcd0281526004016104ca90614a0f565b61264a816128c9565b61266957604051600160e51b62461bcd0281526004016104ca90614a2f565b61268033846000356001600160e01b031916612876565b61269f57604051600160e51b62461bcd0281526004016104ca9061491f565b8083146126d0576126b18383836128de565b6126d057604051600160e51b62461bcd0281526004016104ca90614a1f565b87856126e933836000356001600160e01b031916612b61565b15612711578082141561271157604051600160e51b62461bcd0281526004016104ca906149af565b6000546001600160a01b0316636f967eb3898960038a6040518563ffffffff1660e01b8152600401612746949392919061480f565b600060405180830381600087803b15801561276057600080fd5b505af1158015612774573d6000803e3d6000fd5b5060039250611584915050565b600254600090600160a01b900460ff16156127b157604051600160e51b62461bcd0281526004016104ca9061498f565b6127c93360016000356001600160e01b031916612876565b6127e857604051600160e51b62461bcd0281526004016104ca9061491f565b600654604051600160e21b63058906730281526001600160a01b0390911690819063162419cc9061281e906000906004016148bb565b602060405180830381600087803b15801561283857600080fd5b505af115801561284c573d6000803e3d6000fd5b505050506040513d601f19601f8201168201806040525061287091908101906134a6565b91505090565b6001546000906001600160a01b0385811691161480611e935750600054604051600160e01b639110fc8f0281526001600160a01b0390911690639110fc8f90611e43908790879030908890600401614766565b600080821180156113e6575050600b54101590565b600654600084815260146020526040808220549051600160e11b6304e8852f028152919283926001600160a01b03909116916309d10a5e9161292591908890600401614a8b565b60206040518083038186803b15801561293d57600080fd5b505afa158015612951573d6000803e3d6000fd5b505050506040513d601f19601f8201168201806040525061297591908101906134a6565b600084815260146020526040902054149150509392505050565b60065481906001600160a01b03168115801590612a1c5750806001600160a01b03166305f53b296040518163ffffffff1660e01b815260040160206040518083038186803b1580156129e057600080fd5b505afa1580156129f4573d6000803e3d6000fd5b505050506040513d601f19601f82011682018060405250612a1891908101906134a6565b8211155b612a3b57604051600160e51b62461bcd0281526004016104ca9061490f565b600b80546001908101909155600a80548201905560408051606081019091529081908152600b5460208083019190915260006040928301819052600a548152600f90915220815160018083018054909160ff1990911690836004811115612a9e57fe5b0217905550602082810151600283015560409283015160049092019190915581518083018352858152600a54818301908152600b8054600090815260149094529284902091518255516001909101555490517fdc725e59177226413e53f3af2d4ce462afe057a50f64a5cc1f4ba68995ee6e8591612b1b9161489f565b60405180910390a17f9024eafaee4bcbdf3af1f23bd5efd3ee4d269d3e5edb34589a9e406435c66ee5600a54604051612b54919061489f565b60405180910390a1505050565b600080546001600160a01b031663ad6a15168585600330876040518663ffffffff1660e01b8152600401611e439594939291906147c3565b6040518060400160405280836002811115612bb057fe5b6002811115612bbb57fe5b8152602001826002811115612bcc57fe5b6002811115612bd757fe5b90526001600160e01b031984166000908152600c60205260409020612bfd916002612f7d565b50505050565b6001600160e01b0319166000908152600d60205260409020805460ff19166001179055565b600080612c45868051906020012086805190602001208686612c76565b509695505050505050565b808203828111156113e657604051600160e51b62461bcd0281526004016104ca906148ff565b6000612c80613018565b612c88613036565b50604080518082019091528681526101006020820152612ca661304d565b868152612cb1613018565b60005b8651811015612d8d576000612cc889612df7565b60ff169050806001901b1989169850612ced8160ff0386612e5990919063ffffffff16565b60208601819052909550600090612d0390612ec0565b60208701529050612d1385612f1d565b848260028110612d1f57fe5b60200201528851899060001985820301908110612d3857fe5b6020026020010151848260010360028110612d4f57fe5b60200201818152505083604051602001612d6991906145bc565b60408051601f19818403018152919052805160209091012085525050600101612cb4565b5086612d9f5760208201839052612de0565b6000612daa88612df7565b60ff169050612dc58160ff0385612e5990919063ffffffff16565b60208501819052909450612dd890612ec0565b602085015250505b612de982612f1d565b999098509650505050505050565b600081612e1957604051600160e51b62461bcd0281526004016104ca9061497f565b8160805b60018160ff1610612e5257600019600160ff83161b018216612e47579182019160ff81169190911c905b60ff1660011c612e1d565b5050919050565b612e61613036565b612e69613036565b83602001518311158015612e7f57506101008311155b612e8557fe5b6020820183905282612e9a5760008252612ea9565b835160011960ff8590031b1682525b60208085015184900390820152925190911b825291565b6000612eca613036565b6000836020015111612ef157604051600160e51b62461bcd0281526004016104ca906149ef565b5050805160408051808201909152825160011b8152602092830151600019019281019290925260ff1c91565b8051602080830151808201519051604051600094612f3f9490939291016145d1565b604051602081830303815290604052805190602001209050919050565b604051806040016040528060008152602001600081525090565b5060009055565b6001830191839082156130085791602002820160005b83821115612fd957835183826101000a81548160ff02191690836002811115612fb857fe5b02179055509260200192600101602081600001049283019260010302612f93565b80156130065782816101000a81549060ff0219169055600101602081600001049283019260010302612fd9565b505b5061301492915061306d565b5090565b60405180604001604052806002906020820280388339509192915050565b604080518082019091526000808252602082015290565b60408051606081019091526000815260208101613068613036565b905290565b61052791905b8082111561301457805460ff19168155600101613073565b80356113e681614bd6565b80516113e681614bd6565b600082601f8301126130b257600080fd5b81356130c56130c082614ae8565b614ac1565b915081818352602084019350602081019050838560208402820111156130ea57600080fd5b60005b838110156131165781613100888261308b565b84525060209283019291909101906001016130ed565b5050505092915050565b600082601f83011261313157600080fd5b813561313f6130c082614ae8565b9150818183526020840193506020810190508385602084028201111561316457600080fd5b60005b83811015613116578161317a8882613216565b8452506020928301929190910190600101613167565b600082601f8301126131a157600080fd5b81356131af6130c082614ae8565b915081818352602084019350602081019050838560208402820111156131d457600080fd5b60005b8381101561311657816131ea8882613216565b84525060209283019291909101906001016131d7565b80356113e681614bea565b80516113e681614bea565b80356113e681614bf3565b80516113e681614bf3565b600082601f83011261323d57600080fd5b813561324b6130c082614b09565b9150808252602083016020830185838301111561326757600080fd5b613272838284614b94565b50505092915050565b80356113e681614bfc565b80356113e681614c05565b6000602082840312156132a357600080fd5b6000611d64848461308b565b6000602082840312156132c157600080fd5b6000611d648484613096565b600080604083850312156132e057600080fd5b60006132ec858561308b565b92505060206132fd8582860161308b565b9150509250929050565b6000806040838503121561331a57600080fd5b6000613326858561308b565b92505060206132fd85828601613200565b6000806040838503121561334a57600080fd5b6000613356858561308b565b92505060206132fd85828601613216565b60008060006060848603121561337c57600080fd5b6000613388868661308b565b935050602061339986828701613216565b92505060406133aa86828701613286565b9150509250925092565b600080600080600060a086880312156133cc57600080fd5b60006133d8888861308b565b95505060206133e988828901613216565b94505060406133fa88828901613286565b935050606061340b88828901613216565b925050608061341c88828901613216565b9150509295509295909350565b6000806040838503121561343c57600080fd5b823567ffffffffffffffff81111561345357600080fd5b61345f858286016130a1565b925050602083013567ffffffffffffffff81111561347c57600080fd5b6132fd85828601613190565b60006020828403121561349a57600080fd5b6000611d64848461320b565b6000602082840312156134b857600080fd5b6000611d648484613221565b600080600080608085870312156134da57600080fd5b843567ffffffffffffffff8111156134f157600080fd5b6134fd8782880161322c565b945050602085013567ffffffffffffffff81111561351a57600080fd5b6135268782880161322c565b935050604061353787828801613216565b925050606085013567ffffffffffffffff81111561355457600080fd5b61356087828801613120565b91505092959194509250565b60006020828403121561357e57600080fd5b6000611d64848461327b565b60006020828403121561359c57600080fd5b813567ffffffffffffffff8111156135b357600080fd5b611d648482850161322c565b600080604083850312156135d257600080fd5b823567ffffffffffffffff8111156135e957600080fd5b6135f58582860161322c565b925050602083013567ffffffffffffffff81111561361257600080fd5b6132fd8582860161322c565b60006020828403121561363057600080fd5b6000611d648484613216565b6000806040838503121561364f57600080fd5b60006132ec8585613216565b600080600080600060a0868803121561367357600080fd5b600061367f8888613216565b955050602061369088828901613216565b94505060406136a18882890161308b565b93505060606136b288828901613216565b925050608061341c88828901613200565b6000806000606084860312156136d857600080fd5b60006136e48686613216565b93505060206136f586828701613216565b92505060406133aa86828701613216565b60006137128383613726565b505060200190565b60006137128383613831565b61372f81614b4f565b82525050565b600061374082614b37565b61374a8185614b41565b935061375583614b31565b8060005b8381101561378357815161376d8882613706565b975061377883614b31565b925050600101613759565b509495945050505050565b61379781614b3b565b6137a18184614b4a565b92506137ac82610527565b8060005b8381101561113e5781516137c4878261371a565b96506137cf83614b31565b9250506001016137b0565b60006137e582614b37565b6137ef8185614b41565b93506137fa83614b31565b8060005b83811015613783578151613812888261371a565b975061381d83614b31565b9250506001016137fe565b61372f81614b5a565b61372f81610527565b61372f61384682610527565b610527565b61372f81614b5f565b61372f81614b6c565b61372f81614b89565b600061387182614b37565b61387b8185614b41565b935061388b818560208601614ba0565b61389481614bcc565b9093019392505050565b60006138ab601583614b41565b7f64732d6d6174682d7375622d756e646572666c6f770000000000000000000000815260200192915050565b60006138e4601b83614b41565b7f636f6c6f6e792d736b696c6c2d646f65732d6e6f742d65786973740000000000815260200192915050565b600061391d601483614b41565b7f64732d617574682d756e617574686f72697a6564000000000000000000000000815260200192915050565b6000613956602183614b41565b7f636f6c6f6e792d626f6f7473747261702d6261642d616d6f756e742d696e70758152600160fa1b601d02602082015260400192915050565b600061399c602083614b41565b7f636f6c6f6e792d76657273696f6e2d6d7573742d62652d6f6e652d6e65776572815260200192915050565b60006139d5602283614b41565b7f636f6c6f6e792d626f6f7473747261702d6e6f742d656e6f7567682d746f6b658152600160f01b616e7302602082015260400192915050565b6000613a1c604283614b4a565b7f7472616e73666572457870656e6469747572655669614172626974726174696f81527f6e2875696e743235362c75696e743235362c75696e743235362c6164647265736020820152600160f01b61732902604082015260420192915050565b6000613a89602c83614b4a565b7f7365745461736b576f726b65725061796f75742875696e743235362c6164647281527f6573732c75696e743235362900000000000000000000000000000000000000006020820152602c0192915050565b6000613ae8602183614b41565b7f636f6c6f6e792d76657273696f6e2d6d7573742d62652d7265676973746572658152600160fa1b601902602082015260400192915050565b6000613b2e602083614b41565b7f636f6c6f6e792d616c72656164792d696e697469616c697365642d746f6b656e815260200192915050565b6000613b67601d83614b4a565b7f72656d6f76655461736b576f726b6572526f6c652875696e74323536290000008152601d0192915050565b6000613ba0601e83614b41565b7f636f6c6f6e792d70617472696369612d747265652d7a65726f2d73656c660000815260200192915050565b6000613bd9601783614b41565b7f636f6c6f6e792d696e2d7265636f766572792d6d6f6465000000000000000000815260200192915050565b6000613c12604183614b4a565b7f736574457870656e646974757265436c61696d44656c61792875696e7432353681527f2c75696e743235362c75696e743235362c75696e743235362c75696e743235366020820152600160f81b602902604082015260410192915050565b6000613c7e603b83614b4a565b7f73657441646d696e697374726174696f6e526f6c652875696e743235362c756981527f6e743235362c616464726573732c75696e743235362c626f6f6c2900000000006020820152603b0192915050565b6000613cdd602d83614b4a565b7f7365745461736b4d616e616765725061796f75742875696e743235362c61646481527f726573732c75696e7432353629000000000000000000000000000000000000006020820152602d0192915050565b6000613d3c602f83614b4a565b7f7365745461736b4576616c7561746f725061796f75742875696e743235362c6181527f6464726573732c75696e743235362900000000000000000000000000000000006020820152602f0192915050565b6000613d9b602d83614b41565b7f636f6c6f6e792d6163636573732d64656e6965642d6f6e6c792d6d6574612d6381527f6f6c6f6e792d616c6c6f77656400000000000000000000000000000000000000602082015260400192915050565b6000613dfa602283614b4a565b7f7365745461736b576f726b6572526f6c652875696e743235362c6164647265738152600160f01b61732902602082015260220192915050565b6000613e41601383614b4a565b7f63616e63656c5461736b2875696e743235362900000000000000000000000000815260130192915050565b6000613e7a604483614b4a565b7f736574457870656e6469747572655061796f75744d6f6469666965722875696e81527f743235362c75696e743235362c75696e743235362c75696e743235362c696e746020820152600160e01b633235362902604082015260440192915050565b6000613ee9602783614b41565b7f64732d617574682d6f6e6c792d617574686f72697a65642d696e2d6368696c648152600160c91b6616b237b6b0b4b702602082015260400192915050565b6000613f35601d83614b41565b7f636f6c6f6e792d706172656e742d646f6d61696e2d6e6f742d726f6f74000000815260200192915050565b6000613f6e603483614b4a565b7f73657446756e64696e67526f6c652875696e743235362c75696e743235362c6181527f6464726573732c75696e743235362c626f6f6c29000000000000000000000000602082015260340192915050565b6000613fcd601b83614b41565b7f636f6c6f6e792d626f6f7473747261702d6261642d696e707574730000000000815260200192915050565b6000614006601b83614b41565b7f636f6c6f6e792d6e6f742d696e2d7265636f766572792d6d6f64650000000000815260200192915050565b600061403f602583614b41565b7f636f6c6f6e792d70617472696369612d747265652d7a65726f2d73656c662d6c8152600160db1b640cadccee8d02602082015260400192915050565b6000614089601c83614b41565b7f636f6c6f6e792d6e6f742d696e2d626f6f7473747261702d6d6f646500000000815260200192915050565b60006140c2602083614b4a565b7f72656d6f76655461736b4576616c7561746f72526f6c652875696e7432353629815260200192915050565b60006140fb602883614b4a565b7f6d616b65457870656e6469747572652875696e743235362c75696e743235362c8152600160c01b6775696e743235362902602082015260280192915050565b6000614148603383614b4a565b7f7365745461736b4d616e61676572526f6c652875696e743235362c616464726581527f73732c75696e743235362c75696e743235362900000000000000000000000000602082015260330192915050565b60006141a7603883614b4a565b7f7365744172626974726174696f6e526f6c652875696e743235362c75696e743281527f35362c616464726573732c75696e743235362c626f6f6c290000000000000000602082015260380192915050565b6000614206601d83614b4a565b7f7365745461736b536b696c6c2875696e743235362c75696e74323536290000008152601d0192915050565b600061423f601f83614b4a565b7f7365745461736b447565446174652875696e743235362c75696e7432353629008152601f0192915050565b6000614278602883614b41565b7f64732d617574682d7065726d697373696f6e2d646f6d61696e2d646f65732d6e8152600160c21b671bdd0b595e1a5cdd02602082015260400192915050565b60006142c5601e83614b4a565b7f7365745461736b446f6d61696e2875696e743235362c75696e743235362900008152601e0192915050565b60006142fe602283614b41565b7f64732d617574682d696e76616c69642d646f6d61696e2d696e6865726974656e8152600160f01b61636502602082015260400192915050565b6000614345602383614b41565b7f64732d617574682d6368696c642d646f6d61696e2d646f65732d6e6f742d65788152600160ea1b621a5cdd02602082015260400192915050565b600061438d601d83614b4a565b7f7365745461736b42726965662875696e743235362c62797465733332290000008152601d0192915050565b60006143c6602583614b4a565b7f7365745461736b4576616c7561746f72526f6c652875696e743235362c6164648152600160d81b64726573732902602082015260250192915050565b6000614410602983614b41565b7f636f6c6f6e792d6163636573732d64656e6965642d6f6e6c792d6e6574776f728152600160ba1b681acb585b1b1bddd95902602082015260400192915050565b600061445e603983614b4a565b7f736574417263686974656374757265526f6c652875696e743235362c75696e7481527f3235362c616464726573732c75696e743235362c626f6f6c2900000000000000602082015260390192915050565b60006144bd603183614b4a565b7f7365745061796d656e74446f6d61696e2875696e743235362c75696e7432353681527f2c75696e743235362c75696e7432353629000000000000000000000000000000602082015260310192915050565b600061451c602283614b41565b7f636f6c6f6e792d616c72656164792d696e697469616c697365642d6e6574776f8152600160f01b61726b02602082015260400192915050565b6000614563601983614b41565b7f636f6c6f6e792d70726f7465637465642d7661726961626c6500000000000000815260200192915050565b805160408301906145a08482613831565b506020820151612bfd6020850182613831565b61372f81614b83565b60006145c8828461378e565b50604001919050565b60006145dd828661383a565b6020820191506145ed828561383a565b6020820191506145fd828461383a565b506020019392505050565b60006113e682613a0f565b60006113e682613a7c565b60006113e682613b5a565b60006113e682613c05565b60006113e682613c71565b60006113e682613cd0565b60006113e682613d2f565b60006113e682613ded565b60006113e682613e34565b60006113e682613e6d565b60006113e682613f61565b60006113e6826140b5565b60006113e6826140ee565b60006113e68261413b565b60006113e68261419a565b60006113e6826141f9565b60006113e682614232565b60006113e6826142b8565b60006113e682614380565b60006113e6826143b9565b60006113e682614451565b60006113e6826144b0565b602081016113e68284613726565b604081016147168285613726565b611e966020830184613726565b606081016147318286613726565b61473e6020830185613831565b611d646040830184613831565b604081016147598285613726565b611e966020830184613831565b608081016147748287613726565b6147816020830186613831565b61478e6040830185613726565b610a41606083018461384b565b606081016147a98286613726565b6147b66020830185613831565b611d6460408301846145b3565b60a081016147d18288613726565b6147de6020830187613831565b6147eb60408301866145b3565b6147f86060830185613726565b614805608083018461384b565b9695505050505050565b6080810161481d8287613726565b61482a6020830186613831565b61483760408301856145b3565b610a416060830184613828565b606081016148528286613726565b61485f60208301856145b3565b611d646040830184613828565b6040808252810161487d8185613735565b90508181036020830152611e9381846137da565b602081016113e68284613828565b602081016113e68284613831565b602081016113e68284613854565b602081016113e6828461385d565b602080825281016113e38184613866565b604080825281016148eb8185613866565b90508181036020830152611e938184613866565b602080825281016113e68161389e565b602080825281016113e6816138d7565b602080825281016113e681613910565b602080825281016113e681613949565b602080825281016113e68161398f565b602080825281016113e6816139c8565b602080825281016113e681613adb565b602080825281016113e681613b21565b602080825281016113e681613b93565b602080825281016113e681613bcc565b602080825281016113e681613d8e565b602080825281016113e681613edc565b602080825281016113e681613f28565b602080825281016113e681613fc0565b602080825281016113e681613ff9565b602080825281016113e681614032565b602080825281016113e68161407c565b602080825281016113e68161426b565b602080825281016113e6816142f1565b602080825281016113e681614338565b602080825281016113e681614403565b602080825281016113e68161450f565b602080825281016113e681614556565b604081016113e6828461458f565b604081016147168285613831565b604081016147598285613831565b60808101614aa782876145b3565b614ab46020830186613726565b614837604083018561384b565b60405181810167ffffffffffffffff81118282101715614ae057600080fd5b604052919050565b600067ffffffffffffffff821115614aff57600080fd5b5060209081020190565b600067ffffffffffffffff821115614b2057600080fd5b506020601f91909101601f19160190565b60200190565b5190565b50600290565b90815260200190565b919050565b60006113e682614b77565b151590565b6001600160e01b03191690565b60006113e682614b4f565b6001600160a01b031690565b60ff1690565b60006113e682610527565b82818337506000910152565b60005b83811015614bbb578181015183820152602001614ba3565b83811115612bfd5750506000910152565b601f01601f191690565b614bdf81614b4f565b811461076657600080fd5b614bdf81614b5a565b614bdf81610527565b614bdf81614b6c565b6007811061076657600080fdfea265627a7a7230582067ec0a65e3bd4337ac3a204d549bb38fb40f34578ceb2021e0fce477168d754d6c6578706572696d656e74616cf50037",
  "source": "/*\n  This file is part of The Colony Network.\n\n  The Colony Network is free software: you can redistribute it and/or modify\n  it under the terms of the GNU General Public License as published by\n  the Free Software Foundation, either version 3 of the License, or\n  (at your option) any later version.\n\n  The Colony Network is distributed in the hope that it will be useful,\n  but WITHOUT ANY WARRANTY; without even the implied warranty of\n  MERCHANTABILITY or FITNESS FOR A PARTICULAR PURPOSE.  See the\n  GNU General Public License for more details.\n\n  You should have received a copy of the GNU General Public License\n  along with The Colony Network. If not, see <http://www.gnu.org/licenses/>.\n*/\n\npragma solidity 0.5.8;\npragma experimental ABIEncoderV2;\n\nimport \"./ColonyStorage.sol\";\nimport \"./IEtherRouter.sol\";\n\n\ncontract Colony is ColonyStorage, PatriciaTreeProofs {\n\n  // This function, exactly as defined, is used in build scripts. Take care when updating.\n  // Version number should be upped with every change in Colony or its dependency contracts or libraries.\n  function version() public pure returns (uint256 colonyVersion) { return 4; }\n\n  function setRootRole(address _user, bool _setTo) public stoppable auth {\n    ColonyAuthority(address(authority)).setUserRole(_user, uint8(ColonyRole.Root), _setTo);\n\n    emit ColonyRoleSet(_user, 1, uint8(ColonyRole.Root), _setTo);\n  }\n\n  function setArbitrationRole(\n    uint256 _permissionDomainId,\n    uint256 _childSkillIndex,\n    address _user,\n    uint256 _domainId,\n    bool _setTo\n  ) public stoppable authDomain(_permissionDomainId, _childSkillIndex, _domainId) archSubdomain(_permissionDomainId, _domainId)\n  {\n    ColonyAuthority(address(authority)).setUserRole(_user, _domainId, uint8(ColonyRole.Arbitration), _setTo);\n\n    emit ColonyRoleSet(_user, _domainId, uint8(ColonyRole.Arbitration), _setTo);\n  }\n\n  function setArchitectureRole(\n    uint256 _permissionDomainId,\n    uint256 _childSkillIndex,\n    address _user,\n    uint256 _domainId,\n    bool _setTo\n  ) public stoppable authDomain(_permissionDomainId, _childSkillIndex, _domainId) archSubdomain(_permissionDomainId, _domainId)\n  {\n    ColonyAuthority(address(authority)).setUserRole(_user, _domainId, uint8(ColonyRole.Architecture), _setTo);\n\n    emit ColonyRoleSet(_user, _domainId, uint8(ColonyRole.Architecture), _setTo);\n  }\n\n  function setFundingRole(\n    uint256 _permissionDomainId,\n    uint256 _childSkillIndex,\n    address _user,\n    uint256 _domainId,\n    bool _setTo\n  ) public stoppable authDomain(_permissionDomainId, _childSkillIndex, _domainId) archSubdomain(_permissionDomainId, _domainId)\n  {\n    ColonyAuthority(address(authority)).setUserRole(_user, _domainId, uint8(ColonyRole.Funding), _setTo);\n\n    emit ColonyRoleSet(_user, _domainId, uint8(ColonyRole.Funding), _setTo);\n  }\n\n  function setAdministrationRole(\n    uint256 _permissionDomainId,\n    uint256 _childSkillIndex,\n    address _user,\n    uint256 _domainId,\n    bool _setTo\n  ) public stoppable authDomain(_permissionDomainId, _childSkillIndex, _domainId) archSubdomain(_permissionDomainId, _domainId)\n  {\n    ColonyAuthority(address(authority)).setUserRole(_user, _domainId, uint8(ColonyRole.Administration), _setTo);\n\n    emit ColonyRoleSet(_user, _domainId, uint8(ColonyRole.Administration), _setTo);\n  }\n\n  function hasUserRole(address _user, uint256 _domainId, ColonyRole _role) public view returns (bool) {\n    return ColonyAuthority(address(authority)).hasUserRole(_user, _domainId, uint8(_role));\n  }\n\n  function hasInheritedUserRole(\n    address _user,\n    uint256 _domainId,\n    ColonyRole _role,\n    uint256 _childSkillIndex,\n    uint256 _childDomainId\n  ) public view returns (bool)\n  {\n    return (\n      hasUserRole(_user, _domainId, _role) &&\n      (_domainId == _childDomainId || validateDomainInheritance(_domainId, _childSkillIndex, _childDomainId))\n    );\n  }\n\n  function getUserRoles(address who, uint256 where) public view returns (bytes32) {\n    return ColonyAuthority(address(authority)).getUserRoles(who, where);\n  }\n\n  function getColonyNetwork() public view returns (address) {\n    return colonyNetworkAddress;\n  }\n\n  function getToken() public view returns (address) {\n    return token;\n  }\n\n  function initialiseColony(address _colonyNetworkAddress, address _token) public stoppable {\n    require(colonyNetworkAddress == address(0x0), \"colony-already-initialised-network\");\n    require(token == address(0x0), \"colony-already-initialised-token\");\n    colonyNetworkAddress = _colonyNetworkAddress;\n    token = _token;\n\n    // Initialise the task update reviewers\n    setFunctionReviewers(bytes4(keccak256(\"setTaskBrief(uint256,bytes32)\")), TaskRole.Manager, TaskRole.Worker);\n    setFunctionReviewers(bytes4(keccak256(\"setTaskDueDate(uint256,uint256)\")), TaskRole.Manager, TaskRole.Worker);\n    setFunctionReviewers(bytes4(keccak256(\"setTaskSkill(uint256,uint256)\")), TaskRole.Manager, TaskRole.Worker);\n    // We are setting a manager to both reviewers, but it will require just one signature from manager\n    setFunctionReviewers(bytes4(keccak256(\"setTaskManagerPayout(uint256,address,uint256)\")), TaskRole.Manager, TaskRole.Manager);\n    setFunctionReviewers(bytes4(keccak256(\"setTaskEvaluatorPayout(uint256,address,uint256)\")), TaskRole.Manager, TaskRole.Evaluator);\n    setFunctionReviewers(bytes4(keccak256(\"setTaskWorkerPayout(uint256,address,uint256)\")), TaskRole.Manager, TaskRole.Worker);\n    setFunctionReviewers(bytes4(keccak256(\"removeTaskEvaluatorRole(uint256)\")), TaskRole.Manager, TaskRole.Evaluator);\n    setFunctionReviewers(bytes4(keccak256(\"removeTaskWorkerRole(uint256)\")), TaskRole.Manager, TaskRole.Worker);\n    setFunctionReviewers(bytes4(keccak256(\"cancelTask(uint256)\")), TaskRole.Manager, TaskRole.Worker);\n\n    setRoleAssignmentFunction(bytes4(keccak256(\"setTaskManagerRole(uint256,address,uint256,uint256)\")));\n    setRoleAssignmentFunction(bytes4(keccak256(\"setTaskEvaluatorRole(uint256,address)\")));\n    setRoleAssignmentFunction(bytes4(keccak256(\"setTaskWorkerRole(uint256,address)\")));\n\n    // Initialise the root domain\n    IColonyNetwork colonyNetwork = IColonyNetwork(colonyNetworkAddress);\n    uint256 rootLocalSkill = colonyNetwork.getSkillCount();\n    initialiseDomain(rootLocalSkill);\n\n    // Set initial colony reward inverse amount to the max indicating a zero rewards to start with\n    rewardInverse = 2**256 - 1;\n\n    emit ColonyInitialised(_colonyNetworkAddress, _token);\n  }\n\n  function bootstrapColony(address[] memory _users, int[] memory _amounts) public\n  stoppable\n  auth\n  isInBootstrapPhase\n  {\n    require(_users.length == _amounts.length, \"colony-bootstrap-bad-inputs\");\n\n    for (uint i = 0; i < _users.length; i++) {\n      require(_amounts[i] >= 0, \"colony-bootstrap-bad-amount-input\");\n      require(uint256(_amounts[i]) <= fundingPots[1].balance[token], \"colony-bootstrap-not-enough-tokens\");\n      fundingPots[1].balance[token] = sub(fundingPots[1].balance[token], uint256(_amounts[i]));\n      nonRewardPotsTotal[token] = sub(nonRewardPotsTotal[token], uint256(_amounts[i]));\n\n      assert(ERC20Extended(token).transfer(_users[i], uint256(_amounts[i])));\n      IColonyNetwork(colonyNetworkAddress).appendReputationUpdateLog(_users[i], _amounts[i], domains[1].skillId);\n    }\n\n    emit ColonyBootstrapped(_users, _amounts);\n  }\n\n  function mintTokens(uint _wad) public\n  stoppable\n  auth\n  {\n    ERC20Extended(token).mint(address(this), _wad); // ignore-swc-107\n  }\n\n  function mintTokensForColonyNetwork(uint _wad) public stoppable {\n    // Only the colony Network can call this function\n    require(msg.sender == colonyNetworkAddress, \"colony-access-denied-only-network-allowed\");\n    // Function only valid on the Meta Colony\n    require(address(this) == IColonyNetwork(colonyNetworkAddress).getMetaColony(), \"colony-access-denied-only-meta-colony-allowed\");\n    ERC20Extended(token).mint(_wad);\n    assert(ERC20Extended(token).transfer(colonyNetworkAddress, _wad));\n  }\n\n  function registerColonyLabel(string memory colonyName, string memory orbitdb) public stoppable auth {\n    IColonyNetwork(colonyNetworkAddress).registerColonyLabel(colonyName, orbitdb);\n  }\n\n  function updateColonyOrbitDB(string memory orbitdb) public stoppable auth {\n    IColonyNetwork(colonyNetworkAddress).updateColonyOrbitDB(orbitdb);\n  }\n\n  function addGlobalSkill() public\n  stoppable\n  auth\n  returns (uint256)\n  {\n    IColonyNetwork colonyNetwork = IColonyNetwork(colonyNetworkAddress);\n    return colonyNetwork.addSkill(0); // ignore-swc-107\n  }\n\n  function deprecateGlobalSkill(uint256 _skillId) public\n  stoppable\n  auth\n  {\n    IColonyNetwork colonyNetwork = IColonyNetwork(colonyNetworkAddress);\n    return colonyNetwork.deprecateSkill(_skillId);\n  }\n\n  function setNetworkFeeInverse(uint256 _feeInverse) public\n  stoppable\n  auth\n  {\n    IColonyNetwork colonyNetwork = IColonyNetwork(colonyNetworkAddress);\n    return colonyNetwork.setFeeInverse(_feeInverse); // ignore-swc-107\n  }\n\n  function addNetworkColonyVersion(uint256 _version, address _resolver) public\n  stoppable\n  auth\n  {\n    IColonyNetwork colonyNetwork = IColonyNetwork(colonyNetworkAddress);\n    return colonyNetwork.addColonyVersion(_version, _resolver);\n  }\n\n  function addDomain(uint256 _permissionDomainId, uint256 _childSkillIndex, uint256 _parentDomainId) public\n  stoppable\n  authDomain(_permissionDomainId, _childSkillIndex, _parentDomainId)\n  {\n    // Note: Remove when we want to allow more domain hierarchy levels\n    require(_parentDomainId == 1, \"colony-parent-domain-not-root\");\n\n    uint256 parentSkillId = domains[_parentDomainId].skillId;\n\n    // Setup new local skill\n    IColonyNetwork colonyNetwork = IColonyNetwork(colonyNetworkAddress);\n    uint256 newLocalSkill = colonyNetwork.addSkill(parentSkillId);\n\n    // Add domain to local mapping\n    initialiseDomain(newLocalSkill);\n  }\n\n  function getDomain(uint256 _id) public view returns (Domain memory domain) {\n    domain = domains[_id];\n  }\n\n  function getDomainCount() public view returns (uint256) {\n    return domainCount;\n  }\n\n  function verifyReputationProof(bytes memory key, bytes memory value, uint256 branchMask, bytes32[] memory siblings)\n  public view\n  stoppable\n  returns (bool)\n  {\n    uint256 colonyAddress;\n    uint256 skillid;\n    uint256 userAddress;\n    assembly {\n        colonyAddress := mload(add(key,32))\n        skillid := mload(add(key,52)) // Colony address was 20 bytes long, so add 20 bytes\n        userAddress := mload(add(key,84)) // Skillid was 32 bytes long, so add 32 bytes\n    }\n    colonyAddress >>= 96;\n    userAddress >>= 96;\n\n    // Require that the user is proving their own reputation in this colony.\n    if (address(colonyAddress) != address(this) || address(userAddress) != msg.sender) {\n      return false;\n    }\n\n    // Get roothash from colonynetwork\n    bytes32 rootHash = IColonyNetwork(colonyNetworkAddress).getReputationRootHash();\n    bytes32 impliedHash = getImpliedRootHashKey(key, value, branchMask, siblings);\n    if (rootHash != impliedHash) {\n      return false;\n    }\n\n    return true;\n  }\n\n  function upgrade(uint256 _newVersion) public always auth {\n    // Upgrades can only go up in version, one at a time\n    uint256 currentVersion = version();\n    require(_newVersion == currentVersion + 1, \"colony-version-must-be-one-newer\");\n    // Requested version has to be registered\n    address newResolver = IColonyNetwork(colonyNetworkAddress).getColonyVersionResolver(_newVersion);\n    require(newResolver != address(0x0), \"colony-version-must-be-registered\");\n    IEtherRouter currentColony = IEtherRouter(address(this));\n    currentColony.setResolver(newResolver);\n    // This is deliberately an external call, because we don't know what we need to do for our next upgrade yet.\n    // Because it's called after setResolver, it'll do the new finishUpgrade, which will be populated with what we know\n    // we need to do once we know what's in it!\n    this.finishUpgrade();\n    emit ColonyUpgraded(currentVersion, _newVersion);\n  }\n\n  // Removing payment/task domain mutability\n  bytes4 constant SIG_A0 = bytes4(keccak256(\"setTaskDomain(uint256,uint256)\"));\n  bytes4 constant SIG_A1 = bytes4(keccak256(\"setPaymentDomain(uint256,uint256,uint256,uint256)\"));\n\n  // Introducing the expenditure\n  bytes4 constant SIG_B0 = bytes4(keccak256(\"makeExpenditure(uint256,uint256,uint256)\"));\n  bytes4 constant SIG_B1 = bytes4(keccak256(\"transferExpenditureViaArbitration(uint256,uint256,uint256,address)\"));\n  bytes4 constant SIG_B2 = bytes4(keccak256(\"setExpenditurePayoutModifier(uint256,uint256,uint256,uint256,int256)\"));\n  bytes4 constant SIG_B3 = bytes4(keccak256(\"setExpenditureClaimDelay(uint256,uint256,uint256,uint256,uint256)\"));\n\n  // Remove ArchitectureSubdomain\n  bytes4 constant SIG_C0 = bytes4(keccak256(\"setArchitectureRole(uint256,uint256,address,uint256,bool)\"));\n  bytes4 constant SIG_C1 = bytes4(keccak256(\"setFundingRole(uint256,uint256,address,uint256,bool)\"));\n  bytes4 constant SIG_C2 = bytes4(keccak256(\"setAdministrationRole(uint256,uint256,address,uint256,bool)\"));\n  bytes4 constant SIG_C3 = bytes4(keccak256(\"setArbitrationRole(uint256,uint256,address,uint256,bool)\"));\n\n  // v3 to v4\n  function finishUpgrade() public always {\n    ColonyAuthority colonyAuthority = ColonyAuthority(address(authority));\n\n    // Remove payment/task domain mutability from multisig\n    delete reviewers[SIG_A0];\n\n    // Remove payment/task domain mutability from authority\n    colonyAuthority.setRoleCapability(uint8(ColonyRole.Administration), address(this), SIG_A1, false);\n\n    // Add expenditure capabilities\n    colonyAuthority.setRoleCapability(uint8(ColonyRole.Administration), address(this), SIG_B0, true);\n    colonyAuthority.setRoleCapability(uint8(ColonyRole.Arbitration), address(this), SIG_B1, true);\n    colonyAuthority.setRoleCapability(uint8(ColonyRole.Arbitration), address(this), SIG_B2, true);\n    colonyAuthority.setRoleCapability(uint8(ColonyRole.Arbitration), address(this), SIG_B3, true);\n\n    // Remove ArchitectureSubdomain\n    colonyAuthority.setRoleCapability(uint8(ColonyRole.Architecture), address(this), SIG_C0, true);\n    colonyAuthority.setRoleCapability(uint8(ColonyRole.Architecture), address(this), SIG_C1, true);\n    colonyAuthority.setRoleCapability(uint8(ColonyRole.Architecture), address(this), SIG_C2, true);\n    colonyAuthority.setRoleCapability(uint8(ColonyRole.Architecture), address(this), SIG_C3, true);\n    colonyAuthority.setRoleCapability(uint8(ColonyRole.ArchitectureSubdomain_DEPRECATED), address(this), SIG_C0, false);\n    colonyAuthority.setRoleCapability(uint8(ColonyRole.ArchitectureSubdomain_DEPRECATED), address(this), SIG_C1, false);\n    colonyAuthority.setRoleCapability(uint8(ColonyRole.ArchitectureSubdomain_DEPRECATED), address(this), SIG_C2, false);\n    colonyAuthority.setRoleCapability(uint8(ColonyRole.ArchitectureSubdomain_DEPRECATED), address(this), SIG_C3, false);\n  }\n\n  function checkNotAdditionalProtectedVariable(uint256 _slot) public view recovery {\n    require(_slot != COLONY_NETWORK_SLOT, \"colony-protected-variable\");\n  }\n\n  function initialiseDomain(uint256 _skillId) internal skillExists(_skillId) {\n    domainCount += 1;\n    // Create a new funding pot\n    fundingPotCount += 1;\n    fundingPots[fundingPotCount] = FundingPot({\n      associatedType: FundingPotAssociatedType.Domain,\n      associatedTypeId: domainCount,\n      payoutsWeCannotMake: 0\n    });\n\n    // Create a new domain with the given skill and new funding pot\n    domains[domainCount] = Domain({\n      skillId: _skillId,\n      fundingPotId: fundingPotCount\n    });\n\n    emit DomainAdded(domainCount);\n    emit FundingPotAdded(fundingPotCount);\n  }\n\n  function setFunctionReviewers(bytes4 _sig, TaskRole _firstReviewer, TaskRole _secondReviewer)\n  private\n  {\n    reviewers[_sig] = [_firstReviewer, _secondReviewer];\n  }\n\n  function setRoleAssignmentFunction(bytes4 _sig) private {\n    roleAssignmentSigs[_sig] = true;\n  }\n}\n",
  "sourcePath": "/Users/chris/dev/Colony/colonyJS/vendor/colonyNetwork/contracts/Colony.sol",
  "compiler": {
    "name": "solc",
    "version": "0.5.8+commit.23d335f2.Linux.g++"
  },
  "schemaVersion": "3.0.23",
  "updatedAt": "2020-05-18T13:40:06.806Z",
  "devdoc": {
    "methods": {}
  },
  "userdoc": {
    "methods": {}
  }
}