{
  "contractName": "MetaTxToken",
  "abi": [
    {
      "inputs": [
        {
          "internalType": "string",
          "name": "_name",
          "type": "string"
        },
        {
          "internalType": "string",
          "name": "_symbol",
          "type": "string"
        },
        {
          "internalType": "uint8",
          "name": "_decimals",
          "type": "uint8"
        }
      ],
      "stateMutability": "nonpayable",
      "type": "constructor"
    },
    {
      "anonymous": false,
      "inputs": [
        {
          "indexed": true,
          "internalType": "address",
          "name": "src",
          "type": "address"
        },
        {
          "indexed": true,
          "internalType": "address",
          "name": "guy",
          "type": "address"
        },
        {
          "indexed": false,
          "internalType": "uint256",
          "name": "wad",
          "type": "uint256"
        }
      ],
      "name": "Approval",
      "type": "event"
    },
    {
      "anonymous": false,
      "inputs": [
        {
          "indexed": true,
          "internalType": "address",
          "name": "guy",
          "type": "address"
        },
        {
          "indexed": false,
          "internalType": "uint256",
          "name": "wad",
          "type": "uint256"
        }
      ],
      "name": "Burn",
      "type": "event"
    },
    {
      "anonymous": false,
      "inputs": [
        {
          "indexed": true,
          "internalType": "address",
          "name": "authority",
          "type": "address"
        }
      ],
      "name": "LogSetAuthority",
      "type": "event"
    },
    {
      "anonymous": false,
      "inputs": [
        {
          "indexed": true,
          "internalType": "address",
          "name": "owner",
          "type": "address"
        }
      ],
      "name": "LogSetOwner",
      "type": "event"
    },
    {
      "anonymous": false,
      "inputs": [
        {
          "indexed": false,
          "internalType": "address",
          "name": "user",
          "type": "address"
        },
        {
          "indexed": false,
          "internalType": "address payable",
          "name": "relayerAddress",
          "type": "address"
        },
        {
          "indexed": false,
          "internalType": "bytes",
          "name": "functionSignature",
          "type": "bytes"
        }
      ],
      "name": "MetaTransactionExecuted",
      "type": "event"
    },
    {
      "anonymous": false,
      "inputs": [
        {
          "indexed": true,
          "internalType": "address",
          "name": "guy",
          "type": "address"
        },
        {
          "indexed": false,
          "internalType": "uint256",
          "name": "wad",
          "type": "uint256"
        }
      ],
      "name": "Mint",
      "type": "event"
    },
    {
      "anonymous": false,
      "inputs": [
        {
          "indexed": true,
          "internalType": "address",
          "name": "src",
          "type": "address"
        },
        {
          "indexed": true,
          "internalType": "address",
          "name": "dst",
          "type": "address"
        },
        {
          "indexed": false,
          "internalType": "uint256",
          "name": "wad",
          "type": "uint256"
        }
      ],
      "name": "Transfer",
      "type": "event"
    },
    {
      "inputs": [],
      "name": "DOMAIN_SEPARATOR",
      "outputs": [
        {
          "internalType": "bytes32",
          "name": "",
          "type": "bytes32"
        }
      ],
      "stateMutability": "view",
      "type": "function"
    },
    {
      "inputs": [],
      "name": "PERMIT_TYPEHASH",
      "outputs": [
        {
          "internalType": "bytes32",
          "name": "",
          "type": "bytes32"
        }
      ],
      "stateMutability": "view",
      "type": "function"
    },
    {
      "inputs": [
        {
          "internalType": "address",
          "name": "src",
          "type": "address"
        },
        {
          "internalType": "address",
          "name": "guy",
          "type": "address"
        }
      ],
      "name": "allowance",
      "outputs": [
        {
          "internalType": "uint256",
          "name": "",
          "type": "uint256"
        }
      ],
      "stateMutability": "view",
      "type": "function"
    },
    {
      "inputs": [
        {
          "internalType": "address",
          "name": "guy",
          "type": "address"
        },
        {
          "internalType": "uint256",
          "name": "wad",
          "type": "uint256"
        }
      ],
      "name": "approve",
      "outputs": [
        {
          "internalType": "bool",
          "name": "",
          "type": "bool"
        }
      ],
      "stateMutability": "nonpayable",
      "type": "function"
    },
    {
      "inputs": [],
      "name": "authority",
      "outputs": [
        {
          "internalType": "contract DSAuthority",
          "name": "",
          "type": "address"
        }
      ],
      "stateMutability": "view",
      "type": "function"
    },
    {
      "inputs": [
        {
          "internalType": "address",
          "name": "src",
          "type": "address"
        }
      ],
      "name": "balanceOf",
      "outputs": [
        {
          "internalType": "uint256",
          "name": "",
          "type": "uint256"
        }
      ],
      "stateMutability": "view",
      "type": "function"
    },
    {
      "inputs": [],
      "name": "decimals",
      "outputs": [
        {
          "internalType": "uint8",
          "name": "",
          "type": "uint8"
        }
      ],
      "stateMutability": "view",
      "type": "function"
    },
    {
      "inputs": [
        {
          "internalType": "address",
          "name": "_user",
          "type": "address"
        },
        {
          "internalType": "bytes",
          "name": "_payload",
          "type": "bytes"
        },
        {
          "internalType": "bytes32",
          "name": "_sigR",
          "type": "bytes32"
        },
        {
          "internalType": "bytes32",
          "name": "_sigS",
          "type": "bytes32"
        },
        {
          "internalType": "uint8",
          "name": "_sigV",
          "type": "uint8"
        }
      ],
      "name": "executeMetaTransaction",
      "outputs": [
        {
          "internalType": "bytes",
          "name": "",
          "type": "bytes"
        }
      ],
      "stateMutability": "payable",
      "type": "function"
    },
    {
      "inputs": [],
      "name": "getChainId",
      "outputs": [
        {
          "internalType": "uint256",
          "name": "",
          "type": "uint256"
        }
      ],
      "stateMutability": "view",
      "type": "function"
    },
    {
      "inputs": [],
      "name": "locked",
      "outputs": [
        {
          "internalType": "bool",
          "name": "",
          "type": "bool"
        }
      ],
      "stateMutability": "view",
      "type": "function"
    },
    {
      "inputs": [],
      "name": "name",
      "outputs": [
        {
          "internalType": "string",
          "name": "",
          "type": "string"
        }
      ],
      "stateMutability": "view",
      "type": "function"
    },
    {
      "inputs": [],
      "name": "owner",
      "outputs": [
        {
          "internalType": "address",
          "name": "",
          "type": "address"
        }
      ],
      "stateMutability": "view",
      "type": "function"
    },
    {
      "inputs": [
        {
          "internalType": "contract DSAuthority",
          "name": "authority_",
          "type": "address"
        }
      ],
      "name": "setAuthority",
      "outputs": [],
      "stateMutability": "nonpayable",
      "type": "function"
    },
    {
      "inputs": [
        {
          "internalType": "address",
          "name": "owner_",
          "type": "address"
        }
      ],
      "name": "setOwner",
      "outputs": [],
      "stateMutability": "nonpayable",
      "type": "function"
    },
    {
      "inputs": [],
      "name": "symbol",
      "outputs": [
        {
          "internalType": "string",
          "name": "",
          "type": "string"
        }
      ],
      "stateMutability": "view",
      "type": "function"
    },
    {
      "inputs": [],
      "name": "totalSupply",
      "outputs": [
        {
          "internalType": "uint256",
          "name": "",
          "type": "uint256"
        }
      ],
      "stateMutability": "view",
      "type": "function"
    },
    {
      "inputs": [
        {
          "internalType": "address",
          "name": "dst",
          "type": "address"
        },
        {
          "internalType": "uint256",
          "name": "wad",
          "type": "uint256"
        }
      ],
      "name": "transfer",
      "outputs": [
        {
          "internalType": "bool",
          "name": "",
          "type": "bool"
        }
      ],
      "stateMutability": "nonpayable",
      "type": "function"
    },
    {
      "inputs": [
        {
          "internalType": "address",
          "name": "_owner",
          "type": "address"
        },
        {
          "internalType": "uint256",
          "name": "_nonce",
          "type": "uint256"
        },
        {
          "internalType": "uint256",
          "name": "_chainId",
          "type": "uint256"
        },
        {
          "internalType": "bytes",
          "name": "_payload",
          "type": "bytes"
        },
        {
          "internalType": "bytes32",
          "name": "_sigR",
          "type": "bytes32"
        },
        {
          "internalType": "bytes32",
          "name": "_sigS",
          "type": "bytes32"
        },
        {
          "internalType": "uint8",
          "name": "_sigV",
          "type": "uint8"
        }
      ],
      "name": "verify",
      "outputs": [
        {
          "internalType": "bool",
          "name": "",
          "type": "bool"
        }
      ],
      "stateMutability": "view",
      "type": "function"
    },
    {
      "inputs": [
        {
          "internalType": "address",
          "name": "_user",
          "type": "address"
        }
      ],
      "name": "getMetatransactionNonce",
      "outputs": [
        {
          "internalType": "uint256",
          "name": "nonce",
          "type": "uint256"
        }
      ],
      "stateMutability": "view",
      "type": "function"
    },
    {
      "inputs": [
        {
          "internalType": "address",
          "name": "src",
          "type": "address"
        },
        {
          "internalType": "address",
          "name": "dst",
          "type": "address"
        },
        {
          "internalType": "uint256",
          "name": "wad",
          "type": "uint256"
        }
      ],
      "name": "transferFrom",
      "outputs": [
        {
          "internalType": "bool",
          "name": "",
          "type": "bool"
        }
      ],
      "stateMutability": "nonpayable",
      "type": "function"
    },
    {
      "inputs": [
        {
          "internalType": "address",
          "name": "guy",
          "type": "address"
        },
        {
          "internalType": "uint256",
          "name": "wad",
          "type": "uint256"
        }
      ],
      "name": "mint",
      "outputs": [],
      "stateMutability": "nonpayable",
      "type": "function"
    },
    {
      "inputs": [
        {
          "internalType": "uint256",
          "name": "wad",
          "type": "uint256"
        }
      ],
      "name": "mint",
      "outputs": [],
      "stateMutability": "nonpayable",
      "type": "function"
    },
    {
      "inputs": [
        {
          "internalType": "uint256",
          "name": "wad",
          "type": "uint256"
        }
      ],
      "name": "burn",
      "outputs": [],
      "stateMutability": "nonpayable",
      "type": "function"
    },
    {
      "inputs": [
        {
          "internalType": "address",
          "name": "guy",
          "type": "address"
        },
        {
          "internalType": "uint256",
          "name": "wad",
          "type": "uint256"
        }
      ],
      "name": "burn",
      "outputs": [],
      "stateMutability": "nonpayable",
      "type": "function"
    },
    {
      "inputs": [],
      "name": "unlock",
      "outputs": [],
      "stateMutability": "nonpayable",
      "type": "function"
    },
    {
      "inputs": [
        {
          "internalType": "address",
          "name": "owner",
          "type": "address"
        },
        {
          "internalType": "address",
          "name": "spender",
          "type": "address"
        },
        {
          "internalType": "uint256",
          "name": "value",
          "type": "uint256"
        },
        {
          "internalType": "uint256",
          "name": "deadline",
          "type": "uint256"
        },
        {
          "internalType": "uint8",
          "name": "v",
          "type": "uint8"
        },
        {
          "internalType": "bytes32",
          "name": "r",
          "type": "bytes32"
        },
        {
          "internalType": "bytes32",
          "name": "s",
          "type": "bytes32"
        }
      ],
      "name": "permit",
      "outputs": [],
      "stateMutability": "nonpayable",
      "type": "function"
    }
  ],
  "bytecode": "0x60806040523480156200001157600080fd5b50604051620021f9380380620021f9833981810160405260608110156200003757600080fd5b81019080805160405193929190846401000000008211156200005857600080fd5b9083019060208201858111156200006e57600080fd5b82516401000000008111828201881017156200008957600080fd5b82525081516020918201929091019080838360005b83811015620000b85781810151838201526020016200009e565b50505050905090810190601f168015620000e65780820380516001836020036101000a031916815260200191505b50604052602001805160405193929190846401000000008211156200010a57600080fd5b9083019060208201858111156200012057600080fd5b82516401000000008111828201881017156200013b57600080fd5b82525081516020918201929091019080838360005b838110156200016a57818101518382015260200162000150565b50505050905090810190601f168015620001985780820380516001836020036101000a031916815260200191505b506040526020015191506000905080600181620001b4620003a6565b6001600160a01b03168152602081019190915260400160009081209190915555620001de620003a6565b600480546001600160a01b0319166001600160a01b039290921691909117905562000208620003a6565b6001600160a01b03167fce241d7ca1f669fee44b6fc00b8eba2df3bb514eed0f6f668f8f89096e81ed9460405160405180910390a28251620002529060069060208601906200045c565b508151620002689060059060208501906200045c565b506004805460ff60a01b1916600160a01b60ff8416021790556007805460ff191660019081179091556040516006805446937f8b73c3c69bb8fe3d512ecc4cf759cc79239f7b179b0ffacaa9a75d522b39400f9391829184916002610100928216159290920260001901160480156200031b5780601f10620002f85761010080835404028352918201916200031b565b820191906000526020600020905b81548152906001019060200180831162000306575b505060408051918290038220828201825260018352603160f81b602093840152815180840196909652858201527fc89efdaa54c0f20c7adf612882df0950f5a951637e0307cdcb4c672f298b8bc6606086015260808501959095523060a0808601919091528551808603909101815260c09094019094525050805191012060085550620004ee915050565b6000363330148015620003ba575060348110155b156200044d5760606000368080601f01602080910402602001604051908101604052809392919081815260200183838082843760009201919091525050505082810160131901519091507f02bcc191e283bfba76a1369ec8ba06566f33010645097c104c312753e04935e88114620004385733935050505062000459565b508101516001600160a01b0316915062000457565b3391505062000459565b505b90565b828054600181600116156101000203166002900490600052602060002090601f016020900481019282601f106200049f57805160ff1916838001178555620004cf565b82800160010185558215620004cf579182015b82811115620004cf578251825591602001919060010190620004b2565b50620004579291505b80821115620004575760008155600101620004d8565b611cfb80620004fe6000396000f3fe6080604052600436106101815760003560e01c806370a08231116100d1578063a69df4b51161008a578063bf7e214f11610064578063bf7e214f146106fa578063cf3090121461070f578063d505accf14610724578063dd62ed3e1461078257610181565b8063a69df4b514610679578063a9059cbb1461068e578063b3eac1d8146106c757610181565b806370a082311461056a5780637a9e5e4b1461059d5780638da5cb5b146105d057806395d89b41146106015780639dc29fac14610616578063a0712d681461064f57610181565b806330adf81f1161013e5780633644e515116101185780633644e5151461041557806340c10f191461042a57806342966c68146104635780636281133d1461048d57610181565b806330adf81f146103c0578063313ce567146103d55780633408e4701461040057610181565b806306fdde0314610186578063095ea7b3146102105780630c53c51c1461025d57806313af40351461032157806318160ddd1461035657806323b872dd1461037d575b600080fd5b34801561019257600080fd5b5061019b6107bd565b6040805160208082528351818301528351919283929083019185019080838360005b838110156101d55781810151838201526020016101bd565b50505050905090810190601f1680156102025780820380516001836020036101000a031916815260200191505b509250505060405180910390f35b34801561021c57600080fd5b506102496004803603604081101561023357600080fd5b506001600160a01b03813516906020013561084b565b604080519115158252519081900360200190f35b61019b600480360360a081101561027357600080fd5b6001600160a01b03823516919081019060408101602082013564010000000081111561029e57600080fd5b8201836020820111156102b057600080fd5b803590602001918460018302840111640100000000831117156102d257600080fd5b91908080601f016020809104026020016040519081016040528093929190818152602001838380828437600092019190915250929550508235935050506020810135906040013560ff166108dc565b34801561032d57600080fd5b506103546004803603602081101561034457600080fd5b50356001600160a01b0316610b8e565b005b34801561036257600080fd5b5061036b610c43565b60408051918252519081900360200190f35b34801561038957600080fd5b50610249600480360360608110156103a057600080fd5b506001600160a01b03813581169160208101359091169060400135610c4a565b3480156103cc57600080fd5b5061036b610cc3565b3480156103e157600080fd5b506103ea610ce7565b6040805160ff9092168252519081900360200190f35b34801561040c57600080fd5b5061036b610cf7565b34801561042157600080fd5b5061036b610cfb565b34801561043657600080fd5b506103546004803603604081101561044d57600080fd5b506001600160a01b038135169060200135610d01565b34801561046f57600080fd5b506103546004803603602081101561048657600080fd5b5035610e25565b34801561049957600080fd5b50610249600480360360e08110156104b057600080fd5b6001600160a01b0382351691602081013591604082013591908101906080810160608201356401000000008111156104e757600080fd5b8201836020820111156104f957600080fd5b8035906020019184600183028401116401000000008311171561051b57600080fd5b91908080601f016020809104026020016040519081016040528093929190818152602001838380828437600092019190915250929550508235935050506020810135906040013560ff16610e39565b34801561057657600080fd5b5061036b6004803603602081101561058d57600080fd5b50356001600160a01b0316610fb8565b3480156105a957600080fd5b50610354600480360360208110156105c057600080fd5b50356001600160a01b0316610fd3565b3480156105dc57600080fd5b506105e5611076565b604080516001600160a01b039092168252519081900360200190f35b34801561060d57600080fd5b5061019b611085565b34801561062257600080fd5b506103546004803603604081101561063957600080fd5b506001600160a01b0381351690602001356110e0565b34801561065b57600080fd5b506103546004803603602081101561067257600080fd5b503561131a565b34801561068557600080fd5b5061035461137e565b34801561069a57600080fd5b50610249600480360360408110156106b157600080fd5b506001600160a01b0381351690602001356113dd565b3480156106d357600080fd5b5061036b600480360360208110156106ea57600080fd5b50356001600160a01b03166113f8565b34801561070657600080fd5b506105e5611413565b34801561071b57600080fd5b50610249611422565b34801561073057600080fd5b50610354600480360360e081101561074757600080fd5b506001600160a01b03813581169160208101359091169060408101359060608101359060ff6080820135169060a08101359060c0013561142b565b34801561078e57600080fd5b5061036b600480360360408110156107a557600080fd5b506001600160a01b0381358116916020013516611744565b6006805460408051602060026001851615610100026000190190941693909304601f810184900484028201840190925281815292918301828280156108435780601f1061081857610100808354040283529160200191610843565b820191906000526020600020905b81548152906001019060200180831161082657829003601f168201915b505050505081565b6000816002600061085a61176f565b6001600160a01b039081168252602080830193909352604091820160009081209188168082529190935291209190915561089261176f565b6001600160a01b03167f8c5be1e5ebec7d5bd14f71427d1e84f3dd0314c0f7b2291e5b200ac8c7c3b925846040518082815260200191505060405180910390a35060015b92915050565b60606108fc866108eb886113f8565b6108f3610cf7565b88888888610e39565b6109375760405162461bcd60e51b8152600401808060200182810382526029815260200180611c9d6029913960400191505060405180910390fd5b6109408661181e565b60006060306001600160a01b0316877f02bcc191e283bfba76a1369ec8ba06566f33010645097c104c312753e04935e88a6040516020018084805190602001908083835b602083106109a35780518252601f199092019160209182019101610984565b6001836020036101000a038019825116818451168082178552505050505050905001838152602001826001600160a01b031660601b815260140193505050506040516020818303038152906040526040518082805190602001908083835b60208310610a205780518252601f199092019160209182019101610a01565b6001836020036101000a0380198251168184511680821785525050505050509050019150506000604051808303816000865af19150503d8060008114610a82576040519150601f19603f3d011682016040523d82523d6000602084013e610a87565b606091505b509150915081610ac85760405162461bcd60e51b8152600401808060200182810382526028815260200180611c756028913960400191505060405180910390fd5b7f5845892132946850460bff5a0083f71031bc5bf9aadcd40f1de79423eac9b10b88338960405180846001600160a01b03168152602001836001600160a01b0316815260200180602001828103825283818151815260200191508051906020019080838360005b83811015610b47578181015183820152602001610b2f565b50505050905090810190601f168015610b745780820380516001836020036101000a031916815260200191505b5094505050505060405180910390a1979650505050505050565b610bab610b9961176f565b6000356001600160e01b03191661183e565b610bf3576040805162461bcd60e51b8152602060048201526014602482015273191ccb585d5d1a0b5d5b985d5d1a1bdc9a5e995960621b604482015290519081900360640190fd5b600480546001600160a01b0319166001600160a01b0383811691909117918290556040519116907fce241d7ca1f669fee44b6fc00b8eba2df3bb514eed0f6f668f8f89096e81ed9490600090a250565b6000545b90565b60075460009060ff1615610cb057610c63610b9961176f565b610cb0576040805162461bcd60e51b815260206004820152601960248201527818dbdb1bdb9e4b5d1bdad95b8b5d5b985d5d1a1bdc9a5cd959603a1b604482015290519081900360640190fd5b610cbb848484611925565b949350505050565b7f6e71edae12b1b97f4d1f60370fef10105fa2faae0126114a169c64845d6126c981565b600454600160a01b900460ff1681565b4690565b60085481565b610d0c610b9961176f565b610d54576040805162461bcd60e51b8152602060048201526014602482015273191ccb585d5d1a0b5d5b985d5d1a1bdc9a5e995960621b604482015290519081900360640190fd5b6001600160a01b038216600090815260016020526040902054610d779082611b84565b6001600160a01b03831660009081526001602052604081209190915554610d9e9082611b84565b6000556040805182815290516001600160a01b038416917f0f6798a560793a54c3bcfe86a93cde1e73087d944c0ea20544137d4121396885919081900360200190a26040805182815290516001600160a01b038416916000917fddf252ad1be2c89b69c2b068fc378daa952ba7f163c4a11628f55a4df523b3ef9181900360200190a35050565b610e36610e3061176f565b826110e0565b50565b600080610ed68830898960405160200180858152602001846001600160a01b031660601b815260140183815260200182805190602001908083835b60208310610e935780518252601f199092019160209182019101610e74565b6001836020036101000a03801982511681845116808217855250505050505090500194505050505060405160208183030381529060405280519060200120611bd3565b9050600060018285888860405160008152602001604052604051808581526020018460ff1681526020018381526020018281526020019450505050506020604051602081039080840390855afa158015610f34573d6000803e3d6000fd5b5050604051601f1901519150506001600160a01b038116610f9c576040805162461bcd60e51b815260206004820152601f60248201527f636f6c6f6e792d6d65746174782d696e76616c69642d7369676e617475726500604482015290519081900360640190fd5b6001600160a01b038a8116911614915050979650505050505050565b6001600160a01b031660009081526001602052604090205490565b610fde610b9961176f565b611026576040805162461bcd60e51b8152602060048201526014602482015273191ccb585d5d1a0b5d5b985d5d1a1bdc9a5e995960621b604482015290519081900360640190fd5b600380546001600160a01b0319166001600160a01b0383811691909117918290556040519116907f1abebea81bfa2637f28358c371278fb15ede7ea8dd28d2e03b112ff6d936ada490600090a250565b6004546001600160a01b031681565b6005805460408051602060026001851615610100026000190190941693909304601f810184900484028201840190925281815292918301828280156108435780601f1061081857610100808354040283529160200191610843565b6110e861176f565b6001600160a01b0316826001600160a01b03161461121d576001600160a01b0382166000908152600260205260408120829161112261176f565b6001600160a01b03166001600160a01b03168152602001908152602001600020541015611196576040805162461bcd60e51b815260206004820152601e60248201527f64732d746f6b656e2d696e73756666696369656e742d617070726f76616c0000604482015290519081900360640190fd5b6001600160a01b03821660009081526002602052604081206111e1916111ba61176f565b6001600160a01b03166001600160a01b031681526020019081526020016000205482611c24565b6001600160a01b03831660009081526002602052604081209061120261176f565b6001600160a01b031681526020810191909152604001600020555b6001600160a01b03821660009081526001602052604090205481111561128a576040805162461bcd60e51b815260206004820152601d60248201527f64732d746f6b656e2d696e73756666696369656e742d62616c616e6365000000604482015290519081900360640190fd5b6001600160a01b0382166000908152600160205260409020546112ad9082611c24565b6001600160a01b038316600090815260016020526040812091909155546112d49082611c24565b6000556040805182815290516001600160a01b038416917fcc16f5dbb4873280815c1ee09dbd06736cffcc184412cf7a71a0fdb75d397ca5919081900360200190a25050565b611325610b9961176f565b61136d576040805162461bcd60e51b8152602060048201526014602482015273191ccb585d5d1a0b5d5b985d5d1a1bdc9a5e995960621b604482015290519081900360640190fd5b610e3661137861176f565b82610d01565b611389610b9961176f565b6113d1576040805162461bcd60e51b8152602060048201526014602482015273191ccb585d5d1a0b5d5b985d5d1a1bdc9a5e995960621b604482015290519081900360640190fd5b6007805460ff19169055565b60006113f16113ea61176f565b8484610c4a565b9392505050565b6001600160a01b031660009081526009602052604090205490565b6003546001600160a01b031681565b60075460ff1681565b60075460ff161561148e57611441610b9961176f565b61148e576040805162461bcd60e51b815260206004820152601960248201527818dbdb1bdb9e4b5d1bdad95b8b5d5b985d5d1a1bdc9a5cd959603a1b604482015290519081900360640190fd5b428410156114e3576040805162461bcd60e51b815260206004820152601d60248201527f636f6c6f6e792d746f6b656e2d657870697265642d646561646c696e65000000604482015290519081900360640190fd5b6040805180820182526002815261190160f01b60208083019182526008546001600160a01b03808d1660008181526009855287812080546001810190915588517f6e71edae12b1b97f4d1f60370fef10105fa2faae0126114a169c64845d6126c981880152808a0193909352928e166060830152608082018d905260a082019290925260c08082018c90528751808303909101815260e082019097528651969093019590952084519193909261010001918291908083835b602083106115ba5780518252601f19909201916020918201910161159b565b51815160209384036101000a6000190180199092169116179052920194855250838101929092525060408051808403830181528184018083528151918401919091206000918290526060850180845281905260ff8a16608086015260a0850189905260c085018890529151919550935060019260e08082019392601f1981019281900390910190855afa158015611655573d6000803e3d6000fd5b5050604051601f1901519150506001600160a01b0381161580159061168b5750886001600160a01b0316816001600160a01b0316145b6116dc576040805162461bcd60e51b815260206004820152601e60248201527f636f6c6f6e792d746f6b656e2d696e76616c69642d7369676e61747572650000604482015290519081900360640190fd5b6001600160a01b03808a166000818152600260209081526040808320948d16808452948252918290208b905581518b815291517f8c5be1e5ebec7d5bd14f71427d1e84f3dd0314c0f7b2291e5b200ac8c7c3b9259281900390910190a3505050505050505050565b6001600160a01b03918216600090815260026020908152604080832093909416825291909152205490565b6000363330148015611782575060348110155b156118115760606000368080601f01602080910402602001604051908101604052809392919081815260200183838082843760009201919091525050505082810160131901519091507f02bcc191e283bfba76a1369ec8ba06566f33010645097c104c312753e04935e881146117fd57339350505050610c47565b508101516001600160a01b0316915061181a565b33915050610c47565b5090565b6001600160a01b0316600090815260096020526040902080546001019055565b60006001600160a01b038316301415611859575060016108d6565b6004546001600160a01b0384811691161415611877575060016108d6565b6003546001600160a01b031661188f575060006108d6565b6003546040805163b700961360e01b81526001600160a01b0386811660048301523060248301526001600160e01b0319861660448301529151919092169163b7009613916064808301926020929190829003018186803b1580156118f257600080fd5b505afa158015611906573d6000803e3d6000fd5b505050506040513d602081101561191c57600080fd5b505190506108d6565b600061192f61176f565b6001600160a01b0316846001600160a01b031614611a64576001600160a01b0384166000908152600260205260408120839161196961176f565b6001600160a01b03166001600160a01b031681526020019081526020016000205410156119dd576040805162461bcd60e51b815260206004820152601e60248201527f64732d746f6b656e2d696e73756666696369656e742d617070726f76616c0000604482015290519081900360640190fd5b6001600160a01b0384166000908152600260205260408120611a2891611a0161176f565b6001600160a01b03166001600160a01b031681526020019081526020016000205483611c24565b6001600160a01b038516600090815260026020526040812090611a4961176f565b6001600160a01b031681526020810191909152604001600020555b6001600160a01b038416600090815260016020526040902054821115611ad1576040805162461bcd60e51b815260206004820152601d60248201527f64732d746f6b656e2d696e73756666696369656e742d62616c616e6365000000604482015290519081900360640190fd5b6001600160a01b038416600090815260016020526040902054611af49083611c24565b6001600160a01b038086166000908152600160205260408082209390935590851681522054611b239083611b84565b6001600160a01b0380851660008181526001602090815260409182902094909455805186815290519193928816927fddf252ad1be2c89b69c2b068fc378daa952ba7f163c4a11628f55a4df523b3ef92918290030190a35060019392505050565b808201828110156108d6576040805162461bcd60e51b815260206004820152601460248201527364732d6d6174682d6164642d6f766572666c6f7760601b604482015290519081900360640190fd5b604080517f19457468657265756d205369676e6564204d6573736167653a0a333200000000602080830191909152603c8083019490945282518083039094018452605c909101909152815191012090565b808203828111156108d6576040805162461bcd60e51b815260206004820152601560248201527464732d6d6174682d7375622d756e646572666c6f7760581b604482015290519081900360640190fdfe636f6c6f6e792d6d65746174782d66756e6374696f6e2d63616c6c2d756e7375636365737366756c6d6574617472616e73616374696f6e2d7369676e65722d7369676e61747572652d6d69736d61746368a264697066735822122055eeac2228dfae391826f6e9c9787a4f1714e9610e01479e0866abfee76d559864736f6c63430007030033",
  "immutableReferences": {},
  "source": "/*\n  This file is part of The Colony Network.\n\n  The Colony Network is free software: you can redistribute it and/or modify\n  it under the terms of the GNU General Public License as published by\n  the Free Software Foundation, either version 3 of the License, or\n  (at your option) any later version.\n\n  The Colony Network is distributed in the hope that it will be useful,\n  but WITHOUT ANY WARRANTY; without even the implied warranty of\n  MERCHANTABILITY or FITNESS FOR A PARTICULAR PURPOSE.  See the\n  GNU General Public License for more details.\n\n  You should have received a copy of the GNU General Public License\n  along with The Colony Network. If not, see <http://www.gnu.org/licenses/>.\n*/\n\npragma solidity 0.7.3;\n\nimport \"./DSTokenBaseMeta.sol\";\nimport \"./DSAuthMeta.sol\";\n\ncontract MetaTxToken is DSTokenBaseMeta(0), DSAuthMeta {\n  uint8 public decimals;\n  string public symbol;\n  string public name;\n\n  bool public locked;\n  bytes32 public DOMAIN_SEPARATOR;\n\n  mapping(address => uint256) metatransactionNonces;\n\n  event Mint(address indexed guy, uint256 wad);\n  event Burn(address indexed guy, uint256 wad);\n\n  function getMetatransactionNonce(address _user) override public view returns (uint256 nonce){\n    return metatransactionNonces[_user];\n  }\n\n  function incrementMetatransactionNonce(address _user) override internal {\n    metatransactionNonces[_user]++;\n  }\n\n  modifier unlocked {\n    if (locked) {\n      require(isAuthorized(msgSender(), msg.sig), \"colony-token-unauthorised\");\n    }\n    _;\n  }\n\n  constructor(string memory _name, string memory _symbol, uint8 _decimals) {\n    name = _name;\n    symbol = _symbol;\n    decimals = _decimals;\n    locked = true;\n\n    uint256 chainId;\n    assembly {\n        chainId := chainid()\n    }\n\n    DOMAIN_SEPARATOR = keccak256(\n        abi.encode(\n            keccak256(\"EIP712Domain(string name,string version,uint256 chainId,address verifyingContract)\"),\n            keccak256(bytes(name)),\n            keccak256(bytes(\"1\")),\n            chainId,\n            address(this)\n        )\n    );\n  }\n\n  function transferFrom(address src, address dst, uint256 wad) public\n  unlocked override\n  returns (bool)\n  {\n    return super.transferFrom(src, dst, wad);\n  }\n\n  function mint(uint256 wad) public auth {\n    mint(msgSender(), wad);\n  }\n\n  function burn(uint256 wad) public {\n    burn(msgSender(), wad);\n  }\n\n  function mint(address guy, uint256 wad) public auth {\n    _balances[guy] = add(_balances[guy], wad);\n    _supply = add(_supply, wad);\n\n    emit Mint(guy, wad);\n    emit Transfer(address(0x0), guy, wad);\n  }\n\n  function burn(address guy, uint256 wad) public {\n    if (guy != msgSender()) {\n      require(_approvals[guy][msgSender()] >= wad, \"ds-token-insufficient-approval\");\n      _approvals[guy][msgSender()] = sub(_approvals[guy][msgSender()], wad);\n    }\n\n    require(_balances[guy] >= wad, \"ds-token-insufficient-balance\");\n    _balances[guy] = sub(_balances[guy], wad);\n    _supply = sub(_supply, wad);\n\n    emit Burn(guy, wad);\n  }\n\n  function unlock() public\n  auth\n  {\n    locked = false;\n  }\n\n  // Pinched from https://github.com/Uniswap/uniswap-v2-core/blob/master/contracts/UniswapV2ERC20.sol\n  // Which is also licenced under GPL V3\n\n  // keccak256(\"Permit(address owner,address spender,uint256 value,uint256 nonce,uint256 deadline)\");\n  bytes32 public constant PERMIT_TYPEHASH = 0x6e71edae12b1b97f4d1f60370fef10105fa2faae0126114a169c64845d6126c9;\n  string constant EIP_712_PREFIX = \"\\x19\\x01\";\n\n  function permit(address owner, address spender, uint256 value, uint256 deadline, uint8 v, bytes32 r, bytes32 s) external unlocked {\n      require(deadline >= block.timestamp, \"colony-token-expired-deadline\");\n\n      bytes32 digest = keccak256(\n          abi.encodePacked(\n              EIP_712_PREFIX,\n              DOMAIN_SEPARATOR,\n              keccak256(abi.encode(PERMIT_TYPEHASH, owner, spender, value, metatransactionNonces[owner]++, deadline))\n          )\n      );\n      address recoveredAddress = ecrecover(digest, v, r, s);\n      require(recoveredAddress != address(0) && recoveredAddress == owner, \"colony-token-invalid-signature\");\n      _approvals[owner][spender] = value;\n\n      emit Approval(owner, spender, value);\n  }\n}",
  "sourcePath": "/home/alex/colony/colonyNetwork/contracts/metatxToken/MetaTxToken.sol",
  "compiler": {
    "name": "solc",
    "version": "0.7.3+commit.9bfce1f6.Linux.g++"
  },
  "schemaVersion": "3.3.0",
  "updatedAt": "2021-07-01T10:51:24.382Z",
  "devdoc": {
    "kind": "dev",
    "methods": {
      "executeMetaTransaction(address,bytes,bytes32,bytes32,uint8)": {
        "params": {
          "_payload": "Function call to make via meta transaction",
          "_sigR": "R part of the signature",
          "_sigS": "S part of the signature",
          "_sigV": "V part of the signature",
          "_user": "Address of user trying to do meta transaction"
        }
      }
    },
    "version": 1
  },
  "userdoc": {
    "kind": "user",
    "methods": {
      "executeMetaTransaction(address,bytes,bytes32,bytes32,uint8)": {
        "notice": "Main function to be called when user wants to execute meta transaction. The actual function to be called should be passed as param with name functionSignature Here the basic signature recovery is being used. Signature is expected to be generated using personal_sign method."
      }
    },
    "version": 1
  }
}