{
  "contractName": "DSToken",
  "abi": [
    {
      "constant": true,
      "inputs": [],
      "name": "name",
      "outputs": [
        {
          "name": "",
          "type": "bytes32"
        }
      ],
      "payable": false,
      "stateMutability": "view",
      "type": "function"
    },
    {
      "constant": false,
      "inputs": [],
      "name": "stop",
      "outputs": [],
      "payable": false,
      "stateMutability": "nonpayable",
      "type": "function"
    },
    {
      "constant": false,
      "inputs": [
        {
          "name": "owner_",
          "type": "address"
        }
      ],
      "name": "setOwner",
      "outputs": [],
      "payable": false,
      "stateMutability": "nonpayable",
      "type": "function"
    },
    {
      "constant": true,
      "inputs": [],
      "name": "totalSupply",
      "outputs": [
        {
          "name": "",
          "type": "uint256"
        }
      ],
      "payable": false,
      "stateMutability": "view",
      "type": "function"
    },
    {
      "constant": true,
      "inputs": [],
      "name": "decimals",
      "outputs": [
        {
          "name": "",
          "type": "uint256"
        }
      ],
      "payable": false,
      "stateMutability": "view",
      "type": "function"
    },
    {
      "constant": true,
      "inputs": [
        {
          "name": "src",
          "type": "address"
        }
      ],
      "name": "balanceOf",
      "outputs": [
        {
          "name": "",
          "type": "uint256"
        }
      ],
      "payable": false,
      "stateMutability": "view",
      "type": "function"
    },
    {
      "constant": true,
      "inputs": [],
      "name": "stopped",
      "outputs": [
        {
          "name": "",
          "type": "bool"
        }
      ],
      "payable": false,
      "stateMutability": "view",
      "type": "function"
    },
    {
      "constant": false,
      "inputs": [
        {
          "name": "authority_",
          "type": "address"
        }
      ],
      "name": "setAuthority",
      "outputs": [],
      "payable": false,
      "stateMutability": "nonpayable",
      "type": "function"
    },
    {
      "constant": true,
      "inputs": [],
      "name": "owner",
      "outputs": [
        {
          "name": "",
          "type": "address"
        }
      ],
      "payable": false,
      "stateMutability": "view",
      "type": "function"
    },
    {
      "constant": true,
      "inputs": [],
      "name": "symbol",
      "outputs": [
        {
          "name": "",
          "type": "bytes32"
        }
      ],
      "payable": false,
      "stateMutability": "view",
      "type": "function"
    },
    {
      "constant": false,
      "inputs": [
        {
          "name": "dst",
          "type": "address"
        },
        {
          "name": "wad",
          "type": "uint256"
        }
      ],
      "name": "transfer",
      "outputs": [
        {
          "name": "",
          "type": "bool"
        }
      ],
      "payable": false,
      "stateMutability": "nonpayable",
      "type": "function"
    },
    {
      "constant": false,
      "inputs": [],
      "name": "start",
      "outputs": [],
      "payable": false,
      "stateMutability": "nonpayable",
      "type": "function"
    },
    {
      "constant": true,
      "inputs": [],
      "name": "authority",
      "outputs": [
        {
          "name": "",
          "type": "address"
        }
      ],
      "payable": false,
      "stateMutability": "view",
      "type": "function"
    },
    {
      "constant": true,
      "inputs": [
        {
          "name": "src",
          "type": "address"
        },
        {
          "name": "guy",
          "type": "address"
        }
      ],
      "name": "allowance",
      "outputs": [
        {
          "name": "",
          "type": "uint256"
        }
      ],
      "payable": false,
      "stateMutability": "view",
      "type": "function"
    },
    {
      "inputs": [
        {
          "name": "symbol_",
          "type": "bytes32"
        }
      ],
      "payable": false,
      "stateMutability": "nonpayable",
      "type": "constructor"
    },
    {
      "anonymous": false,
      "inputs": [
        {
          "indexed": true,
          "name": "guy",
          "type": "address"
        },
        {
          "indexed": false,
          "name": "wad",
          "type": "uint256"
        }
      ],
      "name": "Mint",
      "type": "event"
    },
    {
      "anonymous": false,
      "inputs": [
        {
          "indexed": true,
          "name": "guy",
          "type": "address"
        },
        {
          "indexed": false,
          "name": "wad",
          "type": "uint256"
        }
      ],
      "name": "Burn",
      "type": "event"
    },
    {
      "anonymous": false,
      "inputs": [
        {
          "indexed": true,
          "name": "authority",
          "type": "address"
        }
      ],
      "name": "LogSetAuthority",
      "type": "event"
    },
    {
      "anonymous": false,
      "inputs": [
        {
          "indexed": true,
          "name": "owner",
          "type": "address"
        }
      ],
      "name": "LogSetOwner",
      "type": "event"
    },
    {
      "anonymous": true,
      "inputs": [
        {
          "indexed": true,
          "name": "sig",
          "type": "bytes4"
        },
        {
          "indexed": true,
          "name": "guy",
          "type": "address"
        },
        {
          "indexed": true,
          "name": "foo",
          "type": "bytes32"
        },
        {
          "indexed": true,
          "name": "bar",
          "type": "bytes32"
        },
        {
          "indexed": false,
          "name": "wad",
          "type": "uint256"
        },
        {
          "indexed": false,
          "name": "fax",
          "type": "bytes"
        }
      ],
      "name": "LogNote",
      "type": "event"
    },
    {
      "anonymous": false,
      "inputs": [
        {
          "indexed": true,
          "name": "src",
          "type": "address"
        },
        {
          "indexed": true,
          "name": "guy",
          "type": "address"
        },
        {
          "indexed": false,
          "name": "wad",
          "type": "uint256"
        }
      ],
      "name": "Approval",
      "type": "event"
    },
    {
      "anonymous": false,
      "inputs": [
        {
          "indexed": true,
          "name": "src",
          "type": "address"
        },
        {
          "indexed": true,
          "name": "dst",
          "type": "address"
        },
        {
          "indexed": false,
          "name": "wad",
          "type": "uint256"
        }
      ],
      "name": "Transfer",
      "type": "event"
    },
    {
      "constant": false,
      "inputs": [
        {
          "name": "guy",
          "type": "address"
        },
        {
          "name": "wad",
          "type": "uint256"
        }
      ],
      "name": "approve",
      "outputs": [
        {
          "name": "",
          "type": "bool"
        }
      ],
      "payable": false,
      "stateMutability": "nonpayable",
      "type": "function"
    },
    {
      "constant": false,
      "inputs": [
        {
          "name": "guy",
          "type": "address"
        }
      ],
      "name": "approve",
      "outputs": [
        {
          "name": "",
          "type": "bool"
        }
      ],
      "payable": false,
      "stateMutability": "nonpayable",
      "type": "function"
    },
    {
      "constant": false,
      "inputs": [
        {
          "name": "src",
          "type": "address"
        },
        {
          "name": "dst",
          "type": "address"
        },
        {
          "name": "wad",
          "type": "uint256"
        }
      ],
      "name": "transferFrom",
      "outputs": [
        {
          "name": "",
          "type": "bool"
        }
      ],
      "payable": false,
      "stateMutability": "nonpayable",
      "type": "function"
    },
    {
      "constant": false,
      "inputs": [
        {
          "name": "dst",
          "type": "address"
        },
        {
          "name": "wad",
          "type": "uint256"
        }
      ],
      "name": "push",
      "outputs": [],
      "payable": false,
      "stateMutability": "nonpayable",
      "type": "function"
    },
    {
      "constant": false,
      "inputs": [
        {
          "name": "src",
          "type": "address"
        },
        {
          "name": "wad",
          "type": "uint256"
        }
      ],
      "name": "pull",
      "outputs": [],
      "payable": false,
      "stateMutability": "nonpayable",
      "type": "function"
    },
    {
      "constant": false,
      "inputs": [
        {
          "name": "src",
          "type": "address"
        },
        {
          "name": "dst",
          "type": "address"
        },
        {
          "name": "wad",
          "type": "uint256"
        }
      ],
      "name": "move",
      "outputs": [],
      "payable": false,
      "stateMutability": "nonpayable",
      "type": "function"
    },
    {
      "constant": false,
      "inputs": [
        {
          "name": "wad",
          "type": "uint256"
        }
      ],
      "name": "mint",
      "outputs": [],
      "payable": false,
      "stateMutability": "nonpayable",
      "type": "function"
    },
    {
      "constant": false,
      "inputs": [
        {
          "name": "guy",
          "type": "address"
        },
        {
          "name": "wad",
          "type": "uint256"
        }
      ],
      "name": "mint",
      "outputs": [],
      "payable": false,
      "stateMutability": "nonpayable",
      "type": "function"
    },
    {
      "constant": false,
      "inputs": [
        {
          "name": "wad",
          "type": "uint256"
        }
      ],
      "name": "burn",
      "outputs": [],
      "payable": false,
      "stateMutability": "nonpayable",
      "type": "function"
    },
    {
      "constant": false,
      "inputs": [
        {
          "name": "guy",
          "type": "address"
        },
        {
          "name": "wad",
          "type": "uint256"
        }
      ],
      "name": "burn",
      "outputs": [],
      "payable": false,
      "stateMutability": "nonpayable",
      "type": "function"
    },
    {
      "constant": false,
      "inputs": [
        {
          "name": "name_",
          "type": "bytes32"
        }
      ],
      "name": "setName",
      "outputs": [],
      "payable": false,
      "stateMutability": "nonpayable",
      "type": "function"
    }
  ],
  "bytecode": "0x60806040526012600655600060075534801561001a57600080fd5b5060405160208061136e8339810160408181529151600160a060020a0333166000818152600160205293842084905583805560048054600160a060020a03191682179055909290917fce241d7ca1f669fee44b6fc00b8eba2df3bb514eed0f6f668f8f89096e81ed949190a26005556112d6806100986000396000f3006080604052600436106101485763ffffffff7c010000000000000000000000000000000000000000000000000000000060003504166306fdde03811461014d57806307da68f514610174578063095ea7b31461018b57806313af4035146101c357806318160ddd146101e457806323b872dd146101f9578063313ce5671461022357806340c10f191461023857806342966c681461025c5780635ac801fe1461027457806370a082311461028c57806375f12b21146102ad5780637a9e5e4b146102c25780638da5cb5b146102e357806395d89b41146103145780639dc29fac14610329578063a0712d681461034d578063a9059cbb14610365578063b753a98c14610389578063bb35783b146103ad578063be9a6555146103d7578063bf7e214f146103ec578063daea85c514610401578063dd62ed3e14610422578063f2d5d56b14610449575b600080fd5b34801561015957600080fd5b5061016261046d565b60408051918252519081900360200190f35b34801561018057600080fd5b50610189610473565b005b34801561019757600080fd5b506101af600160a060020a0360043516602435610553565b604080519115158252519081900360200190f35b3480156101cf57600080fd5b50610189600160a060020a03600435166105b9565b3480156101f057600080fd5b50610162610670565b34801561020557600080fd5b506101af600160a060020a0360043581169060243516604435610676565b34801561022f57600080fd5b50610162610912565b34801561024457600080fd5b50610189600160a060020a0360043516602435610918565b34801561026857600080fd5b50610189600435610a52565b34801561028057600080fd5b50610189600435610a5f565b34801561029857600080fd5b50610162600160a060020a0360043516610abe565b3480156102b957600080fd5b506101af610ad9565b3480156102ce57600080fd5b50610189600160a060020a0360043516610ae9565b3480156102ef57600080fd5b506102f8610ba0565b60408051600160a060020a039092168252519081900360200190f35b34801561032057600080fd5b50610162610baf565b34801561033557600080fd5b50610189600160a060020a0360043516602435610bb5565b34801561035957600080fd5b50610189600435610e85565b34801561037157600080fd5b506101af600160a060020a0360043516602435610e8f565b34801561039557600080fd5b50610189600160a060020a0360043516602435610e9c565b3480156103b957600080fd5b50610189600160a060020a0360043581169060243516604435610eac565b3480156103e357600080fd5b50610189610ebd565b3480156103f857600080fd5b506102f8610f97565b34801561040d57600080fd5b506101af600160a060020a0360043516610fa6565b34801561042e57600080fd5b50610162600160a060020a0360043581169060243516611005565b34801561045557600080fd5b50610189600160a060020a0360043516602435611030565b60075481565b61048933600035600160e060020a03191661103b565b15156104cd576040805160e560020a62461bcd028152602060048201526014602482015260008051602061128b833981519152604482015290519081900360640190fd5b6040805134808252602082018381523693830184905260043593602435938492869233600160a060020a03169260008035600160e060020a031916938893919290606082018484808284376040519201829003965090945050505050a450506004805474ff0000000000000000000000000000000000000000191660a060020a17905550565b60045460009060a060020a900460ff16156105a6576040805160e560020a62461bcd028152602060048201526012602482015260008051602061126b833981519152604482015290519081900360640190fd5b6105b0838361114a565b90505b92915050565b6105cf33600035600160e060020a03191661103b565b1515610613576040805160e560020a62461bcd028152602060048201526014602482015260008051602061128b833981519152604482015290519081900360640190fd5b6004805473ffffffffffffffffffffffffffffffffffffffff1916600160a060020a0383811691909117918290556040519116907fce241d7ca1f669fee44b6fc00b8eba2df3bb514eed0f6f668f8f89096e81ed9490600090a250565b60005490565b60045460009060a060020a900460ff16156106c9576040805160e560020a62461bcd028152602060048201526012602482015260008051602061126b833981519152604482015290519081900360640190fd5b33600160a060020a031684600160a060020a0316141580156107135750600160a060020a038085166000908152600260209081526040808320339094168352929052205460001914155b156107ef57600160a060020a0380851660009081526002602090815260408083203390941683529290522054821115610796576040805160e560020a62461bcd02815260206004820152601e60248201527f64732d746f6b656e2d696e73756666696369656e742d617070726f76616c0000604482015290519081900360640190fd5b600160a060020a03808516600090815260026020908152604080832033909416835292905220546107c790836111b4565b600160a060020a03808616600090815260026020908152604080832033909416835292905220555b600160a060020a03841660009081526001602052604090205482111561085f576040805160e560020a62461bcd02815260206004820152601d60248201527f64732d746f6b656e2d696e73756666696369656e742d62616c616e6365000000604482015290519081900360640190fd5b600160a060020a03841660009081526001602052604090205461088290836111b4565b600160a060020a0380861660009081526001602052604080822093909355908516815220546108b1908361120f565b600160a060020a0380851660008181526001602090815260409182902094909455805186815290519193928816927fddf252ad1be2c89b69c2b068fc378daa952ba7f163c4a11628f55a4df523b3ef92918290030190a35060019392505050565b60065481565b61092e33600035600160e060020a03191661103b565b1515610972576040805160e560020a62461bcd028152602060048201526014602482015260008051602061128b833981519152604482015290519081900360640190fd5b60045460a060020a900460ff16156109c2576040805160e560020a62461bcd028152602060048201526012602482015260008051602061126b833981519152604482015290519081900360640190fd5b600160a060020a0382166000908152600160205260409020546109e5908261120f565b600160a060020a03831660009081526001602052604081209190915554610a0c908261120f565b600055604080518281529051600160a060020a038416917f0f6798a560793a54c3bcfe86a93cde1e73087d944c0ea20544137d4121396885919081900360200190a25050565b610a5c3382610bb5565b50565b610a7533600035600160e060020a03191661103b565b1515610ab9576040805160e560020a62461bcd028152602060048201526014602482015260008051602061128b833981519152604482015290519081900360640190fd5b600755565b600160a060020a031660009081526001602052604090205490565b60045460a060020a900460ff1681565b610aff33600035600160e060020a03191661103b565b1515610b43576040805160e560020a62461bcd028152602060048201526014602482015260008051602061128b833981519152604482015290519081900360640190fd5b6003805473ffffffffffffffffffffffffffffffffffffffff1916600160a060020a0383811691909117918290556040519116907f1abebea81bfa2637f28358c371278fb15ede7ea8dd28d2e03b112ff6d936ada490600090a250565b600454600160a060020a031681565b60055481565b610bcb33600035600160e060020a03191661103b565b1515610c0f576040805160e560020a62461bcd028152602060048201526014602482015260008051602061128b833981519152604482015290519081900360640190fd5b60045460a060020a900460ff1615610c5f576040805160e560020a62461bcd028152602060048201526012602482015260008051602061126b833981519152604482015290519081900360640190fd5b33600160a060020a031682600160a060020a031614158015610ca95750600160a060020a038083166000908152600260209081526040808320339094168352929052205460001914155b15610d8557600160a060020a0380831660009081526002602090815260408083203390941683529290522054811115610d2c576040805160e560020a62461bcd02815260206004820152601e60248201527f64732d746f6b656e2d696e73756666696369656e742d617070726f76616c0000604482015290519081900360640190fd5b600160a060020a0380831660009081526002602090815260408083203390941683529290522054610d5d90826111b4565b600160a060020a03808416600090815260026020908152604080832033909416835292905220555b600160a060020a038216600090815260016020526040902054811115610df5576040805160e560020a62461bcd02815260206004820152601d60248201527f64732d746f6b656e2d696e73756666696369656e742d62616c616e6365000000604482015290519081900360640190fd5b600160a060020a038216600090815260016020526040902054610e1890826111b4565b600160a060020a03831660009081526001602052604081209190915554610e3f90826111b4565b600055604080518281529051600160a060020a038416917fcc16f5dbb4873280815c1ee09dbd06736cffcc184412cf7a71a0fdb75d397ca5919081900360200190a25050565b610a5c3382610918565b60006105b0338484610676565b610ea7338383610676565b505050565b610eb7838383610676565b50505050565b610ed333600035600160e060020a03191661103b565b1515610f17576040805160e560020a62461bcd028152602060048201526014602482015260008051602061128b833981519152604482015290519081900360640190fd5b6040805134808252602082018381523693830184905260043593602435938492869233600160a060020a03169260008035600160e060020a031916938893919290606082018484808284376040519201829003965090945050505050a450506004805474ff00000000000000000000000000000000000000001916905550565b600354600160a060020a031681565b60045460009060a060020a900460ff1615610ff9576040805160e560020a62461bcd028152602060048201526012602482015260008051602061126b833981519152604482015290519081900360640190fd5b6105b38260001961114a565b600160a060020a03918216600090815260026020908152604080832093909416825291909152205490565b610ea7823383610676565b600030600160a060020a031683600160a060020a0316141561105f575060016105b3565b600454600160a060020a038481169116141561107d575060016105b3565b600354600160a060020a03161515611097575060006105b3565b600354604080517fb7009613000000000000000000000000000000000000000000000000000000008152600160a060020a0386811660048301523081166024830152600160e060020a0319861660448301529151919092169163b70096139160648083019260209291908290030181600087803b15801561111757600080fd5b505af115801561112b573d6000803e3d6000fd5b505050506040513d602081101561114157600080fd5b505190506105b3565b600160a060020a03338116600081815260026020908152604080832094871680845294825280832086905580518681529051929493927f8c5be1e5ebec7d5bd14f71427d1e84f3dd0314c0f7b2291e5b200ac8c7c3b925929181900390910190a350600192915050565b808203828111156105b3576040805160e560020a62461bcd02815260206004820152601560248201527f64732d6d6174682d7375622d756e646572666c6f770000000000000000000000604482015290519081900360640190fd5b808201828110156105b3576040805160e560020a62461bcd02815260206004820152601460248201527f64732d6d6174682d6164642d6f766572666c6f77000000000000000000000000604482015290519081900360640190fd0064732d73746f702d69732d73746f70706564000000000000000000000000000064732d617574682d756e617574686f72697a6564000000000000000000000000a165627a7a723058204dce8bc0ae31358f22561f84466ed4d2d85520c3ed989b077dfd87437f1a80500029",
  "source": "/// token.sol -- ERC20 implementation with minting and burning\n\n// Copyright (C) 2015, 2016, 2017  DappHub, LLC\n\n// This program is free software: you can redistribute it and/or modify\n// it under the terms of the GNU General Public License as published by\n// the Free Software Foundation, either version 3 of the License, or\n// (at your option) any later version.\n\n// This program is distributed in the hope that it will be useful,\n// but WITHOUT ANY WARRANTY; without even the implied warranty of\n// MERCHANTABILITY or FITNESS FOR A PARTICULAR PURPOSE.  See the\n// GNU General Public License for more details.\n\n// You should have received a copy of the GNU General Public License\n// along with this program.  If not, see <http://www.gnu.org/licenses/>.\n\npragma solidity >=0.4.23;\n\nimport \"./stop.sol\";\n\nimport \"./base.sol\";\n\ncontract DSToken is DSTokenBase(0), DSStop {\n\n    bytes32  public  symbol;\n    uint256  public  decimals = 18; // standard token precision. override to customize\n\n    constructor(bytes32 symbol_) public {\n        symbol = symbol_;\n    }\n\n    event Mint(address indexed guy, uint wad);\n    event Burn(address indexed guy, uint wad);\n\n    function approve(address guy) public stoppable returns (bool) {\n        return super.approve(guy, uint(-1));\n    }\n\n    function approve(address guy, uint wad) public stoppable returns (bool) {\n        return super.approve(guy, wad);\n    }\n\n    function transferFrom(address src, address dst, uint wad)\n        public\n        stoppable\n        returns (bool)\n    {\n        if (src != msg.sender && _approvals[src][msg.sender] != uint(-1)) {\n            require(_approvals[src][msg.sender] >= wad, \"ds-token-insufficient-approval\");\n            _approvals[src][msg.sender] = sub(_approvals[src][msg.sender], wad);\n        }\n\n        require(_balances[src] >= wad, \"ds-token-insufficient-balance\");\n        _balances[src] = sub(_balances[src], wad);\n        _balances[dst] = add(_balances[dst], wad);\n\n        emit Transfer(src, dst, wad);\n\n        return true;\n    }\n\n    function push(address dst, uint wad) public {\n        transferFrom(msg.sender, dst, wad);\n    }\n    function pull(address src, uint wad) public {\n        transferFrom(src, msg.sender, wad);\n    }\n    function move(address src, address dst, uint wad) public {\n        transferFrom(src, dst, wad);\n    }\n\n    function mint(uint wad) public {\n        mint(msg.sender, wad);\n    }\n    function burn(uint wad) public {\n        burn(msg.sender, wad);\n    }\n    function mint(address guy, uint wad) public auth stoppable {\n        _balances[guy] = add(_balances[guy], wad);\n        _supply = add(_supply, wad);\n        emit Mint(guy, wad);\n    }\n    function burn(address guy, uint wad) public auth stoppable {\n        if (guy != msg.sender && _approvals[guy][msg.sender] != uint(-1)) {\n            require(_approvals[guy][msg.sender] >= wad, \"ds-token-insufficient-approval\");\n            _approvals[guy][msg.sender] = sub(_approvals[guy][msg.sender], wad);\n        }\n\n        require(_balances[guy] >= wad, \"ds-token-insufficient-balance\");\n        _balances[guy] = sub(_balances[guy], wad);\n        _supply = sub(_supply, wad);\n        emit Burn(guy, wad);\n    }\n\n    // Optional token name\n    bytes32   public  name = \"\";\n\n    function setName(bytes32 name_) public auth {\n        name = name_;\n    }\n}\n",
  "sourcePath": "/Users/Admin/Workspace/projects/colony/colonyStarter/lib/colonyNetwork/lib/dappsys/token.sol",
  "compiler": {
    "name": "solc",
    "version": "0.4.23+commit.124ca40d.Linux.g++"
  },
  "schemaVersion": "3.0.1",
  "updatedAt": "2019-02-14T04:14:56.151Z",
  "devdoc": {
    "methods": {}
  },
  "userdoc": {
    "methods": {}
  }
}