{
  "contractName": "OneTxPayment",
  "abi": [
    {
      "constant": false,
      "inputs": [
        {
          "name": "_colony",
          "type": "address"
        },
        {
          "name": "_worker",
          "type": "address"
        },
        {
          "name": "_token",
          "type": "address"
        },
        {
          "name": "_amount",
          "type": "uint256"
        },
        {
          "name": "_domainId",
          "type": "uint256"
        },
        {
          "name": "_skillId",
          "type": "uint256"
        }
      ],
      "name": "makePayment",
      "outputs": [],
      "payable": false,
      "stateMutability": "nonpayable",
      "type": "function",
      "signature": "0x423dd703"
    }
  ],
  "bytecode": "0x608060405234801561001057600080fd5b50610562806100206000396000f3006080604052600436106100405763ffffffff7c0100000000000000000000000000000000000000000000000000000000600035041663423dd7038114610045575b600080fd5b34801561005157600080fd5b5061006561006036600461033c565b610067565b005b6000808791508173ffffffffffffffffffffffffffffffffffffffff1663bf7e214f6040518163ffffffff167c0100000000000000000000000000000000000000000000000000000000028152600401602060405180830381600087803b1580156100d157600080fd5b505af11580156100e5573d6000803e3d6000fd5b505050506040513d601f19601f820116820180604052506101099190810190610316565b604080517f6d616b655061796d656e7428616464726573732c616464726573732c75696e7481527f3235362c75696e743235362c75696e7432353629000000000000000000000000602082015290519081900360340181207fb700961300000000000000000000000000000000000000000000000000000000825291925073ffffffffffffffffffffffffffffffffffffffff83169163b7009613916101b69133918d9190600401610458565b602060405180830381600087803b1580156101d057600080fd5b505af11580156101e4573d6000803e3d6000fd5b505050506040513d601f19601f8201168201806040525061020891908101906103c3565b1515610249576040517f08c379a0000000000000000000000000000000000000000000000000000000008152600401610240906104cc565b60405180910390fd5b6040517f74b201d200000000000000000000000000000000000000000000000000000000815273ffffffffffffffffffffffffffffffffffffffff8316906374b201d2906102a3908a908a908a908a908a90600401610480565b600060405180830381600087803b1580156102bd57600080fd5b505af11580156102d1573d6000803e3d6000fd5b505050505050505050505050565b60006102eb82356104e2565b9392505050565b60006102eb82516104e2565b60006102eb8251610523565b60006102eb8235610520565b60006020828403121561032857600080fd5b600061033484846102f2565b949350505050565b60008060008060008060c0878903121561035557600080fd5b600061036189896102df565b965050602061037289828a016102df565b955050604061038389828a016102df565b945050606061039489828a0161030a565b93505060806103a589828a0161030a565b92505060a06103b689828a0161030a565b9150509295509295509295565b6000602082840312156103d557600080fd5b600061033484846102fe565b6103ea816104e2565b82525050565b6103ea816104fb565b602481527f636f6c6f6e792d6f6e652d74782d7061796d656e742d6e6f742d617574686f7260208201527f697a656400000000000000000000000000000000000000000000000000000000604082015260600190565b6103ea81610520565b6060810161046682866103e1565b61047360208301856103e1565b61033460408301846103f0565b60a0810161048e82886103e1565b61049b60208301876103e1565b6104a8604083018661044f565b6104b5606083018561044f565b6104c2608083018461044f565b9695505050505050565b602080825281016104dc816103f9565b92915050565b73ffffffffffffffffffffffffffffffffffffffff1690565b7fffffffff000000000000000000000000000000000000000000000000000000001690565b90565b1515905600a265627a7a72305820eecb1456dcc1ad1d74c6f91163e42887049f6bd097b9285b3a45d49aef3066cf6c6578706572696d656e74616cf50037",
  "source": "/*\n  This file is part of The Colony Network.\n\n  The Colony Network is free software: you can redistribute it and/or modify\n  it under the terms of the GNU General Public License as published by\n  the Free Software Foundation, either version 3 of the License, or\n  (at your option) any later version.\n\n  The Colony Network is distributed in the hope that it will be useful,\n  but WITHOUT ANY WARRANTY; without even the implied warranty of\n  MERCHANTABILITY or FITNESS FOR A PARTICULAR PURPOSE.  See the\n  GNU General Public License for more details.\n\n  You should have received a copy of the GNU General Public License\n  along with The Colony Network. If not, see <http://www.gnu.org/licenses/>.\n*/\n\npragma solidity >=0.4.23 <0.5.0;\npragma experimental ABIEncoderV2;\n\nimport \"./../IColony.sol\";\nimport \"./../../lib/dappsys/roles.sol\";\n\n\ncontract OneTxPayment {\n  function makePayment(address _colony, address _worker, address _token, uint256 _amount, uint256 _domainId, uint256 _skillId) public {\n    IColony colony = IColony(_colony);\n\n    // Check caller is able to call makePayment on the colony\n    // msg.sig is the same for this call as it is for the one we make below, so may as well use it here\n    DSRoles authority = DSRoles(colony.authority());\n    require(\n      authority.canCall(\n        msg.sender,\n        _colony,\n        bytes4(keccak256(\"makePayment(address,address,uint256,uint256,uint256)\"))\n      ),\n      \"colony-one-tx-payment-not-authorized\"\n    );\n\n    // Make payment\n    colony.makePayment(_worker, _token, _amount, _domainId, _skillId);\n  }\n\n\n}\n",
  "sourcePath": "/Users/Admin/Workspace/projects/colony/colonyStarter/lib/colonyNetwork/contracts/extensions/OneTxPayment.sol",
  "compiler": {
    "name": "solc",
    "version": "0.4.23+commit.124ca40d.Linux.g++"
  },
  "schemaVersion": "3.0.1",
  "updatedAt": "2019-02-14T22:55:40.241Z",
  "devdoc": {
    "methods": {}
  },
  "userdoc": {
    "methods": {}
  }
}