{
  "contractName": "Token",
  "abi": [
    {
      "constant": true,
      "inputs": [],
      "name": "name",
      "outputs": [
        {
          "name": "",
          "type": "string"
        }
      ],
      "payable": false,
      "stateMutability": "view",
      "type": "function",
      "signature": "0x06fdde03"
    },
    {
      "constant": false,
      "inputs": [
        {
          "name": "guy",
          "type": "address"
        },
        {
          "name": "wad",
          "type": "uint256"
        }
      ],
      "name": "approve",
      "outputs": [
        {
          "name": "",
          "type": "bool"
        }
      ],
      "payable": false,
      "stateMutability": "nonpayable",
      "type": "function",
      "signature": "0x095ea7b3"
    },
    {
      "constant": false,
      "inputs": [
        {
          "name": "owner_",
          "type": "address"
        }
      ],
      "name": "setOwner",
      "outputs": [],
      "payable": false,
      "stateMutability": "nonpayable",
      "type": "function",
      "signature": "0x13af4035"
    },
    {
      "constant": true,
      "inputs": [],
      "name": "totalSupply",
      "outputs": [
        {
          "name": "",
          "type": "uint256"
        }
      ],
      "payable": false,
      "stateMutability": "view",
      "type": "function",
      "signature": "0x18160ddd"
    },
    {
      "constant": true,
      "inputs": [],
      "name": "decimals",
      "outputs": [
        {
          "name": "",
          "type": "uint8"
        }
      ],
      "payable": false,
      "stateMutability": "view",
      "type": "function",
      "signature": "0x313ce567"
    },
    {
      "constant": true,
      "inputs": [
        {
          "name": "src",
          "type": "address"
        }
      ],
      "name": "balanceOf",
      "outputs": [
        {
          "name": "",
          "type": "uint256"
        }
      ],
      "payable": false,
      "stateMutability": "view",
      "type": "function",
      "signature": "0x70a08231"
    },
    {
      "constant": false,
      "inputs": [
        {
          "name": "authority_",
          "type": "address"
        }
      ],
      "name": "setAuthority",
      "outputs": [],
      "payable": false,
      "stateMutability": "nonpayable",
      "type": "function",
      "signature": "0x7a9e5e4b"
    },
    {
      "constant": true,
      "inputs": [],
      "name": "owner",
      "outputs": [
        {
          "name": "",
          "type": "address"
        }
      ],
      "payable": false,
      "stateMutability": "view",
      "type": "function",
      "signature": "0x8da5cb5b"
    },
    {
      "constant": true,
      "inputs": [],
      "name": "symbol",
      "outputs": [
        {
          "name": "",
          "type": "string"
        }
      ],
      "payable": false,
      "stateMutability": "view",
      "type": "function",
      "signature": "0x95d89b41"
    },
    {
      "constant": false,
      "inputs": [
        {
          "name": "dst",
          "type": "address"
        },
        {
          "name": "wad",
          "type": "uint256"
        }
      ],
      "name": "transfer",
      "outputs": [
        {
          "name": "",
          "type": "bool"
        }
      ],
      "payable": false,
      "stateMutability": "nonpayable",
      "type": "function",
      "signature": "0xa9059cbb"
    },
    {
      "constant": true,
      "inputs": [],
      "name": "authority",
      "outputs": [
        {
          "name": "",
          "type": "address"
        }
      ],
      "payable": false,
      "stateMutability": "view",
      "type": "function",
      "signature": "0xbf7e214f"
    },
    {
      "constant": true,
      "inputs": [],
      "name": "locked",
      "outputs": [
        {
          "name": "",
          "type": "bool"
        }
      ],
      "payable": false,
      "stateMutability": "view",
      "type": "function",
      "signature": "0xcf309012"
    },
    {
      "constant": true,
      "inputs": [
        {
          "name": "src",
          "type": "address"
        },
        {
          "name": "guy",
          "type": "address"
        }
      ],
      "name": "allowance",
      "outputs": [
        {
          "name": "",
          "type": "uint256"
        }
      ],
      "payable": false,
      "stateMutability": "view",
      "type": "function",
      "signature": "0xdd62ed3e"
    },
    {
      "inputs": [
        {
          "name": "_name",
          "type": "string"
        },
        {
          "name": "_symbol",
          "type": "string"
        },
        {
          "name": "_decimals",
          "type": "uint8"
        }
      ],
      "payable": false,
      "stateMutability": "nonpayable",
      "type": "constructor",
      "signature": "constructor"
    },
    {
      "anonymous": false,
      "inputs": [
        {
          "indexed": true,
          "name": "guy",
          "type": "address"
        },
        {
          "indexed": false,
          "name": "wad",
          "type": "uint256"
        }
      ],
      "name": "Mint",
      "type": "event",
      "signature": "0x0f6798a560793a54c3bcfe86a93cde1e73087d944c0ea20544137d4121396885"
    },
    {
      "anonymous": false,
      "inputs": [
        {
          "indexed": true,
          "name": "guy",
          "type": "address"
        },
        {
          "indexed": false,
          "name": "wad",
          "type": "uint256"
        }
      ],
      "name": "Burn",
      "type": "event",
      "signature": "0xcc16f5dbb4873280815c1ee09dbd06736cffcc184412cf7a71a0fdb75d397ca5"
    },
    {
      "anonymous": false,
      "inputs": [
        {
          "indexed": true,
          "name": "authority",
          "type": "address"
        }
      ],
      "name": "LogSetAuthority",
      "type": "event",
      "signature": "0x1abebea81bfa2637f28358c371278fb15ede7ea8dd28d2e03b112ff6d936ada4"
    },
    {
      "anonymous": false,
      "inputs": [
        {
          "indexed": true,
          "name": "owner",
          "type": "address"
        }
      ],
      "name": "LogSetOwner",
      "type": "event",
      "signature": "0xce241d7ca1f669fee44b6fc00b8eba2df3bb514eed0f6f668f8f89096e81ed94"
    },
    {
      "anonymous": false,
      "inputs": [
        {
          "indexed": true,
          "name": "src",
          "type": "address"
        },
        {
          "indexed": true,
          "name": "guy",
          "type": "address"
        },
        {
          "indexed": false,
          "name": "wad",
          "type": "uint256"
        }
      ],
      "name": "Approval",
      "type": "event",
      "signature": "0x8c5be1e5ebec7d5bd14f71427d1e84f3dd0314c0f7b2291e5b200ac8c7c3b925"
    },
    {
      "anonymous": false,
      "inputs": [
        {
          "indexed": true,
          "name": "src",
          "type": "address"
        },
        {
          "indexed": true,
          "name": "dst",
          "type": "address"
        },
        {
          "indexed": false,
          "name": "wad",
          "type": "uint256"
        }
      ],
      "name": "Transfer",
      "type": "event",
      "signature": "0xddf252ad1be2c89b69c2b068fc378daa952ba7f163c4a11628f55a4df523b3ef"
    },
    {
      "constant": false,
      "inputs": [
        {
          "name": "src",
          "type": "address"
        },
        {
          "name": "dst",
          "type": "address"
        },
        {
          "name": "wad",
          "type": "uint256"
        }
      ],
      "name": "transferFrom",
      "outputs": [
        {
          "name": "",
          "type": "bool"
        }
      ],
      "payable": false,
      "stateMutability": "nonpayable",
      "type": "function",
      "signature": "0x23b872dd"
    },
    {
      "constant": false,
      "inputs": [
        {
          "name": "wad",
          "type": "uint256"
        }
      ],
      "name": "mint",
      "outputs": [],
      "payable": false,
      "stateMutability": "nonpayable",
      "type": "function",
      "signature": "0xa0712d68"
    },
    {
      "constant": false,
      "inputs": [
        {
          "name": "wad",
          "type": "uint256"
        }
      ],
      "name": "burn",
      "outputs": [],
      "payable": false,
      "stateMutability": "nonpayable",
      "type": "function",
      "signature": "0x42966c68"
    },
    {
      "constant": false,
      "inputs": [],
      "name": "unlock",
      "outputs": [],
      "payable": false,
      "stateMutability": "nonpayable",
      "type": "function",
      "signature": "0xa69df4b5"
    }
  ],
  "bytecode": "0x608060405234801561001057600080fd5b50604051610c07380380610c07833981016040818152825160208085015183860151336000818152600190945294832083905582805560048054600160a060020a031916861790559286019501939192917fce241d7ca1f669fee44b6fc00b8eba2df3bb514eed0f6f668f8f89096e81ed949190a282516100989060069060208601906100f3565b5081516100ac9060059060208501906100f3565b506004805460ff909216740100000000000000000000000000000000000000000260a060020a60ff021990921691909117905550506007805460ff1916600117905561018e565b828054600181600116156101000203166002900490600052602060002090601f016020900481019282601f1061013457805160ff1916838001178555610161565b82800160010185558215610161579182015b82811115610161578251825591602001919060010190610146565b5061016d929150610171565b5090565b61018b91905b8082111561016d5760008155600101610177565b90565b610a6a8061019d6000396000f3006080604052600436106100f05763ffffffff7c010000000000000000000000000000000000000000000000000000000060003504166306fdde0381146100f5578063095ea7b31461017f57806313af4035146101b757806318160ddd146101da57806323b872dd14610201578063313ce5671461022b57806342966c681461025657806370a082311461026e5780637a9e5e4b1461028f5780638da5cb5b146102b057806395d89b41146102e1578063a0712d68146102f6578063a69df4b51461030e578063a9059cbb14610323578063bf7e214f14610347578063cf3090121461035c578063dd62ed3e14610371575b600080fd5b34801561010157600080fd5b5061010a610398565b6040805160208082528351818301528351919283929083019185019080838360005b8381101561014457818101518382015260200161012c565b50505050905090810190601f1680156101715780820380516001836020036101000a031916815260200191505b509250505060405180910390f35b34801561018b57600080fd5b506101a3600160a060020a0360043516602435610426565b604080519115158252519081900360200190f35b3480156101c357600080fd5b506101d8600160a060020a036004351661048d565b005b3480156101e657600080fd5b506101ef61050b565b60408051918252519081900360200190f35b34801561020d57600080fd5b506101a3600160a060020a0360043581169060243516604435610511565b34801561023757600080fd5b50610240610553565b6040805160ff9092168252519081900360200190f35b34801561026257600080fd5b506101d8600435610574565b34801561027a57600080fd5b506101ef600160a060020a03600435166105e8565b34801561029b57600080fd5b506101d8600160a060020a0360043516610603565b3480156102bc57600080fd5b506102c5610681565b60408051600160a060020a039092168252519081900360200190f35b3480156102ed57600080fd5b5061010a610690565b34801561030257600080fd5b506101d86004356106eb565b34801561031a57600080fd5b506101d8610780565b34801561032f57600080fd5b506101a3600160a060020a03600435166024356107ad565b34801561035357600080fd5b506102c56107c1565b34801561036857600080fd5b506101a36107d0565b34801561037d57600080fd5b506101ef600160a060020a03600435811690602435166107d9565b6006805460408051602060026001851615610100026000190190941693909304601f8101849004840282018401909252818152929183018282801561041e5780601f106103f35761010080835404028352916020019161041e565b820191906000526020600020905b81548152906001019060200180831161040157829003601f168201915b505050505081565b336000818152600260209081526040808320600160a060020a038716808552908352818420869055815186815291519394909390927f8c5be1e5ebec7d5bd14f71427d1e84f3dd0314c0f7b2291e5b200ac8c7c3b925928290030190a35060015b92915050565b6104a333600035600160e060020a031916610804565b15156104ae57600080fd5b6004805473ffffffffffffffffffffffffffffffffffffffff1916600160a060020a0383811691909117918290556040519116907fce241d7ca1f669fee44b6fc00b8eba2df3bb514eed0f6f668f8f89096e81ed9490600090a250565b60005490565b60075460009060ff16156105405761053533600035600160e060020a031916610804565b151561054057600080fd5b61054b848484610906565b949350505050565b60045474010000000000000000000000000000000000000000900460ff1681565b3360009081526001602052604090205461058e9082610a1e565b33600090815260016020526040812091909155546105ac9082610a1e565b60005560408051828152905133917fcc16f5dbb4873280815c1ee09dbd06736cffcc184412cf7a71a0fdb75d397ca5919081900360200190a250565b600160a060020a031660009081526001602052604090205490565b61061933600035600160e060020a031916610804565b151561062457600080fd5b6003805473ffffffffffffffffffffffffffffffffffffffff1916600160a060020a0383811691909117918290556040519116907f1abebea81bfa2637f28358c371278fb15ede7ea8dd28d2e03b112ff6d936ada490600090a250565b600454600160a060020a031681565b6005805460408051602060026001851615610100026000190190941693909304601f8101849004840282018401909252818152929183018282801561041e5780601f106103f35761010080835404028352916020019161041e565b61070133600035600160e060020a031916610804565b151561070c57600080fd5b336000908152600160205260409020546107269082610a2e565b33600090815260016020526040812091909155546107449082610a2e565b60005560408051828152905133917f0f6798a560793a54c3bcfe86a93cde1e73087d944c0ea20544137d4121396885919081900360200190a250565b61079633600035600160e060020a031916610804565b15156107a157600080fd5b6007805460ff19169055565b60006107ba338484610511565b9392505050565b600354600160a060020a031681565b60075460ff1681565b600160a060020a03918216600090815260026020908152604080832093909416825291909152205490565b6000600160a060020a03831630141561081f57506001610487565b600454600160a060020a038481169116141561083d57506001610487565b600354600160a060020a0316151561085757506000610487565b600354604080517fb7009613000000000000000000000000000000000000000000000000000000008152600160a060020a038681166004830152306024830152600160e060020a0319861660448301529151919092169163b7009613916064808301926020929190829003018186803b1580156108d357600080fd5b505afa1580156108e7573d6000803e3d6000fd5b505050506040513d60208110156108fd57600080fd5b50519050610487565b6000600160a060020a038416331461096b57600160a060020a03841660009081526002602090815260408083203384529091529020546109469083610a1e565b600160a060020a03851660009081526002602090815260408083203384529091529020555b600160a060020a03841660009081526001602052604090205461098e9083610a1e565b600160a060020a0380861660009081526001602052604080822093909355908516815220546109bd9083610a2e565b600160a060020a0380851660008181526001602090815260409182902094909455805186815290519193928816927fddf252ad1be2c89b69c2b068fc378daa952ba7f163c4a11628f55a4df523b3ef92918290030190a35060019392505050565b8082038281111561048757600080fd5b8082018281101561048757600080fd00a165627a7a723058203422d9c4f2728d1d555c1269cafa298e0d7059e09895703b1852303a2ca72c370029",
  "source": "/*\n  This file is part of The Colony Network.\n\n  The Colony Network is free software: you can redistribute it and/or modify\n  it under the terms of the GNU General Public License as published by\n  the Free Software Foundation, either version 3 of the License, or\n  (at your option) any later version.\n\n  The Colony Network is distributed in the hope that it will be useful,\n  but WITHOUT ANY WARRANTY; without even the implied warranty of\n  MERCHANTABILITY or FITNESS FOR A PARTICULAR PURPOSE.  See the\n  GNU General Public License for more details.\n\n  You should have received a copy of the GNU General Public License\n  along with The Colony Network. If not, see <http://www.gnu.org/licenses/>.\n*/\n\npragma solidity ^0.4.23;\npragma experimental \"v0.5.0\";\n\n\nimport \"../lib/dappsys/auth.sol\";\nimport \"../lib/dappsys/base.sol\";\nimport \"./ERC20Extended.sol\";\n\n\ncontract Token is DSTokenBase(0), DSAuth, ERC20Extended {\n  uint8 public decimals;\n  string public symbol;\n  string public name;\n\n  bool public locked;\n\n  modifier unlocked {\n    if (locked) {\n      require(isAuthorized(msg.sender, msg.sig));\n    }\n    _;\n  }\n\n  constructor(string _name, string _symbol, uint8 _decimals) public {\n    name = _name;\n    symbol = _symbol;\n    decimals = _decimals;\n    locked = true;\n  }\n\n  function transferFrom(address src, address dst, uint wad) public \n  unlocked\n  returns (bool)\n  {\n    return super.transferFrom(src, dst, wad);\n  }\n\n  function mint(uint wad) public\n  auth\n  {\n    _balances[msg.sender] = add(_balances[msg.sender], wad);\n    _supply = add(_supply, wad);\n\n    emit Mint(msg.sender, wad);\n  }\n\n  function burn(uint wad) public {\n    _balances[msg.sender] = sub(_balances[msg.sender], wad);\n    _supply = sub(_supply, wad);\n\n    emit Burn(msg.sender, wad);\n  }\n\n  function unlock() public\n  auth\n  {\n    locked = false;\n  }\n}\n",
  "sourcePath": "/Users/Elena/colonyToken/contracts/Token.sol",
  "compiler": {
    "name": "solc",
    "version": "0.4.25+commit.59dbf8f1.Emscripten.clang"
  },
  "schemaVersion": "3.0.1",
  "updatedAt": "2019-02-14T22:22:11.653Z"
}