{
  "contractName": "EtherRouter",
  "abi": [
    {
      "constant": true,
      "inputs": [],
      "name": "resolver",
      "outputs": [
        {
          "name": "",
          "type": "address"
        }
      ],
      "payable": false,
      "stateMutability": "view",
      "type": "function"
    },
    {
      "constant": false,
      "inputs": [
        {
          "name": "owner_",
          "type": "address"
        }
      ],
      "name": "setOwner",
      "outputs": [],
      "payable": false,
      "stateMutability": "nonpayable",
      "type": "function"
    },
    {
      "constant": false,
      "inputs": [
        {
          "name": "authority_",
          "type": "address"
        }
      ],
      "name": "setAuthority",
      "outputs": [],
      "payable": false,
      "stateMutability": "nonpayable",
      "type": "function"
    },
    {
      "constant": true,
      "inputs": [],
      "name": "owner",
      "outputs": [
        {
          "name": "",
          "type": "address"
        }
      ],
      "payable": false,
      "stateMutability": "view",
      "type": "function"
    },
    {
      "constant": true,
      "inputs": [],
      "name": "authority",
      "outputs": [
        {
          "name": "",
          "type": "address"
        }
      ],
      "payable": false,
      "stateMutability": "view",
      "type": "function"
    },
    {
      "payable": true,
      "stateMutability": "payable",
      "type": "fallback"
    },
    {
      "anonymous": false,
      "inputs": [
        {
          "indexed": true,
          "name": "authority",
          "type": "address"
        }
      ],
      "name": "LogSetAuthority",
      "type": "event"
    },
    {
      "anonymous": false,
      "inputs": [
        {
          "indexed": true,
          "name": "owner",
          "type": "address"
        }
      ],
      "name": "LogSetOwner",
      "type": "event"
    },
    {
      "constant": false,
      "inputs": [
        {
          "name": "_resolver",
          "type": "address"
        }
      ],
      "name": "setResolver",
      "outputs": [],
      "payable": false,
      "stateMutability": "nonpayable",
      "type": "function"
    }
  ],
  "bytecode": "0x60806040819052600180546001600160a01b03191633908117909155907fce241d7ca1f669fee44b6fc00b8eba2df3bb514eed0f6f668f8f89096e81ed9490600090a2610554806100516000396000f3fe6080604052600436106100555760003560e01c806304f3bcec1461013157806313af4035146101625780634e543b26146101955780637a9e5e4b146101c85780638da5cb5b146101fb578063bf7e214f14610210575b6001600160e01b03196000351661006b5761012f565b60025460408051600160e11b6337b47469028152600080356001600160e01b0319166004830152915191926001600160a01b031691636f68e8d291602480820192602092909190829003018186803b1580156100c657600080fd5b505afa1580156100da573d6000803e3d6000fd5b505050506040513d60208110156100f057600080fd5b50519050803b8061010057600080fd5b36600060405137600060405136604051855af43d60006040513e8060018114610129573d604051fd5b3d604051f35b005b34801561013d57600080fd5b50610146610225565b604080516001600160a01b039092168252519081900360200190f35b34801561016e57600080fd5b5061012f6004803603602081101561018557600080fd5b50356001600160a01b0316610234565b3480156101a157600080fd5b5061012f600480360360208110156101b857600080fd5b50356001600160a01b03166102e8565b3480156101d457600080fd5b5061012f600480360360208110156101eb57600080fd5b50356001600160a01b031661036e565b34801561020757600080fd5b5061014661041e565b34801561021c57600080fd5b5061014661042d565b6002546001600160a01b031681565b61024a336000356001600160e01b03191661043c565b6102985760408051600160e51b62461bcd0281526020600482015260146024820152600160621b73191ccb585d5d1a0b5d5b985d5d1a1bdc9a5e995902604482015290519081900360640190fd5b600180546001600160a01b0319166001600160a01b0383811691909117918290556040519116907fce241d7ca1f669fee44b6fc00b8eba2df3bb514eed0f6f668f8f89096e81ed9490600090a250565b6102fe336000356001600160e01b03191661043c565b61034c5760408051600160e51b62461bcd0281526020600482015260146024820152600160621b73191ccb585d5d1a0b5d5b985d5d1a1bdc9a5e995902604482015290519081900360640190fd5b600280546001600160a01b0319166001600160a01b0392909216919091179055565b610384336000356001600160e01b03191661043c565b6103d25760408051600160e51b62461bcd0281526020600482015260146024820152600160621b73191ccb585d5d1a0b5d5b985d5d1a1bdc9a5e995902604482015290519081900360640190fd5b600080546001600160a01b0319166001600160a01b03838116919091178083556040519116917f1abebea81bfa2637f28358c371278fb15ede7ea8dd28d2e03b112ff6d936ada491a250565b6001546001600160a01b031681565b6000546001600160a01b031681565b60006001600160a01b03831630141561045757506001610522565b6001546001600160a01b038481169116141561047557506001610522565b6000546001600160a01b031661048d57506000610522565b60005460408051600160e01b63b70096130281526001600160a01b0386811660048301523060248301526001600160e01b0319861660448301529151919092169163b7009613916064808301926020929190829003018186803b1580156104f357600080fd5b505afa158015610507573d6000803e3d6000fd5b505050506040513d602081101561051d57600080fd5b505190505b9291505056fea165627a7a723058202faed4931303033989c8f397072490ff447e663d04b8f9907d8666189a90c0ad0029",
  "source": "/*\n  This file is part of The Colony Network.\n\n  The Colony Network is free software: you can redistribute it and/or modify\n  it under the terms of the GNU General Public License as published by\n  the Free Software Foundation, either version 3 of the License, or\n  (at your option) any later version.\n\n  The Colony Network is distributed in the hope that it will be useful,\n  but WITHOUT ANY WARRANTY; without even the implied warranty of\n  MERCHANTABILITY or FITNESS FOR A PARTICULAR PURPOSE.  See the\n  GNU General Public License for more details.\n\n  You should have received a copy of the GNU General Public License\n  along with The Colony Network. If not, see <http://www.gnu.org/licenses/>.\n*/\n\npragma solidity 0.5.8;\n\nimport \"./Resolver.sol\";\nimport \"../lib/dappsys/auth.sol\";\n\n\ncontract EtherRouter is DSAuth {\n  Resolver public resolver;\n\n  function() external payable {\n    if (msg.sig == 0) {\n      return;\n    }\n    // Contracts that want to receive Ether with a plain \"send\" have to implement\n    // a fallback function with the payable modifier. Contracts now throw if no payable\n    // fallback function is defined and no function matches the signature.\n    // However, 'send' only provides 2300 gas, which is not enough for EtherRouter\n    // so we shortcut it here.\n    //\n    // Note that this means we can never have a fallback function that 'does' stuff.\n    // but those only really seem to be ICOs, to date. To be explicit, there is a hard\n    // decision to be made here. Either:\n    // 1. Contracts that use 'send' or 'transfer' cannot send money to Colonies/ColonyNetwork\n    // 2. We commit to never using a fallback function that does anything.\n    //\n    // We have decided on option 2 here. In the future, if we wish to have such a fallback function\n    // for a Colony, it could be in a separate extension contract.\n\n    // Get routing information for the called function\n    address destination = resolver.lookup(msg.sig);\n\n    // Make the call\n    assembly {\n      let size := extcodesize(destination)\n      if eq(size, 0) { revert(0,0) }\n\n      calldatacopy(mload(0x40), 0, calldatasize)\n      let result := delegatecall(gas, destination, mload(0x40), calldatasize, mload(0x40), 0) // ignore-swc-113\n      // as their addresses are controlled by the Resolver which we trust\n      returndatacopy(mload(0x40), 0, returndatasize)\n      switch result\n      case 1 { return(mload(0x40), returndatasize) }\n      default { revert(mload(0x40), returndatasize) }\n    }\n  }\n\n  function setResolver(address _resolver) public\n  auth\n  {\n    resolver = Resolver(_resolver);\n  }\n}\n",
  "sourcePath": "/Users/kronosapiens/code/colony/colonyNetwork/contracts/EtherRouter.sol",
  "compiler": {
    "name": "solc",
    "version": "0.5.8+commit.23d335f2.Linux.g++"
  },
  "schemaVersion": "3.0.23",
  "updatedAt": "2020-04-01T16:17:37.671Z",
  "networkType": "ethereum",
  "devdoc": {
    "methods": {}
  },
  "userdoc": {
    "methods": {}
  }
}